:020000040800F2
:100000000000022095220008D9240008E5240008F9
:10001000ED240008F5240008FD240008000000007D
:10002000000000000000000000000000C5B3000850
:10003000052500080000000075B50008CDB50008D2
:1000400029250008E1220008E1220008E122000839
:10005000E1220008E1220008E12200081125000841
:10006000E1220008E1220008E1220008E122000864
:10007000E1220008E1220008E1220008E122000854
:10008000E1220008E1220008E1220008E122000844
:10009000E1220008E1220008E1220008E122000834
:1000A000E1220008E1220008E1220008E122000824
:1000B000E1220008E12200081D250008E1220008D5
:1000C000E1220008E1220008E1220008E122000804
:1000D000E1220008C12500084D250008412500083F
:1000E000E1220008E1220008E1220008E1220008E4
:1000F000E5250008F1250008FD250008E12200089B
:10010000E1220008716A0008E1220008E1220008EB
:10011000D9250008CD250008E1220008E1220008C9
:10012000E1220008E1220008E12200087D6A0008BF
:10013000E1220008E1220008E1220008E122000893
:10014000E1220008E1220008E12200080926000857
:10015000E1220008E1220008E1220008352500081C
:10016000E1220008E1220008E1220008E122000863
:10017000E1220008E1220008E1220008E122000853
:08018000E1220008E122000861
:10018800014600200246034600F0F0BC00210A2286
:1001980000F0DEBC00220A2300F038BC40F2000365
:1001A800C2F200031868704740F200030146C2F229
:1001B8000003186800F008B840F200030146C2F2D4
:1001C8000003186800F094BD2DE9F04F01F10B040D
:1001D800162C83B0074630D924F00704E30F8C426D
:1001E8002CBF194643F0010100292FD1384600F0F1
:1001F80009FCB4F5FC7F2ED24FEAD40C40F2F40689
:10020800C2F2000606EBCC02D368934200F01182DA
:10021800596803F10808DA68384621F00304996838
:100228001B195C68CA6044F0010491605C6000F0CE
:10023800EBFB404603B0BDE8F08F002310248C424E
:100248002CBF194643F001010029CFD00C234FF0F1
:1002580000083B60EDE75FEA542C04BF4FEAD40C7A
:100268004FEA4C0540F08F8040F2F406C2F20006D7
:1002780006EB8505EB689D4206D10DE0002A80F269
:100288005581DB689D4207D0596821F003010A1B9C
:100298000F2AF3DD0CF1FF3C0CF1010C40F2F402E3
:1002A8003369C2F2000202F1080E734508BFD2F8A2
:1002B800049022D0586820F00300011B0F2900F396
:1002C80084810029C2F814E0C2F810E066DAB0F5BB
:1002D800007F80F04E81C1084FF0010802EBC10099
:1002E800891008FA01F851688568D86048EA010958
:1002F800C2F804909D60EB60836001224FEAAC0372
:1003080002FA03F34B4554D819EA030F0DD1934071
:100318002CF0030C19EA030F0CF1040C05D15B0057
:100328000CF1040C19EA030FF9D006EBCC09E046EE
:100338004846C268904207D15BE1002980F2838178
:10034800D268904200F05581556825F00305291BB5
:100358000F29F2DD90461319D56844F0010058F8CA
:10036800084F41F0010C50603846C3F804C0E560FE
:10037800AC6073613361C3F80CE0C3F808E059500E
:1003880000F042FB55E7BCF1040F00F2DE804FEAB3
:10039800941C0CF1380C4FEA4C0565E71A1803F168
:1003A80008083846536843F00103536000F02CFBFB
:1003B8003FE7B5686B6823F0030A544504D8C4EBDB
:1003C8000A030F2B00F3A48040F24869D6F80814FA
:1003D800C2F2000905EB0A020131D9F800302344C2
:1003E80008BF03F1100B06D003F580530F3323F435
:1003F8007F6323F00F0B38465946019202F024F828
:10040800019A411C804600F06881824200F23181E5
:10041800D9F8043042455B44C9F8043000F06681DD
:10042800D6F8081440F2F400C2F20000013117BFF8
:10043800C2EB0802C0F808849B18C9F8043018F009
:10044800070338461FBFC3F10802C3F58053904421
:1004580003F1080208EB0B0308BF4FF480521B0599
:100468001B0DC3EB020B594601F0EEFF431C00F0D5
:100478004981C8EB0001594441F00101D9F8043021
:10048800B54240F24862C6F808805B44C2F20002F6
:10049800C8F80410C9F8043018D0BAF10F0F40F2A8
:1004A8000B81AAF10C00696820F007004FF0050CD9
:1004B80005EB000E0F2801F0010140EA0101696017
:1004C800CEF804C0CEF808C000F2208140F248629D
:1004D800D9F82C10C2F20002B5688B42D9F8301056
:1004E80088BFD36240F24862C2F200028B4288BFE2
:1004F80013636A6822F003029442C4EB020301D832
:100508000F2B05DC38464FF0000800F07DFA90E626
:100518002A1943F0010344F0010438466C6005F1E0
:1005280008085360B26000F06FFA82E65918DA687A
:100538009C6838464D6803F1080845F00105E260FB
:1005480094604D6000F060FA73E6BCF1140F9CBF34
:100558000CF15B0C4FEA4C057FF686AEBCF1540FEC
:1005680000F293804FEA143C0CF16E0C4FEA4C05F4
:100578007AE6420A042A75D9142A9CBF02F15B095B
:100588004FEA490508D9542A00F2C9804FEA1039C0
:1005980009F16E094FEA490506EB850540F2F408B2
:1005A800C2F20008AA68AA4279D0516821F0030172
:1005B800884202D292689542F7D1D068D6F8049062
:1005C800D8609A60D360836097E61D1941F00106F0
:1005D800556144F00104156138465C6003F1080870
:1005E800C5F80CE0C5F808E06E60695000F00CFA38
:1005F8001FE608F10108083018F0030F7FF499AEE0
:100608004A461CF0030FA2F108010CF1FF3C00F070
:100618009E8012688A42F4D072685B0093423FF66B
:10062800C8AE002B3FF4C5AE1A4200F09580C44610
:100638007BE603F108025B699A4208BF0CF1020CE1
:100648003FF42CAEE4E590465519D368384658F87F
:10065800082F6968D36041F001019A60696000F071
:10066800D3F9E6E54FEA901909F138094FEA490547
:1006780092E7B54240F2F403C2F200033FF4C8AE79
:100688009D686A6822F0030236E7BCF5AA7F19D88C
:100698004FEAD43C0CF1770C4FEA4C05E4E5012510
:1006A800D8F804104FEAA909104605FA09F545EAF1
:1006B8000109C8F8049083E701234546C8F80430C7
:1006C800002219E740F254539C450BD84FEA944C4A
:1006D8000CF17C0C4FEA4C05C6E5B5686A6822F057
:1006E800030209E7FC254FF07E0CBDE51105090D55
:1006F80000297FF495AEB2680BEB0A0141F00101C5
:100708005160E3E601214FF0000BB7E6384605F1EA
:100718000801019200F0ECFA019A5368D6E6B2F5A6
:10072800AA7F06D84FEAD03909F177094FEA490577
:1007380032E740F25451FC258A424FF07E099EBFB1
:100748004FEA904909F17C094FEA490524E77268A4
:1007580022EA0302726060E75B0008F1040863E7BD
:10076800032A70B422D941EA00039B0713D0057805
:10077800013A0C780023A54206D01BE010F8015F6F
:1007880011F8014FA54215D1934203F10103F5D1A8
:10079800002070BC70470C460346043104301E68C4
:1007A8002568AE4208D1043A032AF4D8002ADED1DB
:1007B8001046EEE7281BECE721461846002AD6D15A
:1007C800F6E700BF032A2DE9F00F09D82AB1002364
:1007D800CC5CC45401339342FAD1BDE8F00F7047A2
:1007E800830702440ED0441C4D1C15F8017C04F00C
:1007F8000306234601342946013504F8027C002EFD
:10080800F3D100E0034611F003046DD0D71A0D1B95
:10081800032F2E6819DDC4F1040C4FEAC4081C1D0F
:100828004FEACC0C55F8047FC4EB02092346043187
:100838000434B9F1030F26FA08FA07FA0CFB3E460E
:100848004BEA0A0744F8087CECDC9A42C5D9013324
:100858000131013211F8014C01330131934203F89F
:10086800024CF7D1B9E70C684033403143F8404CAB
:1008780051F83C4C43F83C4C51F8384C43F8384C50
:1008880051F8344C43F8344C51F8304C43F8304C60
:1008980051F82C4C43F82C4C51F8284C43F8284C70
:1008A80051F8244C43F8244C51F8204C43F8204C80
:1008B80051F81C4C43F81C4C51F8184C43F8184C90
:1008C80051F8144C43F8144C51F8104C43F8104CA0
:1008D80051F80C4C43F80C4C51F8084C43F8084CB0
:1008E80051F8044C43F8044CD41A3F2CBBDC11E0FB
:1008F8000C681033103143F8104C51F80C4C43F885
:100908000C4C51F8084C43F8084C51F8044C43F887
:10091800044CD41A0F2CEBDC032C96DD1C1D0D1D8A
:1009280055F8047C161B2346294604340435032E47
:1009380044F8087CF4DC88E7032AC9B270B408D804
:100948002AB10346121803F8011B9342FBD170BC6D
:1009580070478307024409D0441C04F0030523466A
:1009680004F8011C0134002DF7D100E00346D51A24
:1009780001EB01243F2D04EB04442CDD1C604033C3
:10098800D51A43F83C4C3F2D43F8384C43F8344CC7
:1009980043F8304C43F82C4C43F8284C43F8244C8B
:1009A80043F8204C43F81C4C43F8184C43F8144CBB
:1009B80043F8104C43F80C4C43F8084C43F8044CEB
:1009C800DCDC08E01C601033D51A43F80C4C43F803
:1009D800084C43F8044C0F2DF4DC032D08DD1D1DD5
:1009E800561B45F8044C032E2B4605F10405F7DC8D
:1009F8009A42ACD90133013203F8011C0133934206
:100A0800FAD1A4E7704700BF704700BF2DE9F04F47
:100A180040F20454C2F2000485B099460B46D4F85B
:100A28000080029103901C4614F8015B08EB050155
:100A38002346497801F00801C9B20029F3D12D2DC8
:100A48007BD02B2D05BF24460B460B4614F8015BC3
:100A580039F0100112D1D9F1010038BF0020302D32
:100A680004D058B14FF00A09CB4608E0217801F0CC
:100A7800DF01582965D008B14FF00809CB46002B93
:100A880059460CBF6FF000464FF000468DE80C0049
:100A98003046002700F026FB30468A46594600F0CB
:100AA800F3F9BC469DE80C0016E0303DA94525DD6C
:100AB800844594BF0021012151EAD77729D15545B2
:100AC800D4BF00210121844518BF002109BB0BFBBD
:100AD8000C5C012714F8015B08EB0501497801F06B
:100AE8000406F6B2002EE0D111F0030106D0012968
:100AF80014BF572137216D1AA945D9DC791C0BD0B1
:100B0800C3B9604612B197B9029B136005B0BDE83E
:100B1800F08F4FF0FF37DDE70399002B0CBF6FF024
:100B280000404FF0004022230B60002AEED0013C29
:100B38000294E9E7CCF1000CE3E714F8015B012328
:100B480086E74FF010096578CB46023497E700BF77
:100B580030B440F20004C2F200040D4613460146C8
:100B68002A46206830BCFFF751BF00BF2DE9F0418D
:100B78004EF6C034C0F6000484B007462568AC6C55
:100B8800002C42D066681F2E1ADD40F2B114C0F660
:100B9800000424B94FF0FF3004B0BDE8F0818C2088
:100BA800039102920193FFF7FFFA0399029A019BBE
:100BB80004460028EED0A86C002684E84100AC6406
:100BC800DFB1D4F8886026B3D6F8008165680120C3
:100BD800022F05F1200C00FA05F046F8252048EA16
:100BE800000246F82C3008BFD6F80431C6F80021B8
:100BF80004BF1843C6F8040100E06568AB1C002078
:100C08000135656044F82310C6E705F14C04AC646F
:100C1800B8E740F2B110C0F600000028BAD04FF48F
:100C28008470039102920193FFF7BEFA0399029A26
:100C3800019B06460028ADD00020C6F80001C6F882
:100C480004018046C4F88860C0E700BFF8B540F2E8
:100C5800F404C2F200040F460546FFF7D3FEA3686A
:100C68005E6826F0030606F6EF73DF1B3F0B013FB5
:100C78003F03B7F5805F07DB0021284601F0E4FB5E
:100C8800A3689B19984204D02846FFF7BDFE0020B0
:100C9800F8BD7942284601F0D7FB013010D040F268
:100CA8004C63A168C2F20003F61B284646F0010611
:100CB8001A684E60D71B1F60FFF7A6FE0120F8BD1B
:100CC8000021284601F0C0FBA368C21A0F2ADBDD09
:100CD80040F2FC4440F24C61C2F20004C2F200014E
:100CE80042F001025A602368C01A0860CCE700BFCE
:100CF8002DE9F0410E46804600295CD0FFF782FEC0
:100D080040F2F40556F8041CC2F20005A6F10804E6
:100D180021F00103AF68E2189742506820F0030001
:100D280067D011F00101506035D00021161876689F
:100D380016F0010F06D11B18906800294DD0D26813
:100D4800C260906043F00102E3506260F1B9B3F50C
:100D5800007F32D35A0A042A6CD8980938304100E7
:100D680005EB810540F2F401C2F20001AA68AA422B
:100D78006BD0516821F003018B4202D292689542F0
:100D8800F7D1D368E360A260D4609C604046BDE8B8
:100D9800F041FFF739BE56F8086C05F1080CA41BA2
:100DA8009B19A668664543D0D4F80CC0C6F80CC099
:100DB800CCF80860BAE7BDE8F081DB080121686873
:100DC80005EBC3029B1001FA03F3E2609168184334
:100DD8006860A160CC609460D8E7294EB042AED17B
:100DE8006C6143F001022C61E060A0606260E35036
:100DF800CCE7C018CB0707D456F8083CE41AC0184B
:100E0800A268E368D3609A6040F2005240F00103A0
:100E1800C2F200026360AC6013689842B6D340F235
:100E280048634046C2F200031968FFF70FFFADE7B9
:100E380001217BE702F15B004100142A90D9542A72
:100E48000CD8180B6E3041008AE701264D688010D7
:100E5800134606FA00F005434D6093E7B2F5AA7F02
:100E680003D8D80B773041007AE740F254518A42D0
:100E780003D8980C7C30410072E7FC217E206FE794
:100E8800FC000020000000004A1E08BF7047C0F0A8
:100E98002481884240F21681114200F01781B0FA8D
:100EA80080F3B1FA81F2A2EB0303C3F11F0304A29A
:100EB80002EB03134FF000029F4600BFAFF3008020
:100EC800B0EBC17F00BF42EB020228BFA0EBC170AC
:100ED800B0EB817F00BF42EB020228BFA0EB81701C
:100EE800B0EB417F00BF42EB020228BFA0EB41708C
:100EF800B0EB017F00BF42EB020228BFA0EB0170FC
:100F0800B0EBC16F00BF42EB020228BFA0EBC1608B
:100F1800B0EB816F00BF42EB020228BFA0EB8160FB
:100F2800B0EB416F00BF42EB020228BFA0EB41606B
:100F3800B0EB016F00BF42EB020228BFA0EB0160DB
:100F4800B0EBC15F00BF42EB020228BFA0EBC1506B
:100F5800B0EB815F00BF42EB020228BFA0EB8150DB
:100F6800B0EB415F00BF42EB020228BFA0EB41504B
:100F7800B0EB015F00BF42EB020228BFA0EB0150BB
:100F8800B0EBC14F00BF42EB020228BFA0EBC1404B
:100F9800B0EB814F00BF42EB020228BFA0EB8140BB
:100FA800B0EB414F00BF42EB020228BFA0EB41402B
:100FB800B0EB014F00BF42EB020228BFA0EB01409B
:100FC800B0EBC13F00BF42EB020228BFA0EBC1302B
:100FD800B0EB813F00BF42EB020228BFA0EB81309B
:100FE800B0EB413F00BF42EB020228BFA0EB41300B
:100FF800B0EB013F00BF42EB020228BFA0EB01307B
:10100800B0EBC12F00BF42EB020228BFA0EBC1200A
:10101800B0EB812F00BF42EB020228BFA0EB81207A
:10102800B0EB412F00BF42EB020228BFA0EB4120EA
:10103800B0EB012F00BF42EB020228BFA0EB01205A
:10104800B0EBC11F00BF42EB020228BFA0EBC110EA
:10105800B0EB811F00BF42EB020228BFA0EB81105A
:10106800B0EB411F00BF42EB020228BFA0EB4110CA
:10107800B0EB011F00BF42EB020228BFA0EB01103A
:10108800B0EBC10F00BF42EB020228BFA0EBC100CA
:10109800B0EB810F00BF42EB020228BFA0EB81003A
:1010A800B0EB410F00BF42EB020228BFA0EB4100AA
:1010B800B0EB010F00BF42EB020228BFA0EB01001A
:1010C800104670470CBF012000207047B1FA81F22A
:1010D800C2F11F0220FA02F0704708B14FF0FF304A
:1010E80000F00EB80029F8D02DE90340FFF7CCFE38
:1010F800BDE8064002FB00F3A1EB0301704700BF07
:10110800704700BF80B483B000AF7860054A7B6841
:1011180043F0BF6343F40033D36007F10C07BD46C7
:1011280080BC704700ED00E080B485B000AF786007
:101138004FF00003FB734FF00003BB734FF00F0336
:101148007B737B68DB78002B3CD02A4BDB686FEA2B
:10115800030303F4E0634FEA1323FB73FB7BC3F140
:101168000403BB737A7BFB7B42FA03F37B737B68D4
:101178005B781A46BB7B02FA03F3FB737B689A78A9
:101188007B7B1340DAB2FB7B1343FB73FB7B4FEA99
:101198000313FB73184A7B681B78D318FA7B83F810
:1011A8000023154B7A6812784FEA5212D2B2796846
:1011B800097801F01F014FF0010000FA01F143F82E
:1011C800221011E00C4B7A6812784FEA5212D2B210
:1011D8007968097801F01F014FF0010000FA01F168
:1011E80002F1200243F8221007F11407BD4680BC23
:1011F800704700BF00ED00E000E100E080B483B07C
:1012080000AF78607B681B6823F001027B681A6076
:101218007B684FF000021A607B684FF000025A604A
:101228007B684FF000029A607B684FF00002DA603A
:101238007B684FF000021A617B684FF021025A6107
:101248007A68464B9A4204D1454B4FF03D029A606A
:101258007FE07A68434B9A4204D1414B4FF4746261
:101268009A6076E07A68404B9A4204D13C4B4FF43E
:1012780074129A606DE07A683C4B9A4204D1384BFC
:101288004FF074629A6064E07A68394B9A4203D1ED
:10129800334B384ADA605CE07A68374B9A4203D1BC
:1012A8002F4B364ADA6054E07A68354B9A4203D1BC
:1012B8002B4B344ADA604CE07A68334B9A4204D1BB
:1012C800274B4FF03D52DA6043E07A682F4B9A4241
:1012D80004D12F4B4FF03D029A603AE07A682D4BCB
:1012E8009A4204D12A4B4FF474629A6031E07A68CA
:1012F800294B9A4204D1264B4FF474129A6028E085
:101308007A68264B9A4204D1214B4FF074629A6056
:101318001FE07A68224B9A4203D11D4B154ADA60C6
:1013280017E07A681F4B9A4203D1194B134ADA60C7
:101338000FE07A681C4B9A4203D1154B114ADA60C8
:1013480007E07A68194B9A4203D1114B4FF03D528E
:10135800DA6007F10C07BD4680BC70471060024098
:10136800006002402860024040600240586002402D
:10137800706002403D00002088600240400F00205D
:10138800A060024000003D20B860024010640240A6
:1013980000640240286402404064024058640240ED
:1013A8007064024088640240A0640240B86402404D
:1013B80080B485B000AF786039604FF00003FB60FF
:1013C8007B681B68FB60FA68244B1340FB603B6832
:1013D8001A683B68DB681A433B685B691A433B68D9
:1013E8009B691A433B68DB691A433B681B6A1A43CB
:1013F8003B685B6A1A433B689B6A1A433B685B6BB2
:101408001A433B689B6B1343FA681343FB607B6882
:10141800FA681A607B685B69FB60FB6823F0070366
:10142800FB603B68DA6A3B681B6B1343FA6813433B
:10143800FB607B68FA685A613B681A697B685A6086
:101448003B685A687B689A603B689A687B68DA6090
:1014580007F11407BD4680BC704700BF3F801CF0F1
:1014680080B483B000AF78600B46FB70FB78002B2C
:1014780006D07B681B6843F001027B681A6005E0B0
:101488007B681B6823F001027B681A6007F10C0770
:10149800BD4680BC704700BF80B483B000AF7860A1
:1014A80039603B68002B06D07B681B6843F020023C
:1014B8007B681A6005E07B681B6823F020027B6864
:1014C8001A6007F10C07BD4680BC704780B485B030
:1014D80000AF786039607A68104B9A4202D8104B96
:1014E800FB6001E00F4BFB603B6803F00053002BEF
:1014F80007D03B6823F0F02323F08213FA68D36007
:1015080006E03B6823F0F02323F08213FA68936027
:1015180007F11407BD4680BC704700BF0F64024046
:10152800006002400064024080B485B000AFF860FB
:10153800B9601346FB71BB6803F08003002B0FD022
:10154800FB79002B06D0FB685B6943F08002FB68DF
:101558005A6105E0FB685B6923F08002FB685A6109
:10156800BB68802B15D0FB79002B08D0FB681A6864
:10157800BB6803F01E031A43FB681A6009E0FB68A6
:101588001A68BB6803F01E036FEA03031A40FB687E
:101598001A6007F11407BD4680BC704780B485B057
:1015A80000AF78604FF00003FB60354BFB607B6851
:1015B8009B79002B51D0324B314A11687A681268F6
:1015C8006FEA02020A401A602D4B2D4A51687A6868
:1015D80012686FEA02020A405A607B681B79FA684F
:1015E800D318FB60FB68FA6811687A6812680A43C6
:1015F8001A60234B224A91687A6812686FEA0202DD
:101608000A409A601E4B1E4AD1687A6812686FEACF
:1016180002020A40DA607B685B79102B0ED1184B06
:10162800174A91687A6812680A439A60144B144AF8
:10163800D1687A6812680A43DA601CE0104BFB60D4
:101648007B685B79FA68D318FB60FB68FA681168F5
:101658007A6812680A431A600DE07B681B79FA6899
:10166800D318FB60FB68FA6811687A6812686FEA39
:1016780002020A401A6007F11407BD4680BC704791
:10168800003C014080B487B000AF786039604FF00B
:1016980000037B614FF000033B614FF00003FB60E8
:1016A8004FF000037B6186E07B694FF0010202FA8C
:1016B80003F33B613B681A683B691340FB60FA68B7
:1016C8003B699A4273D17B681A687B694FEA430386
:1016D8004FF0030101FA03F36FEA03031A407B6832
:1016E8001A607B681A683B681B7919467B694FEA60
:1016F800430301FA03F31A437B681A603B681B79BA
:10170800012B03D03B681B79022B34D17B689A6884
:101718007B694FEA43034FF0030101FA03F36FEAD1
:1017280003031A407B689A607B689A683B685B7918
:1017380019467B694FEA430301FA03F31A437B68AE
:101748009A607B685A687B699BB24FF0010101FA85
:1017580003F36FEA03031A407B685A607B685A6890
:101768003B689B7919467B699BB201FA03F39BB2EC
:101778001A437B685A607B68DA687B699BB24FEAD8
:1017880043034FF0030101FA03F36FEA03031A401E
:101798007B68DA607B68DA683B68DB7919467B69C5
:1017A8004FEA430301FA03F31A437B68DA607B6963
:1017B80003F101037B617B690F2B7FF675AF07F19E
:1017C8001C07BD4680BC704780B483B000AF78600A
:1017D80013460A467A807B707B78002B03D07B689F
:1017E8007A881A8302E07B687A885A8307F10C07A3
:1017F800BD4680BC704700BF80B485B000AF78603C
:1018080013460A467A807B704FF00003FB604FF066
:101818000003BB607A787B8803F007034FEA8303F1
:1018280002FA03F3FB607B884FEAD3039BB21A46A4
:101838007B884FEAD3039BB219467B6801F1080104
:1018480053F821107B8803F007034FEA83034FF016
:101858000F0000FA03F36FEA030319407B6802F1F3
:10186800080243F822107B884FEAD3039BB21A463A
:101878007B6802F1080253F82220FB681343BB601F
:101888007B884FEAD3039BB21A467B6802F10802B1
:10189800B96843F8221007F11407BD4680BC7047A9
:1018A80080B489B000AF78604FF00003BB614FF09F
:1018B80000037B614FF00003FB614FF002033B61C3
:1018C8004FF00003FB604FF00203BB604E4B9B6878
:1018D80003F00C03BB61BB69042B07D0082B09D0AC
:1018E800002B45D17B68494A1A6045E07B68484A25
:1018F8001A6041E0444B5B6803F480034FEA93535A
:10190800FB60414B5B6803F03F03BB60FB68002B47
:101918000ED03F4ABB68B2FBF3F23B4B596847F61F
:10192800C0730B404FEA931303FB02F3FB610DE016
:10193800364ABB68B2FBF3F2334B596847F6C073BB
:101948000B404FEA931303FB02F3FB612E4B5B68DA
:1019580003F440334FEA134303F101034FEA43030F
:101968003B61FA693B69B2FBF3F27B681A6003E0FA
:101978007B68264A1A6000BF234B9B6803F0F0037C
:10198800BB61BB694FEA1313BB61224ABB69D31819
:101998001B78DBB27B617B681A687B6922FA03F2E9
:1019A8007B685A60184B9B6803F4E053BB61BB69C2
:1019B8004FEA9323BB61174ABB69D3181B78DBB284
:1019C8007B617B685A687B6922FA03F27B689A60BC
:1019D8000D4B9B6803F46043BB61BB694FEA53330B
:1019E800BB610C4ABB69D3181B78DBB27B617B688F
:1019F8005A687B6922FA03F27B68DA6007F12407E8
:101A0800BD4680BC704700BF003802400024F40087
:101A180000127A000805002080B483B000AF786017
:101A28000B46FB70FB78002B06D00A4B094A116B5A
:101A38007A680A431A6307E0064B064A116B7A680C
:101A48006FEA02020A401A6307F10C07BD4680BC20
:101A5800704700BF0038024080B483B000AF7860A0
:101A68000B46FB70FB78002B06D00A4B094A516BDA
:101A78007A680A435A6307E0064B064A516B7A684C
:101A88006FEA02020A405A6307F10C07BD4680BCA0
:101A9800704700BF0038024080B483B000AF786060
:101AA8000B46FB70FB78002B06D00A4B094A116CD9
:101AB8007A680A431A6407E0064B064A116C7A688A
:101AC8006FEA02020A401A6407F10C07BD4680BC9F
:101AD800704700BF0038024080B483B000AF786020
:101AE8000B46FB70FB78002B06D00A4B094A516C59
:101AF8007A680A435A6407E0064B064A516C7A68CA
:101B08006FEA02020A405A6407F10C07BD4680BC1E
:101B1800704700BF0038024080B483B000AF7860DF
:101B28000B46FB70FB78002B06D00A4B094A116A5A
:101B38007A680A431A6207E0064B064A116A7A680D
:101B48006FEA02020A401A6207F10C07BD4680BC20
:101B5800704700BF0038024080B483B000AF78609F
:101B68000B46FB70FB78002B06D00A4B094A516ADA
:101B78007A680A435A6207E0064B064A516A7A684D
:101B88006FEA02020A405A6207F10C07BD4680BCA0
:101B9800704700BF0038024080B500AF4FF40060C6
:101BA8004FF00101FFF7D8FF4FF400604FF000013C
:101BB800FFF7D2FF80BD00BF80B485B000AF78606A
:101BC8004FF00003FB60134B5B68FB60FB6823F47A
:101BD800FD4323F07F03FB607B681B7D1A467B680F
:101BE8009B681A437B685B681A437B68DB681A4307
:101BF8007B681B681A437B681B691343FA681343A5
:101C0800FB60044BFA685A6007F11407BD4680BCB4
:101C1800704700BF002C014080B483B000AF03467A
:101C2800FB71044BFA791A6007F10C07BD4680BCBA
:101C3800704700BFA080254280B483B000AF7860B1
:101C4800034B7A681A6007F10C07BD4680BC7047E1
:101C5800002C014080B400AF034B1B6803F0030362
:101C68001846BD4680BC7047002C014080B485B042
:101C780000AF78604FF00003FB60114B7A68126880
:101C88009A600F4BDB68FB60FB6823F4FF6323F06B
:101C98000703FB607B685A687B689B681A437B680C
:101CA800DB681A437B681B691343FA681343FB60BC
:101CB800034BFA68DA6007F11407BD4680BC704729
:101CC800002C014080B400AF034B1B69DBB21846FF
:101CD800BD4680BC704700BF002C014080B485B071
:101CE80000AF78604FF00003FB607A68054BD318AB
:101CF800FB60FB681B68184607F11407BD4680BCEB
:101D0800704700BF142C014080B485B000AF7860E4
:101D18004FF00003FB60124B7A6812685A62104B4E
:101D28007A6852689A620E4BDB6AFB60FB6823F0A4
:101D3800F703FB607B689A687B68DB681A437B68FB
:101D48001B691A437B685B691343FA681343FB609A
:101D5800034BFA68DA6207F11407BD4680BC704786
:101D6800002C014080B400AF034BD3F880301846F4
:101D7800BD4680BC704700BF002C014080B483B0D2
:101D880000AF0346FB71044BFA791A6007F10C07A0
:101D9800BD4680BC704700BF8C85254280B483B0A7
:101DA80000AF78600B46FB70FB78002B06D00A4B1F
:101DB800094AD16B7A680A43DA6307E0064B064A98
:101DC800D16B7A686FEA02020A40DA6307F10C07FE
:101DD800BD4680BC704700BF002C014080B485B070
:101DE80000AF78604FF00003FB730A4B5A6B7B68B7
:101DF8001340002B03D04FF00103FB7302E04FF0B8
:101E08000003FB73FB7B184607F11407BD4680BC33
:101E1800704700BF002C014080B483B000AF7860E9
:101E2800034B7A689A6307F10C07BD4680BC70477C
:101E3800002C014080B485B000AF78604FF00003FB
:101E4800FB730A4B5A6B7B681340002B03D04FF08F
:101E58000103FB7302E04FF00003FB73FB7B1846A2
:101E680007F11407BD4680BC704700BF002C014035
:101E780080B483B000AF7860034B7A689A6307F147
:101E88000C07BD4680BC7047002C014090B484B05C
:101E980000AF02460B46FA71BB714FF00003FB60BE
:101EA800BB7903F003034FEA83034FF00F0202FAF2
:101EB80003F3FB601A4BBA794FEA9202D2B218497F
:101EC800B8794FEA9000C0B200F1020051F8200042
:101ED800F9686FEA0101014002F1020243F8221099
:101EE8000F4BBA794FEA9202D2B20D49B8794FEA4C
:101EF8009000C0B200F1020051F82000FC79B979D5
:101F080001F003014FEA810104FA01F1014302F1F2
:101F1800020243F8221007F11007BD4690BC704733
:101F28000038014080B58AB000AF786039604FF062
:101F380000037B624FF000033B624FF00003FB613C
:101F48004FF00003BB617B681B8A9BB27B627B6A94
:101F580023F440537B623B68DB887A6A13437B62D5
:101F68007B6A9AB27B681A827B689B899BB27B6288
:101F78007B6A23F4B05323F00C037B623B689A8896
:101F88003B681B8913439AB23B685B8913439BB236
:101F98007A6A13437B627B6A9AB27B689A817B6810
:101FA8009B8A9BB27B627B6A23F440737B623B68AB
:101FB8009B897A6A13437B627B6A9AB27B689A82AE
:101FC80007F108031846FFF76BFC7A68394B9A4209
:101FD80003D07A68384B9A4202D17B693B6201E0B0
:101FE8003B693B627B689B899BB29BB21BB2002B0F
:101FF8000FDA3A6A13464FEA83039B184FEA8302C3
:102008009A183B681B684FEA4303B2FBF3F3FB6182
:102018000EE03A6A13464FEA83039B184FEA83029D
:102028009A183B681B684FEA8303B2FBF3F3FB6122
:10203800FA69224BA3FB02134FEA53134FEA031327
:102048007B627B6A4FEA13134FF0640202FB03F3CF
:10205800FA69D31ABB617B689B899BB29BB21BB29E
:10206800002B0FDABB694FEAC30303F13202134BAB
:10207800A3FB02134FEA531303F007037A6A1343CF
:102088007B620EE0BB694FEA031303F132020B4B8C
:10209800A3FB02134FEA531303F00F037A6A1343A7
:1020A8007B627B6A9AB27B681A8107F12807BD4672
:1020B80080BD00BF00100140001401401F85EB5196
:1020C80080B483B000AF78600B46FB70FB78002BC0
:1020D80008D07B689B899BB243F400539AB27B6813
:1020E8009A8107E07B689B899BB223F400539AB2DC
:1020F8007B689A8107F10C07BD4680BC704700BF1A
:1021080080B483B000AF78607B689B889BB24FEA4D
:10211800C3534FEAD3539BB2184607F10C07BD4689
:1021280080BC704780B487B000AF786013460A4619
:102138007A807B704FF000033B614FF00003FB6037
:102148004FF00003BB604FF000037B617B687B614D
:102158007B88DBB24FEA5313DBB23B617B8803F029
:102168001F03FB60FB684FF0010202FA03F3BB6038
:102178003B69012B04D17B6903F10C037B610BE004
:102188003B69022B04D17B6903F110037B6103E0F7
:102198007B6903F114037B617B78002B06D07B6994
:1021A8007A691168BA680A431A6007E07B697A6934
:1021B8001168BA686FEA02020A401A6007F11C0740
:1021C800BD4680BC704700BF80B487B000AF786060
:1021D8000B467B804FF00003FB604FF000037B61F0
:1021E8004FF00003BB604FF00003FB747B88DBB249
:1021F8004FEA5313DBB2BB607B8803F01F037B619C
:102208007B694FF0010202FA03F37B61BB68012B83
:1022180006D17B689B899BB27A6913407B610FE08A
:10222800BB68022B06D17B681B8A9BB27A69134074
:102238007B6105E07B689B8A9BB27A6913407B616E
:102248007B884FEA13239BB2FB60FB684FF00102C7
:1022580002FA03F3FB607B681B889BB2FA681340A1
:10226800FB607B69002B06D0FB68002B03D04FF086
:102278000103FB7402E04FF00003FB74FB7C18467B
:1022880007F11C07BD4680BC704700BF002100F065
:1022980004B80C4B5B58435004310B480B4B4218A5
:1022A8009A42FFF4F6AF0A4A00F003B8002342F856
:1022B800043B084B9A42FFF4F9AF00F00FF800F026
:1022C800F3F87047B8F60008000000204806002020
:1022D80048060020C44B0120FFF7FEBF80B500AFC1
:1022E800164B164AD2F8882042F47002C3F88820A8
:1022F800134B134A126842F001021A60104B4FF058
:1023080000029A600E4A0E4B1B6823F0847323F474
:10231800803313600A4B0B4A5A60094B084A12680B
:1023280022F480221A60064B4FF00002DA6000F0B7
:102338000BF8024B4FF000629A6080BD00ED00E0A0
:10234800003802401030002480B483B000AF4FF052
:1023580000037B604FF000033B60374B364A12683E
:1023680042F480321A60344B1B6803F400333B603C
:102378007B6803F101037B603B68002B03D17B681A
:10238800B3F5A04FEFD12C4B1B6803F40033002B9F
:1023980003D04FF001033B6002E04FF000033B60C5
:1023A8003B68012B42D1244B234A126C42F08052E5
:1023B8001A64224B214A126842F440421A601E4BAA
:1023C8001D4A92689A601C4B1B4A926842F400426C
:1023D8009A60194B184A926842F4A0529A60164BB8
:1023E800174A5A60144B144A126842F080721A60F5
:1023F80000BF114B1B6803F00073002BF9D0114B81
:1024080040F205621A600C4B0B4A926822F00302F4
:102418009A60094B084A926842F002029A6000BF2B
:10242800054B9B6803F00C03082BF9D107F10C0747
:10243800BD4680BC704700BF0038024000700040B5
:1024480008544007003C024080B584B000AF786073
:102458003960134B1B68002B02D1114B114A1A60CB
:102468000F4B1B68FB600E4B1A683B68D2186B4613
:102478009A4208D9FDF792FE03464FF00C021A6003
:102488004FF0FF3306E0064B1A683B68D218044B3E
:102498001A60FB68184607F11007BD4680BD00BFEB
:1024A8007C060020C44B012080B5ADF6580D00AF66
:1024B80007F10403184605494FF400624FF0010381
:1024C8000BF0B6FD0AF0BCF8FEE700BF70EA0008A2
:1024D80080B400AFBD4680BC704700BF80B400AF79
:1024E800FEE700BF80B400AFFEE700BF80B400AFD6
:1024F800FEE700BF80B400AFFEE700BF80B400AFC6
:10250800BD4680BC704700BF80B400AFBD4680BCEC
:10251800704700BF80B400AFBD4680BC704700BFA5
:1025280080B400AFBD4680BC704700BF80B400AF28
:10253800BD4680BC704700BF80B400AFBD4680BCBC
:10254800704700BF98B500AF184840F22551FFF713
:102558003BFE0346002B28D0154B1B785CB2134872
:10256800FFF7CEFD0346DBB203F07F03DAB2114B6F
:102578001A550F4B1B785BB20E4AD35C332B0DD127
:102588000C480CF059FA0A4B4FF000021A7009482F
:102598004FF000014FF0FE02FEF7CEF9044B1B7816
:1025A80003F10103DAB2024B1A7098BD00440040EF
:1025B800800700208006002080B400AFBD4680BCA4
:1025C800704700BF80B400AFBD4680BC704700BFF5
:1025D80080B400AFBD4680BC704700BF80B400AF78
:1025E800BD4680BC704700BF80B400AFBD4680BC0C
:1025F800704700BF80B400AFBD4680BC704700BFC5
:1026080080B500AF094806F0EFFC094808F002FE63
:102618000346002B09D006480CF00EFA04484FF088
:1026280000014FF0FE02FEF787F980BD943B0120C0
:102638008006002080B588B000AF78604FF00100B8
:102648004FF00101FFF7E8F94FF4D053BB614FF0A9
:1026580003037B774FF002033B774FF00003BB7710
:102668004FF00003FB7707F1180327481946FFF7D7
:1026780009F825484FF008014FF00A02FFF7BCF8A7
:1026880021484FF009014FF00A02FFF7B5F81E483C
:102698004FF00B014FF00A02FFF7AEF81A484FF05F
:1026A8000C014FF00A02FFF7A7F84FF48063BB61F3
:1026B8004FF00103BB774FF00103FB774FF00303A3
:1026C8007B7707F1180310481946FEF7DBFF0E4821
:1026D8004FF00A014FF00A02FFF78EF84FF48040DE
:1026E8004FF00101FFF7F8F94FF080004FF00101BA
:1026F800FFF7B2F94FF080504FF00101FFF70CFAE5
:1027080007F12007BD4680BD0000024080B584B0B7
:1027180000AF78604FF4C060FEF7F4FC4FF043035D
:102728003B734FF003037B734FF00003BB734FF011
:102738000103FB7307F10C031846FEF7F5FC07F1DC
:102748001007BD4680BD00BF80B485B000AF78607B
:102758004FF00003FB607A6813464FEA03139B1A95
:102768004FEAC3031A460D4BA3FB0213D21A4FEAD2
:1027780052029B184FEA9303BB6000E000BFFB685E
:1027880003F10103FB60FA68BB689A42F6D900BFFF
:1027980007F11407BD4680BC704700BF2549922445
:1027A80080B582B000AF78607B684FF47A7202FB24
:1027B80003F31846FFF7C8FF07F10807BD4680BDB9
:1027C80080B483B000AF03463960FB713B684FF0BB
:1027D80012021A80034B184607F10C07BD4680BC4D
:1027E800704700BF3805002080B483B000AF0346AF
:1027F8003960FB713B684FF004021A80034B18469E
:1028080007F10C07BD4680BC704700BF4C0500208F
:1028180080B582B000AF03463960FB71FB79002BAD
:1028280005D1084808493A6808F0ECF804E0074878
:1028380005493A6808F0E6F8034B184607F1080717
:10284800BD4680BD80EA000828420120A4EA0008AD
:1028580080B582B000AF03463960FB710548064970
:102868003A6808F0CFF8044B184607F10807BD4648
:1028780080BD00BFC8EA00082842012080B582B0A8
:1028880000AF03463960FB71FB79002B05D108487E
:1028980008493A6808F0B6F804E0074805493A6874
:1028A80008F0B0F8034B184607F10807BD4680BD8D
:1028B800D4EA000828420120E4EA000880B582B082
:1028C80000AF03463960FB71FB79002B05D108483E
:1028D80008493A6808F096F804E0054805493A6856
:1028E80008F090F8034B184607F10807BD4680BD6D
:1028F800F4EA00082842012080B582B000AF034600
:102908003960FB71FB79002B05D1084808493A6802
:1029180008F078F804E0054805493A6808F072F8C4
:10292800034B184607F10807BD4680BD00EB0008B9
:102938002842012080B400AFBD4680BC704700BF6C
:1029480080B483B000AF0346FB71FB79002B03D042
:10295800012B03D000BF02E000BF00E000BF07F179
:102968000C07BD4680BC704780B400AFBD4680BC34
:10297800704700BF80B400AFBD4680BC704700BF41
:1029880080B400AFBD4680BC704700BF80B400AFC4
:10299800BD4680BC704700BF80B400AFBD4680BC58
:1029A800704700BF80B485B000AF03463960FB8034
:1029B800FB887F2B02D8FB88FB812AE03B68002B31
:1029C8000DD0FB88FF2B06D8FB88A3F18002144B9F
:1029D80033F8123001E04FF00003FB8119E04FF0AB
:1029E8000003FB810AE0FA890D4B33F81230FA88AC
:1029F8009A4207D0FB8903F10103FB81FB897F2BF6
:102A0800F1D900E000BFFB8903F180039BB2DBB280
:102A1800FB81FB89184607F11407BD4680BC704747
:102A2800C8EC000880B485B000AF0346FB804FF0C7
:102A38000003FB6003E0FB6803F10103FB600F4B3D
:102A4800FA6833F81230002B06D00C4BFA6833F8CA
:102A58001230FA889A42EED1084BFA6833F81230ED
:102A6800002B04D0064BFA6833F8123000E0FB88DC
:102A7800184607F11407BD4680BC7047C8ED00082A
:102A8800A8EF000880B584B000AF0346FB7102F0E0
:102A980033FE0346FB73FB7B002B06D0084B4FF03D
:102AA80000021A704FF0010305E0054B4FF00102D8
:102AB8001A704FF00003184607F11007BD4680BD95
:102AC8008107002080B584B000AF0346FB714FF04A
:102AD8000003FB7302F0D0FE0346012B06D1084B1E
:102AE8001B7883F00103DBB2002B03D0FB7B43F0A0
:102AF8000203FB73FB7B184607F11007BD4680BD38
:102B08008107002080B586B000AFB9607A600246C0
:102B1800FA73BB7302F0B0FE0346012B06D1194BC2
:102B28001B7883F00103DBB2002B02D04FF00303C4
:102B380023E0BB7B002B02D14FF004031DE04FF0D4
:102B480001000BF0AFF9B86879684FF400724FF0E4
:102B5800010303F09DFC03F04FFD00E000BF02F00D
:102B680047FE0346FB75FB7D002BF7D100BF4FF0F6
:102B780001000BF0AFF94FF00003184607F11807F2
:102B8800BD4680BD8107002080B586B000AFB96022
:102B98007A600246FA73BB7302F06EFE0346012B9D
:102BA80006D1194B1B7883F00103DBB2002B02D04E
:102BB8004FF0030323E0BB7B002B02D14FF004034B
:102BC8001DE04FF001000BF06DF9B86879684FF41B
:102BD80000724FF0010303F071FD03F073FE00E093
:102BE80000BF02F005FE0346FB75FB7D002BF7D105
:102BF80000BF4FF001000BF06DF94FF000031846CD
:102C080007F11807BD4680BD8107002080B582B056
:102C180000AF0B463A600246FA71BB71124B1B7843
:102C280083F00103DBB2002B02D04FF0030316E060
:102C3800BB79012B0AD0022B01D0002B0DE038689C
:102C48000A494FF00402FDF7BDFD06E0386808495F
:102C58004FF00802FDF7B6FD00BF4FF0000318461D
:102C680007F10807BD4680BD81070020F04101201B
:102C7800E841012080B400AF4FF000031846BD467C
:102C880080BC704780B487B000AFF860B9607A60E4
:102C9800FB687B61BB683B610BE03B691A787B6929
:102CA8001A707B6903F101037B613B6903F101033E
:102CB8003B617B68002B0CBF00230123DBB27A68E1
:102CC80002F1FF327A60002BE7D107F11C07BD46FD
:102CD80080BC704780B487B000AFF860B9607A6094
:102CE800FB687B6107E0BB68DAB27B691A707B69B5
:102CF80003F101037B617B68002B0CBF00230123D8
:102D0800DBB27A6802F1FF327A60002BEBD107F16F
:102D18001C07BD4680BC704780B489B000AFF8601E
:102D2800B9607A60FB68FB61BB68BB614FF0000368
:102D38007B6100BF7B68002B0CBF00230123DBB243
:102D48007A6802F1FF327A60002B17D0FB691B7892
:102D58005AB2BB691B785BB2D31A7B617B69002BC3
:102D680014BF00230123DBB2FA6902F10102FA6100
:102D7800BA6902F10102BA61002BDBD17B691846FE
:102D880007F12407BD4680BC704700BF80B483B0FC
:102D980000AF7860396003E07B6803F101037B6072
:102DA8007B681B78002B05D07B681B785AB23B6880
:102DB8009A42F1D17B681B785BB2184607F10C0781
:102DC800BD4680BC704700BF80B584B000AF786056
:102DD80039607B68DB6AFB60FA683B689A4255D0C9
:102DE8007B681B79002B39D07B685A787B6803F1A4
:102DF800300310461946FA684FF00103FFF7C4FE86
:102E08000346002B02D04FF0010341E07B684FF0EE
:102E180000021A717B681A6A7B689B69D218FB6882
:102E28009A421BD97B68DB78FB7214E07B689B694C
:102E3800FA68D318FB607B685A787B6803F1300323
:102E480010461946FA684FF00103FFF79DFEFB7A1A
:102E580003F1FF33FB72FB7A012BE7D83B68002BA9
:102E680014D07B685A787B6803F130031046194602
:102E78003A684FF00103FFF745FE0346002B02D0E6
:102E88004FF0010304E07B683A68DA624FF0000310
:102E9800184607F11007BD4680BD00BF80B584B055
:102EA80000AF786078684FF00001FFF78DFF0346A8
:102EB800FB73FB7B002B40F0AB807B681B78032BFC
:102EC80040F097807B685B79002B00F092807B68EC
:102ED8004FF00002DA627B6803F1300318464FF0C6
:102EE80000014FF40072FFF7F5FE7B684FF05502C2
:102EF80083F82E227B684FF0AA0283F82F227B6882
:102F08004FF0520283F830207B684FF0520283F86A
:102F180031207B684FF0610283F832207B684FF0E4
:102F2800410283F833207B684FF0720283F8142241
:102F38007B684FF0720283F815227B684FF04102DC
:102F480083F816227B684FF0610283F817227B68AA
:102F58001B69DAB27B6883F818227B681B699BB20D
:102F68004FEA13239BB2DAB27B6883F819227B6895
:102F78001B694FEA1343DAB27B6883F81A227B682D
:102F88001B694FEA1363DAB27B6883F81B227B68FC
:102F9800DB68DAB27B6883F81C227B68DB689BB24B
:102FA8004FEA13239BB2DAB27B6883F81D227B6851
:102FB800DB684FEA1343DAB27B6883F81E227B682A
:102FC800DB684FEA1363DAB27B6883F81F227B68F9
:102FD80059787B6803F130027B685B6908461146C3
:102FE8001A464FF00103FFF7CFFD7B684FF0000250
:102FF8005A717B685B7818464FF000014FF0000269
:10300800FFF704FE0346002B02D04FF00103FB73C9
:10301800FB7B184607F11007BD4680BD80B586B01A
:1030280000AF786039603B68012B04D97B68DA69A6
:103038003B689A4202D84FF00103F5E07B681B6AAF
:103048007B617B681B78022B5AD0032B00F08C80A5
:10305800012B40F0E7803B683B613B694FEA530333
:103068003A69D3183B617B685B893A69B2FBF3F232
:103078007B69D31878681946FFF7A6FE0346002B2C
:1030880040F0C9807B685B8903F1FF331A463B69CE
:1030980013407A68D31893F83030FB603B6903F12A
:1030A80001033B617B685B893A69B2FBF3F27B6998
:1030B800D31878681946FFF787FE0346002B40F0BF
:1030C800AC807B685B8903F1FF331A463B69134088
:1030D8007A68D31893F830304FEA0323FA68134319
:1030E800FB603B6803F00103002B03D0FB684FEA49
:1030F800131304E0FB684FEA03534FEA135393E0BA
:103108007B685B894FEA53039BB23A68B2FBF3F2E0
:103118007B69D31878681946FFF756FE0346002BDB
:103128007DD13B689BB24FEA43027B685B8903F120
:10313800FF33134003F101037A68D31893F8303052
:103148004FEA03239AB23B689BB24FEA43017B687C
:103158005B8903F1FF330B407968CB1893F8303063
:1031680013439BB29BB25FE07B685B894FEA930392
:103178009BB23A68B2FBF3F27B69D31878681946B8
:10318800FFF722FE0346002B4BD13B689BB24FEA68
:1031980083027B685B8903F1FF33134003F1030368
:1031A8007A68D31893F830304FEA03623B689BB2D1
:1031B8004FEA83017B685B8903F1FF330B4003F11E
:1031C80002037968CB1893F830304FEA03431A4367
:1031D8003B689BB24FEA83017B685B8903F1FF334D
:1031E8000B4003F101037968CB1893F830304FEAAC
:1031F80003231A433B689BB24FEA83017B685B89D0
:1032080003F1FF330B407968CB1893F83030134340
:1032180023F0704308E000BF04E000BF02E000BFF5
:1032280000E000BF4FF0FF33184607F11807BD460E
:1032380080BD00BF80B588B000AFF860B9607A6023
:10324800BB68012B04D9FB68DA69BB689A4203D8CA
:103258004FF00203FB7732E1FB681B6ABB61FB6836
:103268001B78022B00F08580032B00F0BB80012B1C
:1032780040F01681BB687B617B694FEA53037A692A
:10328800D3187B61FB685B897A69B2FBF3F2BB698F
:10329800D318F8681946FFF797FD0346FB77FB7FBD
:1032A800002B40F00181FB685B8903F1FF331A466C
:1032B8007B69134003F13003FA68D3183B61BB689C
:1032C80003F00103002B0ED03B691B78DBB203F03F
:1032D8000F03DAB27B68DBB24FEA0313DBB21343A6
:1032E800DBB2DBB201E07B68DBB23A6913707B6961
:1032F80003F101037B61FB684FF001021A71FB685F
:103308005B897A69B2FBF3F2BB69D318F86819468E
:10331800FFF75AFD0346FB77FB7F002B40F0C68082
:10332800FB685B8903F1FF331A467B69134003F19D
:103338003003FA68D3183B61BB6803F00103002B24
:1033480004D07B684FEA1313DBB20FE03B691B78AC
:10335800DBB223F00F03DAB27B684FEA1323DBB248
:1033680003F00F03DBB21343DBB2DBB23A6913702D
:10337800A1E0FB685B894FEA53039BB2BA68B2FBD2
:10338800F3F2BB69D318F8681946FFF71DFD034629
:10339800FB77FB7F002B40F08B80BB689BB24FEA2A
:1033A8004302FB685B8903F1FF3313407A68D2B2AA
:1033B800F968CB1883F83020BB689BB24FEA430208
:1033C800FB685B8903F1FF33134003F101037A685B
:1033D80092B24FEA122292B2D2B2F968CB1883F8AD
:1033E800302068E0FB685B894FEA93039BB2BA68B8
:1033F800B2FBF3F2BB69D318F8681946FFF7E4FC8F
:103408000346FB77FB7F002B54D1BB689BB24FEA86
:103418008302FB685B8903F1FF3313407A68D2B2F9
:10342800F968CB1883F83020BB689BB24FEA830257
:10343800FB685B8903F1FF33134003F101037A68EA
:1034480092B24FEA122292B2D2B2F968CB1883F83C
:103458003020BB689BB24FEA8302FB685B8903F1AB
:10346800FF33134003F102037A684FEA1242D2B2E3
:10347800F968CB1883F83020BB689BB24FEA830207
:10348800FB685B8903F1FF33134003F103037A6898
:103498004FEA1262D2B2F968CB1883F830200AE0FA
:1034A8004FF00203FB7706E000BF04E000BF02E034
:1034B80000BF00E000BFFB684FF001021A71FB7FFC
:1034C800184607F12007BD4680BD00BF80B584B00F
:1034D80000AF786039603B68012B04D97B68DA69F2
:1034E8003B689A4203D84FF00203FB733FE04FF06A
:1034F8000003FB7332E078683968FFF78FFDB86026
:10350800BB68002B30D0BB68012B03D14FF00203FE
:10351800FB732CE0BB68B3F1FF3F03D14FF001030D
:10352800FB7324E0786839684FF00002FFF782FEE9
:103538000346FB73FB7B002B18D17B681B69B3F137
:10354800FF3F09D07B681B6903F101027B681A61A0
:103558007B684FF001025A71BB683B607B68DA698F
:103568003B689A42C7D802E000BF00E000BFFB7B7F
:10357800184607F11007BD4680BD00BF80B586B06C
:1035880000AF786039607B68DB69FB603B68002BC3
:103598000DD17B68DB683B613B69002B03D03A693E
:1035A800FB689A4216D34FF001033B6112E078683A
:1035B8003968FFF733FDB860BB68012B02D84FF0BC
:1035C800010363E0BA68FB689A4201D2BB685DE018
:1035D8003B683B613B697B6100E000BF7B6903F1AD
:1035E80001037B617A69FB689A4209D34FF00203B1
:1035F8007B617A693B699A4202D94FF0000345E042
:1036080078687969FFF70AFDB860BB68002B0FD0AE
:10361800BB68B3F1FF3F02D0BB68012B01D1BB6887
:1036280034E07A693B699A42D7D14FF000032DE024
:1036380000BF786879696FF07042FFF7FBFD0346B9
:10364800002B02D04FF0FF3320E03B68002B0AD05C
:10365800786839687A69FFF7EDFD0346002B02D0D8
:103668004FF0FF3312E07B687A69DA607B681B6988
:10367800B3F1FF3F09D07B681B6903F1FF327B6818
:103688001A617B684FF001025A717B69184607F18D
:103698001807BD4680BD00BF80B483B000AF786016
:1036A80039603B68A3F102033B607B68DB69A3F1E7
:1036B80002023B689A4202D84FF0000307E07B6899
:1036C8009B783A6802FB03F27B689B6AD31818461A
:1036D80007F10C07BD4680BC704700BF80B584B0B9
:1036E80000AF78600B467B807B687A88DA807B68DD
:1036F8009B68FB60FB68012B05D07B681B68DA6957
:10370800FB689A4202D84FF0020389E0FB68002B5D
:1037180008D17B681B681B78032B03D17B681B6867
:103728005B6AFB60FB68002B1CD17B68FA68DA6077
:103738007B681B681B897A889A4202D34FF0020380
:103748006EE07B681B685A6A7B681B685B894FEA76
:1037580053139BB27988B1FBF3F39BB2D2187B6801
:103768001A6145E07B681B685B894FEA53139BB27B
:103778007A681268927802FB03F37B811DE07B680C
:103788001B681846F968FFF749FCF860FB68B3F155
:10379800FF3F02D14FF0010342E0FB68012B05D93E
:1037A8007B681B68DA69FB689A4202D84FF002030B
:1037B80036E07A887B89D31A7B807A887B899A421B
:1037C800DDD27B68FA68DA607B681B681846F9689E
:1037D800FFF762FF02467B681B685B894FEA531359
:1037E8009BB27988B1FBF3F39BB2D2187B681A615C
:1037F8007B6819687B681B685B894FEA53139AB228
:103808007B88B3FBF2F002FB00F29B1A9BB24FEAF3
:10381800431303F13003CA187B685A614FF0000361
:10382800184607F11007BD4680BD00BF90B585B0AA
:1038380000AF78600B46FB707B68DB8803F10103FF
:103848003B813B89002B03D07B681B69002B02D18D
:103858004FF00403F1E07B681B685B894FEA531360
:103868009AB23B89B3FBF2F102FB01F29B1A9BB2BD
:10387800002B40F0C7807B681B6903F101027B685D
:103888001A617B68DB68002B09D17B681B681B8980
:103898003A899A42C0F0B6804FF00403CDE07B68C5
:1038A8001B685B894FEA53139BB23A89B2FBF3F367
:1038B8009BB21A467B681B689B7803F1FF33134061
:1038C800002B40F09F807B681A687B68DB68104695
:1038D8001946FFF7A3FBF860FB68012B02D84FF0ED
:1038E8000203AAE0FB68B3F1FF3F02D14FF00103E6
:1038F800A3E07B681B68DA69FB689A4276D8FB7894
:1039080083F00103DBB2002B02D04FF0040394E0F4
:103918007B681A687B68DB6810461946FFF72EFE3D
:10392800F860FB68002B02D14FF0070385E0FB68C5
:10393800012B02D14FF002037FE0FB68B3F1FF3F98
:1039480002D14FF0010378E07B681B6818464FF0FE
:103958000001FFF739FA0346002B02D04FF00103AC
:103968006BE07B681B6803F130027B681B685B892E
:1039780010464FF000011A46FFF7ACF97B681C6847
:103988007B681B681846F968FFF786FE0346E36202
:103998004FF00003FB721BE07B681B684FF00102CD
:1039A8001A717B681B6818464FF00001FFF70CFA84
:1039B8000346002B02D04FF001033EE07B681B68F2
:1039C800DA6A02F10102DA62FB7A03F10103FB729F
:1039D8007B681B689B78FA7A9A42DDD37B681B6800
:1039E8007A681268D16AFA7A8A1ADA627B68FA689F
:1039F800DA607B681B681846F968FFF74DFE0246D7
:103A08007B681A617B683A89DA807B6819687B6809
:103A18001B685B894FEA53139AB23B89B3FBF2F0F8
:103A280002FB00F29B1A9BB24FEA431303F13003E7
:103A3800CA187B685A614FF00003184607F114074B
:103A4800BD4690BD80B586B000AF786039603B68F0
:103A58001B7803F0BF0303F1FF3213464FEA430319
:103A68009B184FEA83039B187B614FF000033B616F
:103A78004FF00103FB81304A3B69D3181B7803F1EF
:103A880001033A68D3181B784FEA03239AB22A49EC
:103A98003B69CB181B783968CB181B7813439BB24A
:103AA800BB81FB89002B1CD0BB891846FEF7BAFFE7
:103AB8000346FB817B69FE2B10DC7B694FEA4303DD
:103AC8007A68D3181B887A6902F101027A6118466C
:103AD800FEF7A8FF0346FA899A420AD04FF000037E
:103AE80024E0BA894FF6FF739A4202D04FF00003E0
:103AF8001CE03B6903F101033B613B690C2BBADD18
:103B08003B681B7803F04003002B0DD0FB89002B8A
:103B18000AD07B694FEA43037A68D3181B88002BC5
:103B280002D04FF0000301E04FF00103184607F1FF
:103B38001807BD4680BD00BF88F1000880B489B071
:103B480000AFF860B960FA71BB71BB6803F10D038F
:103B5800BA791A70BB6803F10B034FF00F021A70A1
:103B6800BB6803F10C034FF000021A70BB6803F145
:103B78001A034FF000021A70BB6803F11B034FF0E1
:103B880000021A70FB7903F1FF3213464FEA430330
:103B98009B184FEA83039B18FB614FF00003FB82DD
:103BA8004FF00003BB61FA8A4FF6FF739A420AD0BE
:103BB800FB694FEA4303FA68D3181B88FB82FB6949
:103BC80003F10103FB611E4ABB69D3181B78BA686D
:103BD800D318FA8AD2B21A70194ABB69D3181B785B
:103BE80003F10103BA68D318FA8A4FEA122292B293
:103BF800D2B21A70FB8A002B02D14FF6FF73FB82F8
:103C0800BB6903F10103BB61BB690C2BCBDDFA8AED
:103C18004FF6FF739A4207D0FB694FEA4303FA68ED
:103C2800D3181B88002B03D1FB7943F04003FB71A9
:103C3800BB68FA791A7007F12407BD4680BC704743
:103C480088F1000880B588B000AFF860B9607A6084
:103C58007B80F868B9684FF00B02FFF713F87B8890
:103C6800052B13D97B884FEAC3329BB24FEA530323
:103C780013439AB27B681B88D3187B807B6803F157
:103C880002037B607B681B88002BEBD14FF0070396
:103C9800FB617A882E4BA3FB02134FEAD3010B4634
:103CA8004FEA83035B184FEA4303D31A9BB2DBB294
:103CB80003F13003DBB2DAB207F11001FB69CB186C
:103CC8001A70FB6903F1FF33FB617A88204BA3FB71
:103CD80002134FEAD3037B807B88002BD9D107F1ED
:103CE8001002FB69D3184FF07E021A704FF00003E0
:103CF800BB6103E0BB6903F10103BB61BA69FB69FE
:103D08009A4205DABB69FA68D3181B78202BF1D1DF
:103D1800BB69FA68D218FB69072B0ADC07F11001A6
:103D2800FB69CB181B78DBB2F96901F10101F96174
:103D380001E04FF020031370BB6903F10103BB617D
:103D4800BB69072BE4DD07F12007BD4680BD00BF36
:103D5800CDCCCCCC80B485B000AF78604FF00003F8
:103D6800FB734FF00B03BB60FB7B4FEAC312DBB264
:103D78004FEA53031343DAB27B681B78D318FB73FB
:103D88007B6803F101037B60BB6803F1FF33BB6011
:103D9800BB68002BE8D1FB7B184607F11407BD462A
:103DA80080BC704780B586B000AF786078684FF007
:103DB8000001FFF793FC0346FB75FB7D002B01D048
:103DC800FB7DA2E04FF0FF033B753B7D7B757B6875
:103DD8001A687B681B6910461946FEF7F5FF03460B
:103DE800FB75FB7D002B40F08A807B685B693B613B
:103DF8003B691B78BB75BB7D002B03D14FF00403D7
:103E0800FB7581E03B6903F10B031B7803F03F036B
:103E1800FB73BB7DE52B07D0FB7B03F00803002B6E
:103E280006D0FB7B0F2B03D04FF0FF037B755AE0C6
:103E3800FB7B0F2B32D17B68DB69002B53D0BB7D1A
:103E480003F04003002B0CD03B695B7B3B75BB7DCB
:103E580023F04003BB75BB7D7B757B68DA887B6884
:103E68001A84BA7D7B7D9A4214D13B6903F10D0314
:103E78001B783A7D9A420DD17B68DB69184639690F
:103E8800FFF7E0FD0346002B04D07B7D03F1FF33F1
:103E9800DBB201E04FF0FF037B7524E07B7D002B54
:103EA80006D13869FFF756FF03463A7D9A4228D073
:103EB8004FF0FF037B757B684FF6FF721A847B68AF
:103EC8009B6903F10B031B7803F00103002B0AD154
:103ED8007B689B69386919464FF00B02FEF71CFF97
:103EE8000346002B0FD078684FF00001FFF79EFCC7
:103EF8000346FB75FB7D002B3FF469AF04E000BF70
:103F080002E000BF00E000BFFB7D184607F118077C
:103F1800BD4680BD80B58CB000AF78607B689B697A
:103F28007B627B68DB693B6207F10C031846796AA0
:103F38004FF00C02FEF7A6FEFB7D03F00103002BF9
:103F48003DD07B6A03F10B034FF000021A707B68C7
:103F58004FF00002DA614FF00103BB8515E007F16D
:103F68000C02BB8D786A11463A6AFFF76BFE7868D7
:103F7800FFF718FF034687F82F3097F82F30002BEC
:103F880007D1BB8D03F10103BB85BB8D632BE6D93C
:103F980000E000BFBB8D642B02D14FF0070308E19E
:103FA80097F82F30042B02D097F82F3001E17B6A65
:103FB80003F10B03FA7D1A707B683A6ADA61FB7DBC
:103FC80003F00203002B1CD04FF000037B8503E0B5
:103FD8007B8D03F101037B857B8D4FEA43033A6AAE
:103FE800D3181B88002BF3D17B8D03F11903734A77
:103FF80082FB03124FEAA2024FEAE373D31A7B85CE
:1040080002E04FF001037B8578684FF00001FFF76D
:1040180065FB034687F82F3097F82F30002B02D026
:1040280097F82F30C5E04FF000033B853B8DBB85EB
:104038007B681A687B681B6910461946FEF7C4FE40
:10404800034687F82F3097F82F30002B28D17B684C
:104058005B691B78FB77FB7FE52B02D0FB7F002B8E
:104068000ED1BB8D002B02D17B68DB883B85BB8DD5
:1040780003F10103BB85BA8D7B8D9A4203D110E011
:104088004FF00003BB8578684FF00101FFF7CEFBC6
:10409800034687F82F3097F82F30002BC8D000E060
:1040A80000BF97F82F30002B4BD17B8D012B48D9BF
:1040B8003B8D78681946FFF711FB034687F82F30C8
:1040C80097F82F30002B3CD17B689B691846FFF787
:1040D80041FE0346BB777B8D03F1FF337B857B680D
:1040E8001A687B681B6910461946FEF76DFE034681
:1040F80087F82F3097F82F30002B21D17B68D869AB
:104108007B6859697B8DDAB2BB7FFFF717FD7B6847
:104118001B684FF001021A7178684FF00001FFF731
:1041280085FB034687F82F3097F82F30002B08D1EE
:104138007B8D03F1FF337B857B8D002BCFD100E096
:1041480000BF97F82F30002B31D17B681A687B6845
:104158001B6910461946FEF737FE034687F82F30CD
:1041680097F82F30002B22D17B685B69BB61B86957
:104178004FF000014FF02002FEF7ACFD7B689B6911
:10418800B86919464FF00B02FEF77CFDBB6903F1D5
:104198000C037A68926902F10B02127802F0180295
:1041A800D2B21A707B681B684FF001021A7197F837
:1041B8002F30184607F13007BD4680BD4FECC44E7E
:1041C80080B58AB000AF786039604FF000037B613A
:1041D8007B69BB613B681B683B617B68DB69FB6093
:1041E800BB693A69D3181B785BB2BB84BB6903F11E
:1041F8000103BB61BB8C1F2B36D9BB8C2F2B33D053
:10420800BB8C5C2B30D07B69FE2B02DD4FF00603A4
:10421800A3E1BB8CDBB2BB84BB8C18464FF0010119
:10422800FEF7C0FB0346BB84BB8C002B02D14FF0CA
:10423800060392E1BB8C7F2B0AD8BB8C9D4819469C
:10424800FEF7A4FD0346002B02D04FF0060384E1DD
:104258007B694FEA4303FA68D318BA8C1A807B69E2
:1042680003F101037B61BBE7BB693A69D2183B687C
:104278001A60BB8C1F2B02D84FF0040301E04FF0EB
:10428800000387F8263012E07B6903F1FF334FEA19
:104298004303FA68D3181B88BB84BB8C202B02D03D
:1042A800BB8C2E2B07D17B6903F1FF337B617B69C4
:1042B800002BE9D100E000BF7B69002B02D14FF051
:1042C80006034AE17B694FEA4303FA68D3184FF0C3
:1042D80000021A807B689B6918464FF020014FF056
:1042E8000B02FEF7F7FC4FF00003BB6103E0BB696C
:1042F80003F10103BB61BB694FEA4303FA68D318B2
:104308001B88202BF3D0BB694FEA4303FA68D31804
:104318001B882E2BEBD0BB69002B0AD097F82630D0
:1043280043F0030387F8263003E07B6903F1FF338A
:104338007B617B69002B09D07B6903F1FF334FEA6E
:104348004303FA68D3181B882E2BEED14FF00003D5
:104358003B624FF0000387F827304FF00803FB61FA
:10436800BB694FEA4303FA68D3181B88BB84BB694F
:1043780003F10103BB61BB8C002B00F09980BB8C5F
:10438800202B06D0BB8C2E2B0AD1BA697B699A42A6
:1043980006D097F8263043F0030387F8263086E0E6
:1043A8003A6AFB699A4203DABA697B699A4226D16A
:1043B800FB690B2B06D197F8263043F0030387F8E7
:1043C80026307EE0BA697B699A4205D097F8263094
:1043D80043F0030387F82630BA697B699A426FDC99
:1043E8007B69BB614FF008033B624FF00B03FB6135
:1043F80097F827304FEA830387F8273057E0BB8CBC
:104408007F2B16D9BB8C18464FF00001FEF7CAFA6D
:104418000346BB84BB8C002B05D0BB8CA3F1800367
:10442800254AD35CBB8497F8263043F0020387F80B
:104438002630BB8C002B07D0BB8C20481946FEF7D2
:10444800A5FC0346002B09D04FF05F03BB8497F807
:10445800263043F0030387F826301CE0BB8C402B42
:1044680009D9BB8C5A2B06D897F8273043F002039A
:1044780087F827300FE0BB8C602B0CD9BB8C7A2BCC
:1044880009D897F8273043F0010387F82730BB8C09
:10449800A3F12003BB847B689A693B6AD318BA8C62
:1044A800D2B21A703B6A03F101033B6258E757E73F
:1044B80000BF06E010EB000898F100081CEB0008AC
:1044C80000BF7B689B691B78E52B04D17B689B69DF
:1044D8004FF005021A70FB69082B05D197F82730B1
:1044E8004FEA830387F8273097F8273003F00C0347
:1044F8000C2B05D097F8273003F00303032B05D1C5
:1045080097F8263043F0020387F8263097F82630CC
:1045180003F00203002B17D197F8273003F00303A9
:10452800012B05D197F8263043F0100387F8263081
:1045380097F8273003F00C03042B05D197F82630A1
:1045480043F0080387F826307B689B6903F10B0367
:1045580097F826201A704FF00003184607F128072D
:10456800BD4680BD80B584B000AF7860396000BFBB
:104578003B681B785BB22F2B04D03B681B785BB27F
:104588005C2B03D13B6803F101033B607B684FF070
:1045980000029A603B681B78DBB21F2B0BD8786847
:1045A8004FF00001FFF79AF80346FB737B684FF062
:1045B80000025A615CE03B4678681946FFF700FE46
:1045C8000346FB73FB7B002B4DD17868FFF7EAFBB2
:1045D8000346FB737B689B6903F10B031B7803F0AD
:1045E8000403BB73FB7B002B09D0FB7B042B3CD162
:1045F800BB7B002B39D14FF00503FB7335E0BB7B48
:10460800002B34D17B685B69BB60BB6803F10B038B
:104618001B7803F01003002B03D14FF00503FB7345
:1046280026E0BB6803F115031B784FEA03239AB20F
:10463800BB6803F114031B7813439BB29BB24FEA88
:104648000342BB6803F11B031B784FEA032399B2AB
:10465800BB6803F11A031B780B439BB29BB21A4346
:104668007B689A60A7E700BF02E000BF00E000BFD8
:10467800FB7B184607F11007BD4680BD80B582B0A8
:1046880000AF786039607B685A787B6803F1300343
:10469800104619463A684FF00103FEF733FA03460D
:1046A800002B02D04FF003034DE07B6893F82F32C4
:1046B8004FEA03239AB27B6893F82E3213439BB2D6
:1046C8001AB2234B9A4202D04FF002033BE07B68B8
:1046D80093F869304FEA03627B6893F868304FEAD1
:1046E80003431A437B6893F867304FEA03231A435E
:1046F8007B6893F86630134323F07F42154B9A4248
:1047080002D14FF000031EE07B6893F885304FEA32
:1047180003627B6893F884304FEA03431A437B684B
:1047280093F883304FEA03231A437B6893F8823067
:10473800134323F07F42074B9A4202D14FF0000304
:1047480001E04FF00103184607F10807BD4680BD98
:1047580055AAFFFF4641540080B58EB000AFF860FF
:10476800B9601346FB71FB681B683B623B6A1B78A8
:104778005BB2A3F130033B633B6B092B0ED83B6A5A
:1047880003F101031B785BB23A2B07D13B6A03F1B3
:1047980002033B62FB683A6A1A6002E04FF00003CA
:1047A8003B633B6B002B02D04FF00B035EE25D4B8B
:1047B8003A6B53F82230FB61BB68FA691A60FB69EF
:1047C800002B02D14FF00C0350E2FB691B78002B41
:1047D80019D0FB695B781846FEF774F90346FB7637
:1047E800FB7E03F00103002B0DD1FB79002B07D0D2
:1047F800FB7E03F00403002B02D04FF00A0335E2DE
:104808004FF0000332E2FB694FF000021A703B6B75
:10481800DAB2FB695A70FB695B781846FEF732F921
:104828000346FB76FB7E03F00103002B02D04FF01A
:1048380003031BE2FB695A78FB6903F10A0310467C
:104848004FF002011A46FEF7E1F90346002B04D1A6
:10485800FB695B89B3F5806F02D94FF00D0305E260
:10486800FB79002B07D0FB7E03F00403002B02D05A
:104878004FF00A03FAE14FF00003FB62F869F96AA6
:10488800FFF7FCFE034687F8373097F83730012BDF
:104898002AD1FB6903F5F7737B617B6903F1040394
:1048A8001B78002B20D07B6903F10B031B784FEAA0
:1048B80003627B6903F10A031B784FEA03431A4337
:1048C8007B6903F109031B784FEA03231A437B69C9
:1048D80003F108031B781343FB62F869F96AFFF7D1
:1048E800CDFE034687F8373097F83730032B02D1CF
:1048F8004FF00103BAE197F83730002B0FD1FB696D
:1049080093F83C304FEA03239AB2FB6993F83B30A3
:1049180013439BB29AB2FB695B899A4204D04FF069
:104928000D03A3E184070020FB6993F847304FEAA1
:1049380003239AB2FB6993F8463013439BB29BB2A8
:10494800BB62BB6A002B15D1FB6993F857304FEA5D
:104958000362FB6993F856304FEA03431A43FB6935
:1049680093F855304FEA03231A43FB6993F8543000
:104978001343BB62FB69BA6A9A61FB6993F84020EA
:10498800FB69DA70FB69DB781A46BB6A02FB03F342
:10499800BB62FB6993F83F304FEA03239AB2FB6985
:1049A80093F83E3013439BB29BB21A46FB6AD21867
:1049B800FB691A62FB6993F83D20FB699A70FB69F1
:1049C80093F842304FEA03239AB2FB6993F84130D7
:1049D80013439BB29AB2FB691A81FB6993F844307E
:1049E8004FEA03239AB2FB6993F8433013439BB20F
:1049F8009BB27B627B6A002B15D1FB6993F853301D
:104A08004FEA0362FB6993F852304FEA03431A43B3
:104A1800FB6993F851304FEA03231A43FB6993F873
:104A2800503013437B62FB6993F83F304FEA03230E
:104A38009AB2FB6993F83E3013439BB29BB27A6AF1
:104A4800D21ABB6AD21AFB691989FB695B894FEADA
:104A580053139BB2B1FBF3F39BB2D21AFB699B7859
:104A6800B2FBF3F303F102033B61FB693A69DA61D4
:104A78004FF0010387F837303A6940F6F6739A42E7
:104A880003D94FF0020387F837303A694FF6F673C7
:104A98009A4203D94FF0030387F8373097F8373035
:104AA800032B17D1FB6993F85F304FEA0362FB6968
:104AB80093F85E304FEA03431A43FB6993F85D307D
:104AC8004FEA03231A43FB6993F85C301A43FB69E6
:104AD8005A6205E0FB691A6ABB6AD218FB695A6216
:104AE800FB691A6ABB6AD218FB691989FB695B8979
:104AF8004FEA53139BB2B1FBF3F39BB2D218FB6995
:104B08009A62FB694FF0FF321A61FB694FF00002AD
:104B18001A7197F83730032B40F09380FB694FF0F8
:104B280000025A71FB6993F861304FEA03239AB285
:104B3800FB6993F8603013439BB29BB21A46FB6A39
:104B4800D218FB695A61FB695978FB6903F1300295
:104B5800FB695B69084611461A464FF00103FDF7E9
:104B6800D1FF0346002B6CD1FB6993F82F324FEA33
:104B780003239AB2FB6993F82E3213439BB21AB2FD
:104B88003D4B9A425DD1FB6993F833304FEA03629B
:104B9800FB6993F832304FEA03431A43FB6993F8F1
:104BA80031304FEA03231A43FB6993F830301A4334
:104BB800324B9A4245D1FB6993F817324FEA0362A8
:104BC800FB6993F816324FEA03431A43FB6993F8DB
:104BD80015324FEA03231A43FB6993F814321A4338
:104BE800274B9A422DD1FB6993F81F324FEA036293
:104BF800FB6993F81E324FEA03431A43FB6993F8A3
:104C08001D324FEA03231A43FB6993F81C321A43F7
:104C1800FB69DA60FB6993F81B324FEA0362FB69B0
:104C280093F81A324FEA03431A43FB6993F819328F
:104C38004FEA03231A43FB6993F818321A43FB69B6
:104C48001A61FB6997F837201A70FB694FF0000268
:104C5800DA620C4B1B8803F101039AB2094B1A80E4
:104C6800084B1A88FB69DA804FF00003184607F1F1
:104C78003807BD4680BD00BF55AAFFFF52526141AB
:104C8800727241618807002080B582B000AF7860F9
:104C98000B467B807B68002B08D07B681B78002B39
:104CA80004D07B68DB887A889A4202D04FF00903E7
:104CB8000EE07B685B781846FDF704FF034603F0B7
:104CC8000103002B02D04FF0030301E04FF0000373
:104CD800184607F10807BD4680BD00BF80B485B0FF
:104CE80000AF03463960FB71FB79002B02D04FF00F
:104CF8000B0319E0FA790F4B53F82230FB60FB687D
:104D0800002B03D0FB684FF000021A703B68002BA1
:104D180003D03B684FF000021A70FA79054B3968E6
:104D280043F822104FF00003184607F11407BD4658
:104D380080BC70478407002080B596B000AFF8604B
:104D4800B9601346FB71A64BFB64FB684FF0000289
:104D58001A60FB7903F01F03FB71FB7903F01E0354
:104D6800DBB207F1080107F12002084611461A468E
:104D7800FFF7F2FC034687F8573097F85730002BB7
:104D880002D097F8573088E107F11403BB63FB6C36
:104D9800FB63BB6807F1200210461946FFF7E2FBE8
:104DA800034687F85730FB7903F01C03002B00F00B
:104DB800EF8097F85730002B19D097F85730042B0D
:104DC80007D107F120031846FFF7A4F8034687F830
:104DD800573097F85730002B02D097F857305CE1DE
:104DE800FB7943F00803FB717B6B3B6599E0FB792A
:104DF80003F00403002B02D04FF008034DE17B6B56
:104E08003B653B6D002B07D03B6D03F10B031B7813
:104E180003F01103002B02D04FF007033DE1FB79AB
:104E280003F00803002B7CD03B6D03F115031B78BE
:104E38004FEA03239AB23B6D03F114031B78134323
:104E48009BB29BB24FEA03423B6D03F11B031B78F5
:104E58004FEA032399B23B6D03F11A031B780B4306
:104E68009BB29BB21343BB643B6D03F114034FF039
:104E780000021A703B6D03F115034FF000021A701F
:104E88003B6D03F11A034FF000021A703B6D03F1FA
:104E98001B034FF000021A703B6D03F11C034FF027
:104EA80000021A703B6D03F11D034FF000021A70E7
:104EB8003B6D03F11E034FF000021A703B6D03F1C6
:104EC8001F034FF000021A703B6A4FF001021A717B
:104ED8003B6ADB6A7B64BB6C002B13D03B6A1846C9
:104EE800B96CFEF7F3FA034687F8573097F857304E
:104EF800002B02D097F85730CFE03B6ABA6C02F12A
:104F0800FF32DA603B6A1846796CFDF75DFF0346AD
:104F180087F8573097F85730002B02D097F857305A
:104F2800BBE0FB7903F00803002B5BD03B6D03F17A
:104F38000B034FF000021A70FDF79CFE78643B6D7E
:104F480003F10E037A6CD2B21A703B6D03F10F03B2
:104F58007A6C92B24FEA122292B2D2B21A703B6DB8
:104F680003F110037A6C4FEA1242D2B21A703B6D09
:104F780003F111037A6C4FEA1262D2B21A703B6ADB
:104F88004FF001021A71FB7943F02003FB7129E00D
:104F980097F85730002B02D097F857307DE07B6B9D
:104FA8003B653B6D002B07D03B6D03F10B031B7872
:104FB80003F01003002B02D04FF004036DE0FB79DF
:104FC80003F00203002B0DD03B6D03F10B031B789C
:104FD80003F00103002B05D04FF007035DE000BF8D
:104FE8008C0700203B6ADA6AFB68DA617A6BFB6837
:104FF8001A62FB68FA799A713B6D03F115031B7805
:105008004FEA03239AB23B6D03F114031B78134351
:105018009BB29BB24FEA03423B6D03F11B031B7823
:105028004FEA032399B23B6D03F11A031B780B4334
:105038009BB29BB21A43FB681A613B6D03F11F03D5
:105048001B784FEA03623B6D03F11E031B784FEA9E
:1050580003431A433B6D03F11D031B784FEA0323F7
:105068001A433B6D03F11C031B781A43FB68DA6093
:10507800FB684FF000029A60FB684FF0FF02DA719C
:10508800FB684FF000029A613A6AFB681A603B6A53
:10509800DA88FB689A804FF00003184607F1580732
:1050A800BD4680BD80B58CB000AFF860B9607A604D
:1050B8003B60BB687B623B684FF000021A60FB688C
:1050C8001A68FB689B8810461946FFF7DDFD034602
:1050D80087F8233097F82330002B02D097F8233035
:1050E8007FE1FB689B79DBB25BB2002B02DA4FF001
:1050F800020376E1FB689B7903F00103002B02D1E0
:105108004FF007036DE1FB68DA68FB689B68D31A08
:10511800FB617A68FB699A4240F25D81FB697B60BA
:1051280059E1FB689B68FA6812685289B3FBF2F18F
:1051380002FB01F29B1A002B40F00D81FB68DA7923
:10514800FB681B689B789A4232D3FB689B68002BEC
:1051580002D1FB681B6908E0FB681A68FB685B6999
:1051680010461946FDF75AFF0346BB61BB69012B80
:1051780009D8FB689B7963F07F03DAB2FB689A7100
:105188004FF002032DE1BB69B3F1FF3F09D1FB6882
:105198009B7963F07F03DAB2FB689A714FF00103E1
:1051A8001FE1FB68BA695A61FB684FF00002DA71C7
:1051B800FB681A68FB685B6910461946FEF76CFACB
:1051C80078617B69002B09D1FB689B7963F07F03C9
:1051D800DAB2FB689A714FF0020302E1FB68DB79EF
:1051E8007A69D3187B61FB681B685B897A68B2FBB4
:1051F800F3F3BB62BB6A002B5BD0FB68DB791A4612
:10520800BB6AD218FB681B689B789A4207D9FB686F
:105218001B689B781A46FB68DB79D31ABB62FB686C
:105228001B685A78BB6ADBB21046796A7A69FDF75F
:1052380069FC0346002B09D0FB689B7963F07F0368
:10524800DAB2FB689A714FF00103CAE0FB689B79F8
:1052580003F04003002B1CD0FB689A697B69D21AC3
:10526800BB6A9A4215D2FB689A697B69D31AFA68B5
:105278001268528902FB03F37A6AD118FB6803F1BA
:105288002402FB681B685B89084611461A46FDF72D
:10529800F9FCFB68DA79BB6ADBB2D318DAB2FB68CF
:1052A800DA71FB681B685B89BA6A02FB03F3FB626D
:1052B8007DE0FB689B7903F04003002B22D0FB685C
:1052C8001B685978FB6803F12402FB689B69084650
:1052D80011461A464FF00103FDF756FC0346002B12
:1052E80009D0FB689B7963F07F03DAB2FB689A7197
:1052F8004FF0010375E0FB689B7923F04003DAB2B5
:10530800FB689A71FB689A697B699A4219D0FB68B5
:105318001B685A78FB6803F12403104619467A691A
:105328004FF00103FDF7EEFB0346002B09D0FB68A5
:105338009B7963F07F03DAB2FB689A714FF001033F
:105348004FE0FB687A699A61FB68DB7903F1010336
:10535800DAB2FB68DA71FB681B685B891946FB687F
:105368009B68FA6812685289B3FBF2F002FB00F2FC
:105378009B1ACB1AFB62FA6A7B689A4201D97B684E
:10538800FB62FB689B68FA6812685289B3FBF2F10A
:1053980002FB01F29B1A03F12003FA68D31803F108
:1053A8000402FB6A786A11461A46FDF76BFC7A6AB2
:1053B800FB6AD3187B62FB689A68FB6AD218FB68A1
:1053C8009A603B681A68FB6AD2183B681A607A6868
:1053D800FB6AD31A7B607B68002B7FF4A2AE4FF088
:1053E8000003184607F13007BD4680BD80B586B07A
:1053F80000AF78607B681A687B689B8810461946FE
:10540800FFF742FC0346FB75FB7D002B40F0C7808D
:105418007B689B7903F02003002B00F0C0807B6839
:105428009B7903F04003002B1BD07B681B685978DD
:105438007B6803F124027B689B69084611461A467B
:105448004FF00103FDF7A0FB0346002B02D04FF0FD
:105458000103A5E07B689B7923F04003DAB27B68FF
:105468009A717B681A687B68DB6910461946FDF7F4
:10547800ABFC0346FB75FB7D002B40F090807B68FE
:105488001B6A3B613B6903F10B033A6902F10B02AA
:10549800127842F02002D2B21A703B6903F11C0361
:1054A8007A68D268D2B21A703B6903F11D037A6830
:1054B800D26892B24FEA122292B2D2B21A703B6903
:1054C80003F11E037A68D2684FEA1242D2B21A7008
:1054D8003B6903F11F037A68D2684FEA1262D2B2BD
:1054E8001A703B6903F11A037A681269D2B21A700A
:1054F8003B6903F11B037A68126992B24FEA1222E0
:1055080092B2D2B21A703B6903F114037A68126935
:105518004FEA1242D2B21A703B6903F115037A6856
:1055280012694FEA124292B24FEA122292B2D2B2F2
:105538001A70FDF79FFBF8603B6903F11603FA68E0
:10554800D2B21A703B6903F11703FA6892B24FEAB4
:10555800122292B2D2B21A703B6903F11803FA68A8
:105568004FEA1242D2B21A703B6903F11903FA6882
:105578004FEA1262D2B21A707B689B7923F020033B
:10558800DAB27B689A717B681B684FF001021A7166
:105598007B681B681846FDF781FC0346FB75FB7D9D
:1055A800184607F11807BD4680BD00BF80B584B016
:1055B80000AF78607868FFF719FF0346FB73FB7B41
:1055C800002B03D17B684FF000021A60FB7B184662
:1055D80007F11007BD4680BD80B588B000AFF86000
:1055E800B9607A604FF00003FB61FB68BB6123E0A0
:1055F80007F114037868B9694FF00102FFF752FD0B
:105608007B69012B1FD1BB691B785BB20D2B12D0B4
:10561800FB6903F10103FB61BB691B785BB20A2BD1
:1056280014BF00230123DBB2BA6902F10102BA6197
:10563800002B0AD100E000BFBB6803F1FF32FB6911
:105648009A42D5DC02E000BF00E000BFBB694FF022
:1056580000021A70FB69002B01D0FB6801E04FF0D3
:105668000003184607F12007BD4680BD80B483B00B
:1056780000AF0346FB71094B97F907204FEA521216
:10568800F97901F01F014FF0010000FA01F143F828
:10569800221007F10C07BD4680BC704700E100E00E
:1056A80080B483B000AF03463960FB7197F90730C7
:1056B800002B0DDA0E49FB7903F00F03A3F1040365
:1056C8003A68D2B24FEA0212D2B2CB181A760AE07E
:1056D800084997F907303A68D2B24FEA0212D2B2B3
:1056E800CB1883F8002307F10C07BD4680BC704730
:1056F80000ED00E000E100E080B582B000AF4FF0BF
:105708000003FB7101F088FEFCF746FA00F0C2F8CE
:105718000346FB71FB79DBB2002B02D0FB79DBB2CD
:105728005CE000F0FBF90346FB71FB79DBB2002B70
:1057380002D0FB79DBB251E02B4B4FF000021A7517
:10574800294B4FF000021A60274B4FF000025A60B5
:10575800254B4FF000029A60234B4FF00002DA60AD
:10576800214B4FF000021A611F48FCF725FA1F4829
:1057780000F0B6FA0346FB71FB79DBB2002B09D1C6
:105788001A4BB3F854304FEA0343184600F054FE5E
:105798000346FB71FB79DBB2002B05D14FF40060A7
:1057A80000F0CEFD0346FB71FB79DBB2002B13D171
:1057B8004FF03100FFF75AFF4FF031004FF0000172
:1057C800FFF76EFF4FF03B00FFF750FF4FF03B0035
:1057D8004FF00001FFF764FFFB79DBB2184607F1D1
:1057E8000807BD4680BD00BFF8410120A041012047
:1057F80080B582B000AF4FF00403FB7100F016F8DB
:105808000346FB71FB79042B02D14FF0000307E03C
:10581800FB79FF2B02D14FF0020301E04FF00103A7
:10582800184607F10807BD4680BD00BF80B582B0A5
:1058380000AF4FF000037B6000F01EF80346012B19
:1058480012D107F10403184601F0CAF80346002BE9
:1058580002D04FF0FF0309E07B684FEA5323DBB225
:1058680003F00F03DBB201E04FF0FF03184607F126
:105878000807BD4680BD00BF80B483B000AF4FF0BD
:105888000103FB71FB79DBB2184607F10C07BD4633
:1058980080BC704780B586B000AF4FF00003FB7145
:1058A8004FF000037B614FF000033B614FF00003B2
:1058B800FB604FF00003BB60954B4FF076021A7502
:1058C800934B4FF000021A60914B4FF000025A6060
:1058D8008F4B4FF000029A608D4B4FF00002DA6058
:1058E8008B4B4FF000021A618948FCF765F94FF0BD
:1058F8000300FCF7A1F94FF00100FCF78DF9854B87
:105908004FF000021A60834B4FF000025A60814B3F
:105918004FF000029A607F4B4FF00002DA607D4B37
:105928004FF480621A617B48FCF7A0F901F034F962
:105938000346FB71FB79DBB2002B02D0FB79DBB2AB
:10594800E0E0744B4FF4D5721A60724B4FF00802C6
:105958005A60704B4FF040029A606E4B4FF0000255
:10596800DA606C4B4FF480621A616A48FCF77EF982
:1059780001F03CF90346FB71FB79DBB2002B07D140
:10598800654B4FF001021A604FF08043BB601CE08A
:10599800604B4FF000021A605E4B4FF037025A60BE
:1059A8005C4B4FF040029A605A4B4FF00002DA60AD
:1059B800584B4FF480621A615648FCF757F94FF07C
:1059C800370001F057F90346FB71524B4FF00002C4
:1059D8001A60504B4FF037025A604E4B4FF040025E
:1059E8009A604C4B4FF00002DA604A4B4FF48062E9
:1059F8001A614848FCF73AF94FF0370001F03AF9D4
:105A08000346FB71FB79DBB2002B79D15AE0414B9D
:105A18004FF000021A603F4B4FF037025A603D4B7F
:105A28004FF040029A603B4B4FF00002DA60394B6E
:105A38004FF480621A613748FCF718F94FF03700C5
:105A480001F018F90346FB71FB79DBB2002B02D099
:105A5800FB79DBB256E0BB6843F0004343F48013A4
:105A68002C4A13602B4B4FF029025A60294B4FF0F8
:105A780040029A60274B4FF00002DA60254B4FF442
:105A880080621A612348FCF7F1F801F0DFF9034658
:105A9800FB71FB79DBB2002B02D0FB79DBB231E082
:105AA8004FF00000FCF71AF978617B694FEAD3736D
:105AB800012B14BF00230123DBB2FB603B6903F118
:105AC80001033B61FB68002B04D13A694FF6FE7372
:105AD8009A429CD93A694FF6FE739A4205D94FF01B
:105AE8001B03FB71FB79DBB20CE07B6903F080439D
:105AF8007B617B69002B03D0074B4FF002021A60D1
:105B0800FB79DBB2184607F11807BD4680BD00BF18
:105B1800F8410120884101208C09002080B582B01D
:105B280000AF4FF00003FB714FF00103BB80FCF79F
:105B380091F80346002B04D14FF02503FB71FB7944
:105B4800BEE0624B1B68042B3BD0614B4FF0000258
:105B58001A605F4B4FF002025A605D4B4FF0C00273
:105B68009A605B4B4FF00002DA60594B4FF4806249
:105B78001A615748FCF77AF801F094F90346FB716B
:105B8800FB79002B01D0FB799AE04FF00000FCF77D
:105B9800A5F802464F4B1A604FF00400FCF79EF838
:105BA80002464C4B5A604FF00800FCF797F8024643
:105BB800484B9A604FF00C00FCF790F80246454BB2
:105BC800DA60424B1B68002B0BD0404B1B68012B43
:105BD80007D03E4B1B68062B03D03C4B1B68022B9F
:105BE80024D13B4B4FF000021A60394B4FF00302AF
:105BF8005A60374B4FF040029A60354B4FF0000225
:105C0800DA60334B4FF480621A613148FCF72EF8A2
:105C180007F104034FF00300194601F07DF903462C
:105C2800FB71FB79002B01D0FB7949E0274B1B68FE
:105C3800042B41D0BB881A46274B1A60BB884FEA11
:105C480003431A46224B1A60214B4FF009025A604F
:105C58001F4B4FF0C0029A601D4B4FF00002DA60F4
:105C68001B4B4FF480621A611948FBF7FFFF01F0E4
:105C780019F90346FB71FB79002B01D0FB791FE072
:105C88004FF00000FCF72AF80246144B1A604FF058
:105C98000400FCF723F80246104B5A604FF0080046
:105CA800FCF71CF802460D4B9A604FF00C00FCF70D
:105CB80015F80246094BDA604FF00003FB71FB79D7
:105CC800184607F10807BD4680BD00BF8C090020B3
:105CD80088410120A0090020B00900209009002077
:105CE800B0B485B000AF78604FF00001B9734FF0E1
:105CF8000001F9739A490968C8B2796881F85600B1
:105D08009849096888B27968A1F8540096490968E1
:105D18004FEA1161F973F97B4FEA9111C8B27968BA
:105D28000870F97B01F03C014FEAA101C8B279681B
:105D38004870F97B01F00301C8B2796888708A4914
:105D4800096801F47F014FEA1141F9737968F87B1A
:105D5800C8708549096801F47F414FEA1121F97338
:105D68007968F87B087180490968F9737968F87B64
:105D780048717D4949684FEA1161F973F97B89B225
:105D88004FEA011188B27968C8807749496801F4F7
:105D98007F014FEA1141F9737968C98888B2F97BA4
:105DA8004FEA1111C9B2014388B27968C880F97BFA
:105DB80001F00F01C8B2796808726B49496801F4AB
:105DC8007F414FEA1121F973F97B4FEAD111C8B22B
:105DD80079684872F97B01F040014FEAA111C8B215
:105DE80079688872F97B01F020014FEA6111C8B225
:105DF8007968C872F97B01F010014FEA2111C8B225
:105E08007968087379684FF0000048735449096845
:105E1800002904D052490968012940F0AA80FB7B77
:105E280003F003034FEA83231A467B681A614E4B3B
:105E38005B68FB737B681A69FB7B4FEA83031A4331
:105E48007B681A61484B9B684FEA1363FB737B6856
:105E58001A69FB7B4FEA9313DBB21A437B681A611A
:105E6800FB7B03F038034FEAE303DAB27B681A7569
:105E7800FB7B03F00703DAB27B685A753A4B9B68E1
:105E880003F47F034FEA1343FB73FB7B4FEA53137F
:105E9800DAB27B689A75FB7B03F01C034FEAA30315
:105EA800DAB27B68DA75FB7B03F00303DBB24FEAF7
:105EB8004303DAB27B681A762B4B9B6803F47F4363
:105EC8004FEA1323FB737B681B7EDAB2FB7B4FEA36
:105ED800D313DBB21343DAB27B681A767B681B698B
:105EE80003F101010A464FF000037968C1E9122362
:105EF8007B68D3E912017B681B7EDBB203F10203E6
:105F08004FF0010202FA03F422464FEAE27302FB61
:105F180001F500FB03F42C19A0FB0223E1180B4642
:105F28007968C1E912237B681B7ADBB24FF0010262
:105F380002FA03F31A467B681A657B68D3E91201F3
:105F48007B681C6D22464FF0000302FB01F500FB45
:105F580003F42C19A0FB0223E1180B46796805E02D
:105F68008C090020B009002090090020C1E9122303
:105F780044E099490968022940D198494968F97368
:105F8800F97B01F03F014FEA014108467968086151
:105F9800924989684FEA1161F97379680869F97B50
:105FA8004FEA01210843796808618C49896801F43E
:105FB8007F014FEA1141F97379680869F97B084351
:105FC800796808618549896801F47F414FEA1121A0
:105FD800F9737968096901F1010420464FF000015D
:105FE8004FEA50344FEAC14323434FEAC04279682D
:105FF800C1E912237B684FF400721A65FB7B03F03A
:1060080040034FEAA313DAB27B685A76FB7B03F0AE
:106018003F03DBB24FEA4303DAB27B689A766F4BF1
:106028009B68FB737B689B7EDAB2FB7B4FEAD313DA
:10603800DBB21343DAB27B689A76FB7B03F07F030B
:10604800DAB27B68DA76654BDB684FEA1363FB7379
:10605800FB7B4FEAD313DAB27B681A77FB7B03F03A
:1060680060034FEA6313DAB27B685A77FB7B03F06D
:106078001C034FEAA303DAB27B689A77FB7B03F031
:106088000303DBB24FEA8303DAB27B68DA77534B58
:10609800DB6803F47F034FEA1343FB737B68DB7F02
:1060A800DAB2FB7B4FEA9313DBB21343DAB27B68B5
:1060B800DA77FB7B03F020034FEA6313DAB27B68DD
:1060C80083F820207B684FF0000283F82120FB7BB7
:1060D80003F00103DAB27B6883F822203F4BDB68C8
:1060E80003F47F434FEA1323FB73FB7B4FEAD3137D
:1060F800DAB27B6883F82320FB7B03F040034FEA86
:10610800A313DAB27B6883F82420FB7B03F0200317
:106118004FEA6313DAB27B6883F82520FB7B03F030
:1061280010034FEA2313DAB27B6883F82620FB7B3F
:1061380003F00C034FEAA303DAB27B6883F8272045
:10614800FB7B03F00303DAB27B6883F82820234B38
:10615800DB68FB73FB7B4FEA5303DAB27B6883F897
:1061680029207B684FF0010283F82A201C4B1B680A
:106178004FEA1363FB737B68FA7B83F82C20184B78
:106188001B6803F47F034FEA1343FB73FB7B9BB24B
:106198004FEA03239AB27B68DA85114B1B6803F434
:1061A8007F434FEA1323FB737B68DB8D9AB2FB7B3B
:1061B8009BB213439AB27B68DA85094B1B68FB7361
:1061C800FB7B4FEA03631A467B681A63044B5B68E0
:1061D8004FEA136306E000BF8C09002090090020F5
:1061E800A0090020FB737B681A6BFB7B4FEA034313
:1061F8001A437B681A63514B5B6803F47F034FEAC9
:106208001343FB737B681A6BFB7B4FEA03231A4328
:106218007B681A63494B5B6803F47F434FEA132397
:10622800FB737B681A6BFB7B1A437B681A63434BCF
:106238005B68FB737B68FA7B83F834203F4B9B6871
:106248004FEA1363FB737B68FA7B83F835203B4B7B
:106258009B6803F47F034FEA1343FB73FB7B4FEA0E
:1062680003631A467B689A63344B9B6803F47F4345
:106278004FEA1323FB737B689A6BFB7B4FEA03435C
:106288001A437B689A632D4B9B68FB737B689A6BF8
:10629800FB7B4FEA03231A437B689A63274BDB682F
:1062A8004FEA1363FB737B689A6BFB7B1A437B682B
:1062B8009A63224BDB6803F47F034FEA1343FB73B3
:1062C8007B6893F83C30DAB2FB7B4FEA1313DBB2FE
:1062D8001343DAB27B6883F83C20FB7B9BB203F064
:1062E8000F039BB24FEA03239AB27B68DA87134BFA
:1062F800DB6803F47F434FEA1323FB737B68DB8F70
:106308009AB2FB7B9BB213439AB27B68DA870B4B3A
:10631800DB68FB73FB7B4FEA5303DAB27B6883F8D5
:1063280040207B684FF0010283F84120BB7B184670
:1063380007F11407BD46B0BC704700BFA009002094
:1063480080B584B000AF78604FF00003FB73384B22
:106358001B68032B04D14FF02703FB73FB7B62E020
:10636800334B1B68002B07D0314B1B68012B03D024
:106378002F4B1B68022B55D17B68B3F5805F04D186
:106388004FF02703FB73FB7B4DE07B68B3F5006F91
:1063980024D14FF0010000F031FE0346FB73FB7B74
:1063A800002B3FD1234B4FF000021A75214B4FF0C1
:1063B80000021A601F4B4FF000025A601D4B4FF04D
:1063C80000029A601B4B4FF40062DA60194B4FF0E1
:1063D80000021A611748FBF7EFFB23E04FF00000BB
:1063E80000F00CFE0346FB73FB7B002B1AD1114B0C
:1063F8004FF000021A750F4B4FF000021A600D4B58
:106408004FF000025A600B4B4FF000029A60094BA4
:106418004FF00002DA60074B4FF000021A6105489E
:10642800FBF7CAFBFB7B184607F11007BD4680BD8A
:106438008C090020F841012080B584B000AF786055
:106448004FF00003FB73114B7A681A600F4B4FF043
:1064580007025A600D4B4FF040029A600B4B4FF009
:106468000002DA60094B4FF480621A610748FBF7B3
:10647800FDFB4FF0070000F0FDFB0346FB73FB7BC1
:10648800184607F11007BD4680BD00BF88410120AE
:1064980080B586B000AFF860B9607A603B604FF0B5
:1064A8000003FB754D4B4FF000021A704C4B4FF038
:1064B80000021A604B4B4FF001021A604A4B4FF032
:1064C8000002DA62494B1B68022B03D14FF40073B8
:1064D8007B6004E0BB687A6802FB03F3BB6040F2B0
:1064E8002A304FF00101FBF759FC4FF00100FBF790
:1064F80045FC3B687A6802FB03F3F868194600F02C
:10650800F9FF3B4B7A681A60394B4FF010025A601A
:10651800374B4FF040029A60354B4FF00002DA607B
:10652800334B4FF480621A613148FBF79FFB4FF001
:10653800100000F09FFB0346FB75FB7D002B05D088
:106548004FF00000FBF71AFCFB7D42E0294B4FF0AF
:10655800FF321A603B687A6802FB03F2254B5A60E7
:10656800244B4FF090029A60224B4FF00202DA60FF
:10657800204B4FF000021A611E4B4FF001025A6186
:106588001C48FBF7C1FB1A4BBA681A60184B4FF04E
:1065980012025A60164B4FF040029A60144B4FF0AB
:1065A8000002DA60124B4FF480621A611048FBF760
:1065B8005DFB4FF0120000F05DFB0346FB75FB7DB1
:1065C800002B05D04FF00000FBF7D8FBFB7D00E067
:1065D800FB7D184607F11807BD4680BDB8090020A5
:1065E800BC090020B4090020002C01408C090020BF
:1065F800884101201042012080B582B000AF4FF0E1
:106608000003FB714FF0FF333B6003E03B6803F18D
:10661800FF333B60244B1B68002B0BD1234B1B68BB
:10662800002B07D1224B1B78DBB2002B02D13B6831
:10663800002BEBD11C4B4FF000021A604FF0FF33D8
:106648003B6003E03B6803F1FF333B60194B5B6B36
:1066580003F40053002B02D03B68002BF2D1164BF9
:106668001B68012B03D100F08FF90346FB713B68CF
:10667800002B05D1FB79002B02D14FF00403FB71ED
:1066880040F2FF50FBF7C8FB094B1B78DBB2002B2D
:1066980003D0074B1B78DBB200E0FB79184607F103
:1066A8000807BD4680BD00BFC0090020BC09002006
:1066B800B8090020002C0140B409002080B586B03C
:1066C80000AFF860B9607A603B604FF00003FB757B
:1066D800744B4FF000021A70734B4FF000021A60AF
:1066E800724B4FF001021A60714B4FF00002DA62F0
:1066F800704B1B68022B03D14FF400737B6004E0DE
:10670800BB687A6802FB03F3BB6040F22A304FF0A3
:106718000101FBF743FB4FF00100FBF72FFB3B6840
:106728007A6802FB03F3F868194600F03FFF624BF2
:106738007A681A60604B4FF010025A605E4B4FF057
:1067480040029A605C4B4FF00002DA605A4B4FF4FB
:1067580080621A615848FBF789FA4FF0100000F080
:1067680089FA0346FB75FB7D002B05D04FF000002E
:10677800FBF704FBFB7D8FE0504B1B684FEA03429D
:106788004D4B1A604C4B4FF037025A604A4B4FF052
:1067980040029A60484B4FF00002DA60464B4FF4D3
:1067A80080621A614448FBF761FA4FF0370000F045
:1067B80061FA0346FB75FB7D002B05D04FF0000006
:1067C800FBF7DCFAFB7D67E03B4B3A681A603A4B13
:1067D8004FF017025A60384B4FF040029A60364B20
:1067E8004FF00002DA60344B4FF480621A6132488D
:1067F800FBF73CFA4FF0170000F03CFA0346FB7534
:10680800FB7D002B05D04FF00000FBF7B7FAFB7DAE
:1068180042E0294BBA681A60274B4FF019025A60B8
:10682800254B4FF040029A60234B4FF00002DA608C
:10683800214B4FF480621A611F48FBF717FA4FF09B
:10684800190000F017FA0346FB75FB7D002B05D0F5
:106858004FF00000FBF792FAFB7D1DE0184B4FF05C
:10686800FF321A603B687A6802FB03F2144B5A60E5
:10687800134B4FF090029A60114B4FF00002DA6010
:106888000F4B4FF000021A610D4B4FF001025A6195
:106898000B48FBF739FAFB7D184607F11807BD4688
:1068A80080BD00BFB8090020BC090020B409002041
:1068B800002C01408C09002088410120B0090020EB
:1068C8001042012080B582B000AF4FF00003FB7189
:1068D8004FF0FF333B6003E03B6803F1FF333B605D
:1068E800244B1B68002B0BD1234B1B68002B07D1B3
:1068F800224B1B78DBB2002B02D13B68002BEBD17B
:106908001C4B4FF000021A604FF0FF333B6003E06E
:106918003B6803F1FF333B60194B5B6B03F4805317
:10692800002B02D03B68002BF2D1164B1B68012BC1
:1069380003D100F029F80346FB713B68002B05D111
:10694800FB79002B02D14FF00403FB7140F2FF509A
:10695800FBF762FA094B1B78DBB2002B03D0074B1D
:106968001B78DBB200E0FB79184607F10807BD4643
:1069780080BD00BFC0090020BC090020B809002064
:10698800002C0140B409002080B582B000AF4FF060
:106998000003FB71114B4FF000021A600F4B4FF0D0
:1069A8000C025A600D4B4FF040029A600B4B4FF0AF
:1069B8000002DA60094B4FF480621A610748FBF75E
:1069C80055F94FF00C0000F055F90346FB71FB79BF
:1069D800184607F10807BD4680BD00BF8841012061
:1069E80080B584B000AF78604FF00003FB737B681C
:1069F800002B04D14FF02603FB73FB7B2BE0184BD5
:106A08001B684FEA0342174B1A60164B4FF00D02F2
:106A18005A60144B4FF040029A60124B4FF000023C
:106A2800DA60104B4FF480621A610E48FBF71EF9CA
:106A38004FF00D0000F01EF90346FB73FB7B002BA3
:106A480001D0FB7B07E04FF00000FBF747F9024657
:106A58007B681A60FB7B184607F11007BD4680BDAE
:106A6800B00900208841012080B500AF00F008F887
:106A780080BD00BF80B500AF00F076F880BD00BFD4
:106A880080B500AF4FF48070FBF7D4F90346002BB4
:106A98000CD0334B4FF000021A704FF48070FBF7A4
:106AA800E7F9304B4FF001021A604EE04FF0020058
:106AB800FBF7C0F90346002B08D04FF00200FBF7A4
:106AC800D7F9274B4FF002021A703EE04FF008004A
:106AD800FBF7B0F90346002B08D04FF00800FBF78E
:106AE800C7F91F4B4FF004021A702EE04FF0200038
:106AF800FBF7A0F90346002B08D04FF02000FBF766
:106B0800B7F9174B4FF006021A701EE04FF010004D
:106B1800FBF790F90346002B08D04FF01000FBF765
:106B2800A7F90F4B4FF005021A700EE04FF40070F2
:106B3800FBF780F90346002B07D04FF40070FBF7F2
:106B480097F9074B4FF007021A7040F22A304FF0BE
:106B58000001FBF723F9024B1B78DBB2184680BD16
:106B6800B8090020BC09002080B500AF074B1B689E
:106B780003F0C053002B08D0054B4FF001021A60F8
:106B880004484FF0C251FAF7A1FC80BD00640240EE
:106B9800C00900205864024080B582B000AF4FF0B1
:106BA8000003FB704FF480337B6003E07B6803F1E4
:106BB800FF337B607B68002B06D04FF08000FBF72B
:106BC8000DF90346002BF1D07B68002B04D14FF060
:106BD8000303FB70FB7804E040F2FF50FBF71CF95D
:106BE800FB78184607F10807BD4680BD80B584B01C
:106BF80000AF4FF00003FB714FF48033BB601C4BB8
:106C08005B6BFB6006E0BB6803F1FF33BB60184BAE
:106C18005B6BFB60FB6803F04503002B02D1BB688C
:106C2800002BF0D1BB68002B04D0FB6803F00403F1
:106C3800002B08D04FF00303FB714FF00400FBF763
:106C4800EBF8FB790EE0FB6803F04003002B08D05B
:106C58004FF00003FB714FF04000FBF7DDF8FB79C4
:106C680000E0FB79184607F11007BD4680BD00BF5C
:106C7800002C014080B586B000AF0346FB714FF091
:106C88000003FB746F4B5B6B7B6102E06D4B5B6BCE
:106C98007B617B6903F04503002BF7D07B6903F028
:106CA8000403002B08D04FF00303FB744FF00400DB
:106CB800FBF7B2F8FB7CBFE07B6903F00103002B14
:106CC80008D04FF00103FB744FF00100FBF7A4F864
:106CD800FB7CB1E0FAF7F6FF0346FA799A4204D052
:106CE8004FF01003FB74FB7CA6E040F2FF50FBF76B
:106CF80093F84FF00000FAF7F1FFF860FA68524B8A
:106D08001340002B01D1FB7C96E0FB68002B02DAD4
:106D18004FF01C0390E0FB6803F08043002B02D087
:106D28004FF0090388E0FB6803F00053002B02D002
:106D38004FF00A0380E0FB6803F08053002B02D079
:106D48004FF00B0378E0FB6803F00063002B02D0E0
:106D58004FF00C0370E0FB6803F08063002B02D057
:106D68004FF00D0368E0FB6803F08073002B02D03E
:106D78004FF00E0360E0FB6803F40003002B02D021
:106D88004FF00F0358E0FB6803F48003002B02D098
:106D98004FF0100350E0FB6803F40013002B02D0FF
:106DA8004FF0110348E0FB6803F48013002B02D076
:106DB8004FF0120340E0FB6803F40023002B02D0DD
:106DC8004FF0130338E0FB6803F48023002B02D054
:106DD8004FF0140330E0FB6803F40033002B02D0BB
:106DE8004FF0150328E0FB6803F48033002B02D032
:106DF8004FF0160320E0FB6803F40043002B02D099
:106E08004FF0170318E0FB6803F48043002B02D00F
:106E18004FF0180310E0FB6803F40053002B02D076
:106E28004FF0190308E0FB6803F00803002B02D0B9
:106E38004FF01A0300E0FB7C184607F11807BD461F
:106E480080BD00BF002C014008E0FFFD80B582B086
:106E580000AF4FF00003FB70114B5B6B7B6002E0EF
:106E68000F4B5B6B7B607B6803F04503002BF7D00F
:106E78007B6803F00403002B08D04FF00303FB707A
:106E88004FF00400FAF7C8FFFB7804E040F2FF5027
:106E9800FAF7C2FFFB78184607F10807BD4680BD20
:106EA800002C014080B582B000AF4FF00003FB70AA
:106EB800184B5B6B7B6002E0164B5B6B7B607B68FF
:106EC80003F04503002BF7D07B6803F00403002B85
:106ED80008D04FF00303FB704FF00400FAF79CFF53
:106EE800FB7812E07B6803F00103002B08D04FF019
:106EF8000103FB704FF00100FAF78EFFFB7804E006
:106F080040F2FF50FAF788FFFB78184607F10807A8
:106F1800BD4680BD002C014080B586B000AF034659
:106F28003960FB714FF00003FB74334B5B6B7B6183
:106F380002E0314B5B6B7B617B6903F04503002BFF
:106F4800F7D07B6903F00403002B08D04FF003034C
:106F5800FB744FF00400FAF75FFFFB7C47E07B69A6
:106F680003F00103002B08D04FF00103FB744FF02E
:106F78000100FAF751FFFB7C39E0FAF7A3FE03465C
:106F8800FA799A4204D04FF01003FB74FB7C2EE090
:106F980040F2FF50FAF740FF4FF00000FAF79EFE6C
:106FA800F860FB6803F46043002B07D1FB684FEAE5
:106FB80013439AB23B681A80FB7C18E0FB6803F421
:106FC8000053002B02D04FF0130310E0FB6803F4CA
:106FD8008043002B02D04FF0100308E0FB6803F455
:106FE8000043002B02D04FF00F0300E0FB7C184653
:106FF80007F11807BD4680BD002C014080B586B05A
:1070080000AF0346FB714FF00003FB754FF0000320
:10701800FB604FF000033B614FF00000FAF75EFEA3
:10702800034603F00073002B04D04FF00E03FB75EA
:10703800FB7DB5E05D4B1B689AB207F10C03104667
:10704800194600F0B7F80346FB75FB7D002B01D00D
:10705800FB7DA5E0FB79012B51D13B6903F480232B
:10706800002B47D0514B1B684FEA0342504B1A6024
:107078004F4B4FF037025A604D4B4FF040029A6029
:107088004B4B4FF00002DA60494B4FF480621A61B3
:107098004748FAF7EBFD4FF03700FFF7EBFD0346E3
:1070A800FB75FB7D002B01D0FB7D79E0404B4FF059
:1070B80002021A603E4B4FF006025A603C4B4FF0FA
:1070C80040029A603A4B4FF00002DA60384B4FF4B6
:1070D80080621A613648FAF7C9FD4FF00600FFF7DB
:1070E800C9FD0346FB75FB7D002B01D0FB7D57E0F6
:1070F800FB7D55E04FF02503FB75FB7D50E03B69B8
:1071080003F48033002B47D0284B1B684FEA034217
:10711800274B1A60264B4FF037025A60244B4FF02A
:1071280040029A60224B4FF00002DA60204B4FF485
:1071380080621A611E48FAF799FD4FF03700FFF791
:1071480099FD0346FB75FB7D002B01D0FB7D27E0F5
:10715800174B4FF000021A60154B4FF006025A60A9
:10716800134B4FF040029A60114B4FF00002DA6067
:107178000F4B4FF480621A610D48FAF777FD4FF014
:107188000600FFF777FD0346FB75FB7D002B01D05A
:10719800FB7D05E0FB7D03E04FF02503FB75FB7DE0
:1071A800184607F11807BD4680BD00BFB00900208A
:1071B8008841012090B587B000AF03463960FB8055
:1071C8004FF000037B614FF00003FB744FF00003A6
:1071D800BB604FF00003FB608B4B4FF008021A6056
:1071E800894B4FF010025A60874B4FF040029A606B
:1071F800854B4FF00002DA60834B4FF480621A61CE
:107208008148FAF733FD4FF01000FFF733FD0346CE
:10721800FB74FB7C002B01D0FB7CEFE07B4B1B68F5
:107228004FEA0342784B1A60774B4FF037025A60A7
:10723800754B4FF040029A60734B4FF00002DA60D2
:10724800714B4FF480621A616F48FAF70FFD4FF0E7
:107258003700FFF70FFD0346FB74FB7C002B01D0C2
:10726800FB7CCBE06A4B4FF0FF321A60684B4FF063
:1072780008025A60664B4FF030029A60644B4FF038
:107288000202DA60624B4FF000021A61604B4FF065
:1072980001025A615E48FAF737FD5B4B4FF0000276
:1072A8001A60594B4FF033025A60574B4FF0400267
:1072B8009A60554B4FF00002DA60534B4FF48062EE
:1072C8001A615148FAF7D2FC4FF03300FFF7D2FCAD
:1072D8000346FB74FB7C002B17D0FB7C8EE04FF43D
:1072E8000010FAF77BFD0346002B0FD07B694FEAAD
:1072F800830307F10802D418FAF734FD0346236024
:107308007B6903F101037B6100E000BF414B5A6BCD
:1073180040F22A631340002BE1D04FF00800FAF73F
:107328005DFD0346002B08D04FF00800FAF774FD06
:107338004FF00403FB74FB7C60E04FF00200FAF7A7
:107348004DFD0346002B08D04FF00200FAF764FD0C
:107358004FF00203FB74FB7C50E04FF02000FAF77B
:107368003DFD0346002B08D04FF02000FAF754FDEE
:107378004FF00603FB74FB7C40E04FF40070FAF713
:107388002DFD0346002B08D04FF40070FAF744FD9A
:107398004FF00703FB74FB7C30E040F2FF50FAF734
:1073A8003BFD3B6803F10403BA684FEA0261BA681F
:1073B80002F47F424FEA02221143BA6802F47F02C4
:1073C8004FEA12221143BA684FEA12620A431A605E
:1073D800FB684FEA0362FB6803F47F434FEA032329
:1073E8001A43FB6803F47F034FEA13231A43FB682D
:1073F8004FEA13631A433B681A60FB7C184607F18F
:107408001C07BD4690BD00BF88410120B00900207F
:1074180010420120002C014080B582B000AF4FF02F
:107428000C004FF00101FAF7F7FA30484FF0080165
:107438004FF00C02FAF7E0F92C484FF009014FF031
:107448000C02FAF7D9F929484FF00A014FF00C025B
:10745800FAF7D2F925484FF00B014FF00C02FAF772
:10746800CBF922484FF00C014FF00C02FAF7C4F99F
:107478001F484FF002014FF00C02FAF7BDF94FF424
:1074880070633B604FF001037B714FF002033B7167
:107498004FF00003BB714FF00103FB713B461348EB
:1074A8001946FAF7EFF84FF004033B603B461048E3
:1074B8001946FAF7E7F84FF480533B604FF00003A2
:1074C800FB713B4609481946FAF7DCF84FF40060AF
:1074D8004FF00101FAF700FB4FF480004FF0010173
:1074E800FAF79AFA07F10807BD4680BD000802407E
:1074F800000C024080B592B000AF7860396029482E
:107508004FF0FA51F9F7E2FF26484FF00001F9F77A
:10751800A7FF2448F9F772FE4FF00063FB60224B87
:107528003B617B687B614FF00003BB614FF0000358
:10753800FB614FF000033B624FF480637B624FF4C2
:107548008053BB624FF48043FB624FF000033B6300
:107558004FF440337B634FF00403BB634FF00303E6
:10756800FB634FF400033B644FF400137B6407F1A3
:107578000C030C481946F9F71BFF0A484FF0100195
:107588004FF00102F9F7D0FF06484FF02001F9F754
:1075980083FF04484FF00101F9F762FF07F148073C
:1075A800BD4680BD58640240802C014080B592B031
:1075B80000AF7860396029484FF0FA51F9F786FF33
:1075C80026484FF00001F9F74BFF2448F9F716FE5B
:1075D8004FF00063FB60224B3B617B687B614FF09F
:1075E8004003BB614FF00003FB614FF000033B62B7
:1075F8004FF480637B624FF48053BB624FF4804347
:10760800FB624FF000033B634FF480337B634FF022
:107618000403BB634FF00303FB634FF400033B64B5
:107628004FF400137B6407F10C030C481946F9F773
:10763800BFFE0A484FF010014FF00102F9F774FF3E
:1076480006484FF02001F9F727FF04484FF00101E1
:10765800F9F706FF07F14807BD4680BD58640240A8
:10766800802C014080B485B000AF78604FF00003F3
:10767800FB607B68DB684FF0FF325A607B68DB6831
:107688004FF0FF325A61FB6843F00043FB60FB6830
:1076980043F40063FB607B68DB68FA689A6107F172
:1076A8001407BD4680BC704780B586B000AF7860CF
:1076B8004FF00003FB744FF000037B614FF00003B1
:1076C800FB604FF00300FBF73FF87B68DB681B6942
:1076D800FB607B6903F101037B617A691A4B9A426B
:1076E80002D94FF0000329E0FB68C3F3C073DBB293
:1076F800002BE6D04FF000037B61FB6843F00103E9
:10770800FB607B68DB68FA681A617B68DB681B6969
:10771800FB607B6903F101037B617A690A4B9A423A
:1077280006D8FB68C3F30003DBB2012BEDD000E001
:1077380000BF4FF00300FBF707F8FB7C184607F182
:107748001807BD4680BD00BF400D030080B489B056
:1077580000AFF860B960FA71BB804FF00003FB76A8
:10776800FB68DB78002B2CD14FF000037B614FF0D6
:107778000003FB61BB8803F10303002B01DA03F16B
:1077880003034FEAA3037B61FB79FA6803F1320331
:107798004FEA8303D3189B683B614FF00003FB61FA
:1077A8000BE0BB681A683B691A60FB6903F10103C7
:1077B800FB61BB6803F10403BB60FA697B699A4209
:1077C800EFD3FB7E184607F12407BD4680BC7047FF
:1077D80080B489B000AFF860B9601346FB804FF001
:1077E8000003FB61FB8803F10303002B01DA03F1BB
:1077F80003034FEAA303BB61FB68D3F8D0307B6176
:107808004FF00003FB610BE07B691A68BB681A60E4
:10781800FB6903F10103FB61BB6803F10403BB606F
:10782800FA69BB699A42EFD3BB68184607F1240787
:10783800BD4680BC704700BF80B487B000AF786099
:107848000B46FB704FF000033B614FF00003FB73E6
:107858007B684FF00002DA707B684FF001029A7083
:107868007B684FF040029A80FB78012B17D14FF0CC
:10787800A0433B617B684FF00102DA727B684FF0EE
:1078880008021A707B684FF004025A707B684FF444
:10789800A072DA807B684FF002021A7214E0FB785B
:1078A800002B11D14F4B3B617B684FF00002DA721D
:1078B8007B684FF00C021A707B684FF006025A7012
:1078C8007B684FF4A062DA803A697B68DA603B69CA
:1078D80003F500631A467B681A614FF000037B6169
:1078E80023E07B694FEA43123B69D31803F5106321
:1078F8001A4679687B6903F104034FEA8303CB18BE
:107908009A607B694FEA43123B69D31803F53063E9
:107918001A4679687B6903F114034FEA8303CB188D
:107928005A607B6903F101037B617B685B781A46C7
:107938007B699A42D5D83B6903F580631A467B6810
:107948005A613B6903F588631A467B68C3F8CC2003
:107958004FF000037B6113E07B694FEA43123B69F8
:10796800D31803F5A0631A4679687B6903F12203EB
:107978004FEA8303CB189A607B6903F101037B61AB
:107988007B681B781A467B699A42E5D84FF000035A
:107998007B6113E07B694FEA03323B69D31803F537
:1079A80080531A4679687B6903F132034FEA8303EF
:1079B800CB189A607B6903F101037B617B681B78B4
:1079C8001A467B699A42E5D83B6903F560631A4613
:1079D8007B68C3F80C21FB7B184607F11C07BD46E2
:1079E80080BC70470000044080B588B000AF786064
:1079F8004FF00003FB774FF00003BB614FF000032B
:107A08007B614FF00003FB607B681B7A012B51D12F
:107A18007B68DB689B6B7B617B696FF310437B61E1
:107A28007B685B7A002B03D07B6943F480137B610E
:107A38007B68DB687A699A634FF00003BB617B68F7
:107A4800DB68DB68BB61BB696FF38613BB61BB692D
:107A58006FF39653BB61BB6943F01003BB61BB690D
:107A68006FF3C303BB61BB696FF3C713BB61BB692A
:107A78006FF35143BB61BB696FF3D343BB617B6851
:107A8800DB68BA69DA607868FFF70EFE7B68DB7836
:107A9800012B40F08980FB684FF0050262F3440334
:107AA800FB60FB6843F02003FB607B68DB68FA68D7
:107AB8009A6079E07B68DB68DB68BB61BB6943F08F
:107AC8004003BB617B68DB68BA69DA607868FFF7F6
:107AD800EBFD4FF000037B617B6943F480337B61EE
:107AE8007B681B7A032B03D17B6943F400337B61EA
:107AF8007B6943F480237B617B6943F400237B61CA
:107B08007B6943F400137B617B685B7A002B03D0AD
:107B18007B6943F480137B617B68DB687A699A63CD
:107B28004FF01400FAF73CFE7B68DB68DB68BB614A
:107B38007B681B7A032B03D1BB6943F48033BB6199
:107B48007B68DB68BA69DA607B681B7A032B2BD108
:107B58007B68DB681B6B3B613B694FF0010262F39A
:107B68009B633B613B696FF3D7533B613B6943F0D0
:107B780080533B613B694FF02D0262F316433B6132
:107B88007B68DB683A691A634FF0C800FAF708FEA9
:107B98003B6943F400033B617B68DB683A691A631D
:107BA8004FF0C800FAF7FCFD7B68DB78012B11D198
:107BB8007B68DB689B68FB60FB684FF0050262F33B
:107BC8004403FB60FB6843F02003FB607B68DB68D1
:107BD800FA689A60FB7F184607F12007BD4680BD0A
:107BE80080B485B000AF78604FF00003FB734FF0AE
:107BF8000003BB60BB6843F00103BB607B68DB68C4
:107C08007A68D2689168BA680A439A60FB7B18461A
:107C180007F11407BD4680BC704700BF80B485B02B
:107C280000AF78604FF00003FB734FF00003BB60B8
:107C3800BB6843F00103BB607B68DB687A68D26885
:107C48009168BA686FEA02020A409A60FB7B18469C
:107C580007F11407BD4680BC704700BF80B586B0E9
:107C680000AF786039604FF00003FB744FF00003F9
:107C78007B614FF00003FB60FB6843F02003FB606F
:107C88003B68DBB203F01F03DAB2FB6862F38A13C6
:107C9800FB607B68DB68FA681A617B68DB681B69D4
:107CA800FB607B6903F101037B617A690A4B9A42A5
:107CB80006D8FB68C3F34013DBB2012BEDD000E01C
:107CC80000BF4FF00300FAF73FFDFB7C184607F1B1
:107CD8001807BD4680BD00BF400D030080B586B0C3
:107CE80000AF78604FF00003FB744FF000037B6136
:107CF8004FF00003FB60FB6843F01003FB607B68F8
:107D0800DB68FA681A617B68DB681B69FB607B6962
:107D180003F101037B617A690A4B9A4206D8FB6832
:107D2800C3F30013DBB2012BEDD000E000BF4FF02E
:107D38000300FAF709FDFB7C184607F11807BD4652
:107D480080BD00BF400D030080B584B000AF7860EF
:107D58000B46FB704FF00003FB737B68DB68DB6846
:107D6800BB60BB686FF35D73BB60BB686FF39E73EA
:107D7800BB60FB78012B04D1BB6843F00053BB60A8
:107D880006E0FB78002B03D1BB6843F08043BB605F
:107D98007B68DB68BA68DA604FF03200FAF700FDFA
:107DA800FB7B184607F11007BD4680BD80B483B041
:107DB80000AF78607B68DB685B6903F001031846F5
:107DC80007F10C07BD4680BC704700BF80B582B084
:107DD80000AF78607868FFF7E9FF0346012B0CBF16
:107DE80000230123DBB2184607F10807BD4680BD12
:107DF80080B485B000AF78604FF00003FB607B680B
:107E0800DB685B69FB607B68DB689B69FA68134029
:107E1800FB60FB68184607F11407BD4680BC704735
:107E280080B485B000AF78600B46FB707B681B6937
:107E38001B68FB60FB7803F00303DAB2FB6862F3AC
:107E48000103FB607B681B69FA681A6007F1140775
:107E5800BD4680BC704700BF80B58CB000AF78606D
:107E68004FF0000387F82B304FF000037B624FF090
:107E780000033B624FF00003FB614FF00003BB615E
:107E88004FF000037B617B68D3F80C314FF00002A0
:107E98001A607B681B691B683B623B6A6FF3CC23E3
:107EA8003B627B681B693A6A1A607B68DB7A012B44
:107EB80045D178684FF00301FFF7B2FF7B68DB68B4
:107EC8004FF080025A62FB694FF0400262F31F4391
:107ED800FB61FB694FF0800262F30F03FB617B6873
:107EE800DB68FA699A62BA8BFB8BD3189BB23B8327
:107EF800BB694FF0800262F31F43BB617B68DB689C
:107F0800BA69C3F804213A8B7B8BD3189BB23B83A5
:107F1800BB696FF31F43BB617B68DB68BA69C3F851
:107F280008213A8B7B8BD3189BB23B83BB696FF3D9
:107F38001F43BB617B68DB68BA69C3F80C217868AA
:107F48004FF01001FFF78AFE7868FFF7C7FE7B68DD
:107F58001B694FF000021A617B681B694FF0000231
:107F68005A617B681B694FF0FF329A617B681B6915
:107F78004FF00002DA614FF00003FB6242E07A68DA
:107F8800FB6A03F104034FEA8303D3189B681B6859
:107F98007B627B6AC3F3C073DBB2002B0BD04FF05C
:107FA80000037B627B6A43F080437B627B6A43F019
:107FB80000637B6202E04FF000037B627A68FB6A31
:107FC80003F104034FEA8303D3189B687A6A1A60A3
:107FD8007A68FB6A03F104034FEA8303D3189B68AA
:107FE8004FF000021A617A68FB6A03F104034FEA52
:107FF8008303D3189B684FF0FF029A60FB6A03F172
:108008000103FB627B685B781A46FB6A9A42B6D822
:108018004FF00003FB6242E07A68FB6A03F1140345
:108028004FEA8303D3185B681B68FB60FB68C3F3E4
:10803800C073DBB2002B0BD04FF00003FB60FB6872
:1080480043F08043FB60FB6843F00063FB6002E0A1
:108058004FF00003FB607A68FB6A03F114034FEAF0
:108068008303D3185B68FA681A607A68FB6A03F1BD
:1080780014034FEA8303D3185B684FF000021A61B8
:108088007A68FB6A03F114034FEA8303D3185B6829
:108098004FF0FF029A60FB6A03F10103FB627B6801
:1080A8005B781A46FB6A9A42B6D84FF000037B61A8
:1080B8007B6943F480737B617B681B697A6812690A
:1080C80011697A696FEA020211407A690A431A61F2
:1080D8007B68DB78012B1ED14FF000033B613B69C5
:1080E80043F001033B613B6943F002033B613B6999
:1080F8004FF0400262F38A033B613B6943F48033EB
:108108003B613B694FF0400262F359433B617B6836
:108118001B693A691A63786800F008F897F82B30F9
:10812800184607F13007BD4680BD00BF80B584B052
:1081380000AF78604FF00003FB734FF00003BB60A3
:108148007B68DB684FF000029A617B68DB684FF060
:10815800FF325A617868FFF785FA7B68DB78002B75
:1081680003D1BB6843F01003BB60BB6843F40063F2
:10817800BB60BB6843F48053BB60BB6843F40053E7
:10818800BB60BB6843F48023BB60BB6843F4002337
:10819800BB60BB6843F00803BB60BB6843F4801353
:1081A800BB60BB6843F40013BB607B68DB687A681C
:1081B800D2689169BA686FEA02021140BA680A4344
:1081C8009A61FB7B184607F11007BD4680BD00BFCA
:1081D80080B485B000AF78604FF00003FB737B6814
:1081E8001B699B68BB60BB68C3F34103DBB2022B0E
:1081F8000BD0032B05D0012B03D04FF00303FB73E7
:1082080007E04FF00203FB7303E04FF00103FB7339
:1082180000BFFB7B184607F11407BD4680BC7047BA
:1082280080B487B000AF78604FF00003FB754FF063
:108238000003BB607B681B699B683B617B689B692B
:108248001B68FB603B69C3F34103DBB2022B04D01C
:10825800FB686FF30A03FB6006E0FB684FF003025C
:1082680062F30A03FB6000BF7B689B69FA681A60C7
:10827800BB6843F48073BB607B681B697A681269CA
:108288005168BA686FEA02021140BA680A435A6034
:10829800FB7D184607F11C07BD4680BC704700BF30
:1082A80080B487B000AF786039604FF00003FB748A
:1082B8004FF00003FB604FF00003BB603B685B7846
:1082C800012B12D13B681B787A6803F104034FEA4B
:1082D8008303D3189B687B613B681B784FF00102CE
:1082E80002FA03F39BB23B8114E03B681B787A687F
:1082F80003F114034FEA8303D3185B687B613B687F
:108308001B784FF0010202FA03F39AB2BB6862F3DA
:108318001F43BB607B691B68FB60FB68C3F3C0330A
:10832800DBB2002B29D13B689B689BB24FEA4353D1
:108338004FEA53539AB2FB6862F30A03FB603B6847
:10834800DB7803F00303DAB2FB6862F39343FB6064
:108358003B68DB88DBB203F00F03DAB2FB6862F339
:108368009953FB60FB6843F08053FB60FB6843F460
:108378000043FB60FA687B691A607B681B697A684E
:108388001269D169BA680A43DA61FB7C184607F1B9
:108398001C07BD4680BC704780B487B000AF7860CA
:1083A80039604FF00003FB744FF00003FB604FF09F
:1083B8000003BB603B685B78012B12D13B681B78DC
:1083C8007A6803F104034FEA8303D3189B687B613F
:1083D8003B681B784FF0010202FA03F39BB23B8122
:1083E80014E03B681B787A6803F114034FEA8303AF
:1083F800D3185B687B613B681B784FF0010202FA77
:1084080003F39AB2BB6862F31F43BB60FB686FF368
:10841800CF33FB60FA687B691A607B681B697A68EE
:108428001269D169BA686FEA02020A40DA61FB7C14
:10843800184607F11C07BD4680BC704780B588B058
:1084480000AF786039604FF00003FB774FF000030E
:10845800BB614FF000037B614FF000033B613B6859
:108468005B78012B40F0BD803B681B787A6803F18C
:1084780004034FEA8303D3189B681B687B613B683E
:108488001B787A6803F104034FEA8303D3189B68C7
:108498001B693B613B685B69002B0AD13B696FF341
:1084A80012033B613B694FF0010262F3DC433B611D
:1084B80028E03B685B6923F07F4222F478023B693D
:1084C80062F312033B613B685A693B689B68D318A7
:1084D80003F1FF323B689B68B2FBF3F39BB24FEAB0
:1084E80083534FEA93539AB23B6962F3DC433B618F
:1084F8003B68DB78012B05D13B694FF0010262F341
:108508005E733B613B681B787A6803F104034FEAAA
:108518008303D3189B683A691A617B68DB78012B5F
:108528000CD13B681B787A6803F104034FEA830394
:10853800D3189B683A6812695A6116E03B68DB7881
:10854800012B12D03B685B69002B0ED03B681B786F
:108558004FF0010202FA03F3BB617B681B697A687A
:108568001269516BBA690A435A633B68DB78012B7D
:1085780014D17B681B699B68FB60FB68C3F30D2300
:108588009BB203F00103002B04D17B6943F0005335
:108598007B6103E07B6943F080537B617B6943F037
:1085A80080637B617B6943F000437B613B681B7898
:1085B8007A6803F104034FEA8303D3189B687A6946
:1085C8001A603B68DB78012B40F09A803B68D968D9
:1085D8003B681A783B685B699BB27868FFF7B6F826
:1085E8008EE03B681B787A6803F114034FEA830333
:1085F800D3185B681B687B613B681B787A6803F15A
:1086080014034FEA8303D3185B681B693B613B681B
:108618005B69002B10D13B689B6823F07F4222F4F2
:1086280078023B6962F312033B613B694FF0010238
:1086380062F3DC433B6124E03B685A693B689B6812
:10864800D31803F1FF323B689B68B2FBF3F39BB28C
:108658004FEA83534FEA93539AB23B6962F3DC4380
:108668003B613B69C3F3C9439BB23A68926802FB1A
:1086780003F323F07F4222F478023B6962F312038A
:108688003B613B681B787A6803F114034FEA830364
:10869800D3185B683A691A617B68DB78012B0BD1C8
:1086A8003B681B787A6803F114034FEA8303D318F5
:1086B8005B683A6812695A613B68DB78012B0CD118
:1086C8003B685B79002B04D07B6943F000537B61E6
:1086D80003E07B6943F080537B617B6943F08063EF
:1086E8007B617B6943F000437B613B681B787A6858
:1086F80003F114034FEA8303D3185B687A691A609D
:10870800FB7F184607F12007BD4680BD80B489B0BD
:1087180000AF786039604FF00003FB774FF000033B
:10872800BB614FF000033B614FF00003BB603B6847
:108738005B78012B75D17B689B697B617B691B68C2
:108748003B617B691B69BB603B685B69002B0AD195
:108758003B7A6FF306033B72BB7A4FF0010262F378
:10876800C403BB7224E03B685A693B689B689A4221
:108778000ED93B689A683B685A613B689B68DBB2D4
:1087880003F07F03DAB23B7A62F306033B7209E037
:108798003B685B69DBB203F07F03DAB23B7A62F3D2
:1087A80006033B72BB7A4FF0010262F3C403BB724B
:1087B800BA687B691A617B68DB78012B0BD13B684F
:1087C8001B787A6803F104034FEA8303D3189B6884
:1087D8003A6812695A613B6943F080633B613B69BF
:1087E80043F000433B613A697B691A607B68DB7838
:1087F800002B40F083803B685B69002B7ED03B6890
:108808001B784FF0010202FA03F3BA691343BB6104
:108818007B681B697A681269516BBA690A435A63A3
:108828006CE03B681B787A6803F114034FEA830312
:10883800D3185B681B683B613B681B787A6803F157
:1088480014034FEA8303D3185B681B69BB603B685A
:108858005B69002B10D13B689B68DBB203F07F0398
:10886800DAB23B7A62F306033B72BB7A4FF001023D
:1088780062F3C403BB7213E03B689A683B685A61B1
:108888003B689B68DBB203F07F03DAB23B7A62F3A2
:1088980006033B72BB7A4FF0010262F3C403BB725A
:1088A8003B681B787A6803F114034FEA8303D318F3
:1088B8005B68BA681A617B68DB78012B0BD13B686F
:1088C8001B787A6803F114034FEA8303D3185B68B3
:1088D8003A6812695A613B6943F080633B613B69BE
:1088E80043F000433B613B681B787A6803F114034B
:1088F8004FEA8303D3185B683A691A60FB7F18460E
:1089080007F12407BD4680BC704700BF80B487B01C
:1089180000AF786039604FF00003FB754FF000033B
:10892800FB603B685B78012B1ED13B681B787A683B
:1089380003F104034FEA8303D3189B683B613B6947
:108948001B68FB60FB68C3F3C073DBB2002B03D06A
:10895800FB6843F08043FB60FB6843F40013FB6053
:10896800FA683B691A6013E03B681B787A6803F180
:1089780014034FEA8303D3185B683B613B691B68A8
:10898800FB60FB6843F40013FB60FA683B691A60FC
:10899800FB7D184607F11C07BD4680BC704700BF29
:1089A80080B487B000AF786039604FF00003FB7483
:1089B8004FF00003FB603B685B78012B0AD13B68F2
:1089C8001B787A6803F104034FEA8303D3189B6882
:1089D8007B6109E03B681B787A6803F114034FEA6E
:1089E8008303D3185B687B617B691B68FB60FB684A
:1089F8006FF35553FB603B68DB78032B03D03B6870
:108A0800DB78022B03D1FB6843F08053FB60FA68E4
:108A18007B691A60FB7C184607F11C07BD4680BCC1
:108A2800704700BF80B485B000AF78607B681B6971
:108A38009B69FB607B681B69DB69FA681340FB6014
:108A4800FB684FEA1343184607F11407BD4680BC7C
:108A5800704700BF80B485B000AF78600B46FB70EC
:108A6800FB787A6803F114034FEA8303D3185B6831
:108A78009B68FB607B681B695B69FA681340FB6055
:108A8800FB68184607F11407BD4680BC704700BF55
:108A980080B485B000AF78607B681B699B69FB6018
:108AA8007B681B69DB69FA681340FB60FB684FEA67
:108AB80003434FEA1343184607F11407BD4680BC29
:108AC800704700BF80B487B000AF78604FF00003F4
:108AD8003B61FB7C43F0C003FB74BB7C4FF001029D
:108AE80062F3C403BB743B7C4FF0180262F30603C5
:108AF8003B747B685B6D3A691A617B68DB78012B94
:108B080017D14FF00003FB607B685B6D7A6802F554
:108B1800B9625A617B685B6D1B68FB60FB6843F058
:108B28000043FB604FF08023FB607B685B6DFA6855
:108B38001A6007F11C07BD4680BC704780B584B039
:108B480000AF78600B46FB70FB7878681946FEF733
:108B580073FE7B684FF0010283F812217B684FF0A7
:108B6800000283F813214FF00003FB602BE0FA6842
:108B780013464FEA83039B184FEAC30303F58C732C
:108B88007A68D318BB60BB684FF001025A70FB6863
:108B9800DAB2BB681A70FB689AB2BB68DA80BB6845
:108BA8004FF00002DA70BB684FF040029A60BB6871
:108BB8004FF00002DA60BB684FF000025A61FB68B0
:108BC80003F10103FB607B685B781A46FB689A42F5
:108BD800CDD84FF00003FB602BE0FA6813464FEA4C
:108BE80083039B184FEAC30303F55C737A68D318B1
:108BF800BB60BB684FF000025A70FB68DAB2BB6812
:108C08001A70FB689AB2BB68DA80BB684FF0000242
:108C1800DA70BB684FF040029A60BB684FF0000200
:108C2800DA60BB684FF000025A61FB6803F1010388
:108C3800FB607B685B781A46FB689A42CDD87868F7
:108C4800FEF7ECFF7868FEF7CFFE78684FF000017A
:108C5800FFF77AF87868FFF7FFF87868FEF7C0FF43
:108C680007F11007BD4680BD80B584B000AF7860BD
:108C7800F9703A80BB70FB785BB2002B0EDAFB7898
:108C880003F07F0213464FEA83039B184FEAC3039E
:108C980003F58C737A68D318FB600DE0FB7803F05A
:108CA8007F0213464FEA83039B184FEAC30303F579
:108CB8005C737A68D318FB60FB7803F07F03DAB241
:108CC800FB681A70FB784FEAD313DBB21A46FB68CD
:108CD8005A703A88FB689A60FB68BA78DA70FB6861
:108CE8005B78002B04D0FB681B781A46FB68DA8097
:108CF800BB78022B03D1FB684FF000021A71786829
:108D0800F968FFF7CDFA4FF00003184607F110078E
:108D1800BD4680BD80B584B000AF78600B46FB705F
:108D2800FB785BB2002B0EDAFB7803F07F02134668
:108D38004FEA83039B184FEAC30303F58C737A68E1
:108D4800D318FB600DE0FB7803F07F0213464FEA6F
:108D580083039B184FEAC30303F55C737A68D3183F
:108D6800FB60FB7803F07F03DAB2FB681A70FB78CC
:108D78004FEAD313DBB21A46FB685A707868F96871
:108D8800FFF70AFB4FF00003184607F11007BD462E
:108D980080BD00BF80B586B000AFF8607A600A4633
:108DA800FA723B81FB7A03F07F0213464FEA830392
:108DB8009B184FEAC30303F55C73FA68D3187B6109
:108DC8007B697A68DA603A897B695A617B694FF016
:108DD80000029A617B694FF000025A70FB7A03F037
:108DE8007F03DAB27B691A70FB68DB78012B02D14A
:108DF8007A687B691A617B691B78002B04D1F86853
:108E08007969FFF783FC03E0F8687969FFF716FBD7
:108E18004FF00003184607F11807BD4680BD00BF94
:108E280080B586B000AFF8607A603B600B46FB7295
:108E3800FB7A03F07F0213464FEA83039B184FEA3D
:108E4800C30303F58C73FA68D3187B617B694FF011
:108E580001025A70FB7A03F07F03DAB27B691A7059
:108E68007B697A68DA607A687B691A617B694FF096
:108E780000029A617B693A685A617B691B78002B0A
:108E880004D1F8687969FFF741FC03E0F86879696B
:108E9800FFF7D4FA4FF00003184607F11807BD464C
:108EA80080BD00BF80B584B000AF78600B46FB7012
:108EB800FB785BB2002B0EDAFB7803F07F021346D7
:108EC8004FEA83039B184FEAC30303F58C737A6850
:108ED800D318FB600BE0FA7813464FEA83039B181C
:108EE8004FEAC30303F55C737A68D318FB60FB6829
:108EF8004FF001029A70FB7803F07F03DAB2FB6847
:108F08001A70FB784FEAD313DBB21A46FB685A7023
:108F18007868F968FFF7FAFC4FF00003184607F184
:108F28001007BD4680BD00BF80B584B000AF786033
:108F38000B46FB70FB785BB2002B0EDAFB7803F074
:108F48007F0213464FEA83039B184FEAC30303F5D6
:108F58008C737A68D318FB600BE0FA7813464FEAF3
:108F680083039B184FEAC30303F55C737A68D3182D
:108F7800FB60FB684FF000029A70FB7803F07F03F8
:108F8800DAB2FB681A70FB784FEAD313DBB21A46E1
:108F9800FB685A707868F968FFF702FD4FF0000324
:108FA800184607F11007BD4680BD00BF80B485B0E4
:108FB80000AF78600B46FB704FF00003FB60FB7856
:108FC80003F07F03DAB2FB6862F30A13FB607B6885
:108FD8001B697A6812691168FA680A431A6007F10E
:108FE8001407BD4680BC704780B586B000AF786076
:108FF8004FF000037B617868FEF7E8FE0346002B1C
:1090080000F09E807868FEF7F3FE03463B613B69FB
:10901800002B02D14FF0000393E03B69C3F3C04338
:10902800DBB2002B06D0786800F03CFA03467A6978
:1090380013437B613B69C3F38043DBB2002B06D04B
:10904800786800F019F903467A6913437B613B6934
:10905800C3F34003DBB2002B0AD04FF00003FB60E0
:10906800FB6843F00203FB607B68DB68FA685A61BF
:109078003B69C3F3C073DBB2002B06D0786800F0FD
:1090880065F803467A6913437B613B69C3F3C023E0
:10909800DBB2002B06D0786800F09CF803467A69AA
:1090A80013437B613B69C3F3C003DBB2002B06D0DB
:1090B800786800F0CBFA03467A6913437B613B6911
:1090C800C3F30013DBB2002B06D0786800F0DCFA9B
:1090D80003467A6913437B613B69C3F30033DBB210
:1090E800002B06D0786800F0D9FB03467A69134351
:1090F8007B613B69C3F34033DBB2002B06D0786851
:1091080000F082FC03467A6913437B613B69C3F331
:109118000053DBB2002B06D0786800F0B9FC034698
:109128007A6913437B613B69C3F34053DBB2002B7D
:1091380006D0786800F0CAFC03467A6913437B615D
:109148007B69184607F11807BD4680BD80B586B013
:1091580000AF78607B689B7A002B11D07B6803F5A1
:1091680086731B68FB60FB686FF34103FB60FB6859
:109178006FF30003FB607B68D3F80C31FA681A6060
:109188004FF000033B613B6943F001033B617B689F
:109198001B697A68126951683A696FEA02020A40E3
:1091A8005A600B4B1B689B69786898474FF000031F
:1091B8007B617B6943F000437B617B68DB687A698C
:1091C8005A614FF00103184607F11807BD4680BDE4
:1091D8009805002080B586B000AF7860244B1B68E6
:1091E8005B69786898477B681B699B68FB604FF0F0
:1091F80000037B617B6943F400637B617B68DB6808
:109208007A695A617B689B7A002B2AD0FB68C3F382
:109218000003DBB2012B24D14FF000033B613B6913
:1092280043F001033B617B68D3F80C317A68D2F8CC
:109238000C2111683A690A431A603B6943F002033A
:109248003B617B68D3F80C317A68D2F80C2111683D
:109258003A690A431A60074B064A126942F0060245
:109268001A614FF00103184607F11807BD4680BD83
:109278009805002000ED00E080B586B000AF78606A
:109288004FF000033B614FF00003BB607868FFF7C5
:10929800FFFB7861F8E07B6903F00103002B00F025
:1092A800EB803B69DBB27868194600F02DFC034679
:1092B800BB60BB68C3F30003DBB2002B37D03B694C
:1092C8004FF0010202FA03F3FB607B681B697A68BE
:1092D8001269516BFA686FEA02020A405A634FF04A
:1092E8000003BB60BB6843F00103BB607A683B695D
:1092F80003F104034FEA8303D3189B68BA689A60A2
:10930800674B1B685B683A69D2B278681146984720
:109318007B68DB78012B0AD13B69002B07D17B687E
:1093280093F81131042B02D17868FFF7CBFBBB68A7
:10933800C3F38003DBB2002B10D04FF00003BB60F7
:10934800BB6843F00403BB607A683B6903F104031C
:109358004FEA8303D3189B68BA689A60BB68C3F363
:10936800C003DBB2002B10D04FF00003BB60BB681A
:1093780043F00803BB607A683B6903F104034FEAD2
:109388008303D3189B68BA689A60BB68C3F3001359
:10939800DBB2002B10D04FF00003BB60BB6843F07A
:1093A8001003BB607A683B6903F104034FEA830347
:1093B800D3189B68BA689A60BB68C3F34013DBB2E2
:1093C800002B10D04FF00003BB60BB6843F02003B4
:1093D800BB607A683B6903F104034FEA8303D3183F
:1093E8009B68BA689A60BB68C3F38013DBB2002B32
:1093F80010D04FF00003BB60BB6843F04003BB6074
:109408007A683B6903F104034FEA8303D3189B6826
:10941800BA689A60BB68C3F34003DBB2002B10D074
:109428004FF00003BB60BB6843F00203BB607A687F
:109438003B6903F104034FEA8303D3189B68BA68B6
:109448009A60BB68C3F3C013DBB2002B14D07868F2
:10945800396900F0A3F94FF00003BB60BB6843F023
:109468008003BB607A683B6903F104034FEA830316
:10947800D3189B68BA689A603B6903F101033B61A2
:109488007B694FEA53037B617B69002B7FF403AF51
:109498004FF00103184607F11807BD4680BD00BF0D
:1094A8009805002080B586B000AF78604FF00003C3
:1094B8003B614FF00003FB607868FFF7B3FA78610F
:1094C800B7E07B6903F00103002B00F0AA803B6939
:1094D800DBB278681946FFF7BDFA0346FB60FB6804
:1094E800C3F30003DBB2002B51D04FF00003FB6045
:1094F800FB6843F00103FB607A683B6903F11403DE
:109508004FEA8303D3185B68FA689A607B68DB7854
:10951800012B25D17A683B6903F114034FEA8303D1
:10952800D3185B681B69BB6079683A6913464FEAD0
:1095380083039B184FEAC303CB1803F55E731A68BD
:10954800BB68C3F31203D11A78683A6913464FEA25
:1095580083039B184FEAC303C31803F562731960AA
:10956800394B1B681B683A69D2B27868114698472C
:109578007B68DB78012B0AD13B69002B07D17B681C
:1095880093F81131052B02D17868FFF79BFAFB6835
:10959800C3F34003DBB2002B10D04FF00003FB6095
:1095A800FB6843F00203FB607A683B6903F114032C
:1095B8004FEA8303D3185B68FA689A60FB68C3F3C1
:1095C8008003DBB2002B10D04FF00003FB60FB6878
:1095D80043F00403FB607A683B6903F114034FEA24
:1095E8008303D3185B68FA689A60FB68C3F3C00307
:1095F800DBB2002B15D0144B1B689B687868984722
:109608004FF00003FB60FB6843F00803FB607A68D7
:109618003B6903F114034FEA8303D3185B68FA68C4
:109628009A603B6903F101033B617B694FEA53038D
:109638007B617B69002B7FF444AF4FF00103184630
:1096480007F11807BD4680BD9805002080B584B095
:1096580000AF78600B4B1B68DB68786898474FF061
:109668000003FB60FB6843F00803FB607B68DB6872
:10967800FA685A614FF00103184607F11007BD4612
:1096880080BD00BF9805002080B586B000AF786027
:109698004FF000033B613B6943F010033B617B687B
:1096A800DB687A68D26891693A696FEA02020A400F
:1096B8009A617B68DB681B6AFB60FB68C3F3030382
:1096C800DBB21A4613464FEA83039B184FEAC303DB
:1096D80003F55C737A68D3187B61FB68C3F3434373
:1096E800DBB203F1FF33052B45D801A252F823F072
:1096F8007F970008119700087F9700087F97000858
:109708007F97000859970008FB68C3F30A139BB2B8
:10971800002B32D07B69DA68FB68C3F30A139BB26B
:10972800786811461A46FEF753F87B69DA68FB68D1
:10973800C3F30A139BB2D2187B69DA607B699A6912
:10974800FB68C3F30A139BB2D2187B699A6114E0D1
:109758007B6803F5B963786819464FF00802FEF78D
:1097680037F87B699A69FB68C3F30A139BB2D2186E
:109778007B699A6102E000BF00E000BF7B68DB689C
:109788007A68D26891693A690A439A614FF001038D
:10979800184607F11807BD4680BD00BF80B586B0E2
:1097A80000AF786039604FF000037B614FF0000331
:1097B800BB603A6813464FEA83039B184FEAC3031A
:1097C80003F58C737A68D318FB60FB685A69FB68E9
:1097D8009B69D31A7B61FB689A687B699A4202D2BB
:1097E800FB689B687B617B6903F103034FEA930382
:1097F8003B617A683B6803F104034FEA8303D3189B
:109808009B689B69BB6032E0FB685A69FB689B698F
:10981800D31A7B61FB689A687B699A4202D2FB681B
:109828009B687B617B6903F103034FEA93033B6108
:10983800FB68D9683B68DAB27B699BB27868FDF748
:1098480085FFFB68DA687B69D218FB68DA60FB6819
:109858009A697B69D218FB689A617A683B6803F158
:1098680004034FEA8303D3189B689B69BB603B8959
:109878001A463B699A4209D9FB689A69FB685B6991
:109888009A4203D2FB685B69002BBDD14FF00103FC
:10989800184607F11807BD4680BD00BF80B58AB0DD
:1098A80000AF78604FF000033B614FF000033B626C
:1098B8004FF00003FB614FF00003BB614FF0000362
:1098C8007B614FF00003FB603B6943F001033B61A0
:1098D8007B681B697A68126951683A696FEA020203
:1098E8000A405A6078684FF00001FEF7B7F94FF068
:1098F80000037B6219E07A687B6A03F104034FEA8C
:109908008303D3189B684FF0FF029A607A687B6ADA
:1099180003F114034FEA8303D3185B684FF0FF0287
:109928009A607B6A03F101037B627B685B781A4665
:109938007B6A9A42DFD87B681B694FF0FF329A61D5
:109948003B6A4FF0010262F30F033B623B6A4FF040
:10995800010262F31F433B627B681B693A6ADA6162
:10996800FB6943F00803FB61FB6943F00103FB61FA
:10997800FB6943F00403FB61FB6943F00203FB61ED
:109988007B681B69FA695A61BB6943F00103BB61D3
:10999800BB6943F00803BB61BB6943F00203BB61C9
:1099A800BB6943F00403BB61BB6943F02003BB619F
:1099B8007B681B69BA691A617B681B691B687B61D4
:1099C8007B696FF30A137B617B681B697A691A608C
:1099D8007868FFF777F84FF00003FB60FB6843F403
:1099E8008053FB607B68DB68FA685A61054B1B682B
:1099F8001B69786898474FF00103184607F1280754
:109A0800BD4680BD9805002080B584B000AF786061
:109A18007868FEF705FC7B68DB68DB68BB60786804
:109A2800FEF7D6FB0346032B0ED17B684FF00002EE
:109A38009A707B684FF400729A80BB684FF00902F5
:109A480062F38D23BB600DE07B684FF001029A70D2
:109A58007B684FF040029A80BB684FF0050262F3C2
:109A68008D23BB607B68DB68BA68DA604FF000035F
:109A7800FB60FB6843F40053FB607B68DB68FA68B3
:109A88005A614FF00103184607F11007BD4680BD23
:109A980080B584B000AF78604FF00003FB600A4BDC
:109AA8001B68DB6978689847FB6843F48013FB60A0
:109AB8007B68DB68FA685A614FF00103184607F1C2
:109AC8001007BD4680BD00BF9805002080B584B052
:109AD80000AF78604FF00003FB600A4B1B681B6AFD
:109AE80078689847FB6843F40013FB607B68DB6881
:109AF800FA685A614FF00103184607F11007BD468E
:109B080080BD00BF9805002080B487B000AF7860A2
:109B18000B46FB707B681B691B697B617B681B6953
:109B28005B6B3B61FB783A6922FA03F34FEAC31394
:109B3800DBB27A6913437B61FB787A6803F104032B
:109B48004FEA8303D3189B689A687B691340FB60CC
:109B5800FB68184607F11C07BD4680BC704700BF6C
:109B680080B584B000AFF8607A603B600B46FB724A
:109B7800F868F8F75FFDF86800F01EF8FB683A68C7
:109B8800C3F8E025FB68BA69C3F8E425FB687A687E
:109B9800C3F8E825FB7AF8681946FEF7CFFFFB689B
:109BA800D3F8E4351B689847F868F8F7AFFD07F174
:109BB8001007BD4680BD00BF80B483B000AF786099
:109BC8004FF00003184607F10C07BD4680BC7047EC
:109BD80080B584B000AF786007F10803786819464B
:109BE80000F09EFE3B7A03F01F03012B0AD0022BE4
:109BF8000FD0002B14D107F108037868194600F03C
:109C080089FA16E007F108037868194600F0D4FAD3
:109C18000FE007F108037868194600F003FB08E035
:109C28003B7A23F07F03DBB278681946FFF73AF9ED
:109C380000BF4FF00003184607F11007BD4680BD6E
:109C480080B584B000AF78600B46FB70FB78002BC2
:109C580045D17B6803F55C73FB607B6893F8113131
:109C6800032B4FD1FB68DA69FB689B689A4221D9BC
:109C7800FB68DA69FB689B68D21AFB68DA617B6863
:109C8800DB78012B06D1FB68DA68FB689B68D21881
:109C9800FB68DA60FB68DA68FB689968FB68DB696F
:109CA800994238BF0B469BB2786811461A4600F0B5
:109CB800DDF927E07B68D3F8E0351B69002B0AD073
:109CC8007B6893F81231032B05D17B68D3F8E03514
:109CD8001B6978689847786800F0E0F912E07B68BB
:109CE800D3F8E0359B69002B0CD07B6893F81231D0
:109CF800032B07D17B68D3F8E0359B69FA7878683D
:109D0800114698474FF00003184607F11007BD4663
:109D180080BD00BF80B584B000AF78600B46FB7093
:109D2800FB78002B63D17B6803F58C73FB607B6841
:109D380093F81131022B6ED1FB68DA69FB689B68D6
:109D48009A421CD9FB68DA69FB689B68D21AFB68DF
:109D5800DA617B68DB78012B06D1FB68DA68FB687F
:109D68009B68D218FB68DA60FB68DA68FB68DB6915
:109D78009BB2786811461A4600F03CF94BE0FB6844
:109D88001B6AFA689268B3FBF2F102FB01F29B1AB4
:109D9800002B17D1FB681A6AFB689B689A4211D39B
:109DA800FB681A6AFB685B6A9A420BD278684FF0C4
:109DB80000014FF0000200F01DF9FB684FF00002AF
:109DC8005A6229E07B68D3F8E035DB68002B0AD0BB
:109DD8007B6893F81231032B05D17B68D3F8E03503
:109DE800DB6878689847786800F076F913E07B6854
:109DF800D3F8E0355B69002B0ED07B6893F81231FD
:109E0800032B09D17B68D3F8E0355B69FA78786869
:109E18001146984700E000BF4FF00003184607F1CD
:109E28001007BD4680BD00BF80B582B000AF786026
:109E380078684FF000014FF040024FF00003FEF742
:109E480013FF78684FF080014FF040024FF0000395
:109E5800FEF70AFF7B684FF0010283F812217B6846
:109E6800D3F8E4355B687A689278104698474FF0E3
:109E78000003184607F10807BD4680BD80B582B0CB
:109E880000AF78607B68D3F8E4351B6998477B6836
:109E98004FF0030283F812214FF00003184607F130
:109EA8000807BD4680BD00BF80B582B000AF7860AE
:109EB8007B684FF0040283F812217B68D3F8E435FD
:109EC800DB6898474FF00003184607F10807BD46BE
:109ED80080BD00BF80B582B000AF78607B68D3F8E2
:109EE800E035DB69002B05D07B68D3F8E035DB690A
:109EF800786898474FF00003184607F10807BD46F1
:109F080080BD00BF80B582B000AF78600B46FB70A3
:109F18007B68D3F8E0351B68FA787868114698476B
:109F28007B68D3F8E4359B6898474FF000031846E0
:109F380007F10807BD4680BD80B582B000AF7860E4
:109F48000B46FB707B68D3F8E0355B68FA78786875
:109F5800114698474FF00003184607F10807BD4619
:109F680080BD00BF80B582B000AF78607B68D3F851
:109F7800E0351B6A786898474FF00003184607F1E8
:109F88000807BD4680BD00BF80B582B000AF7860CD
:109F98007B68D3F8E0355B6A786898474FF0000330
:109FA800184607F10807BD4680BD00BF80B586B0DA
:109FB80000AFF860B9601346FB804FF00003FB75F3
:109FC800FA88FB68C3F83821FA88FB68C3F834219B
:109FD800FB684FF0020283F81121FB88F8684FF004
:109FE8000001BA68FEF71CFFFB7D184607F1180749
:109FF800BD4680BD80B586B000AFF860B960134635
:10A00800FB804FF00003FB75FB88F8684FF00001F8
:10A01800BA68FEF705FFFB7D184607F11807BD462D
:10A0280080BD00BF80B586B000AFF860B960134648
:10A03800FB804FF00003FB75FA88FB68C3F8902398
:10A04800FA88FB68C3F88C23FB684FF0030283F897
:10A058001121FB88F8684FF00001BA68FEF79AFEF4
:10A06800FB7D184607F11807BD4680BD80B586B050
:10A0780000AFF860B9601346FB804FF00003FB7532
:10A08800FB88F8684FF00001BA68FEF783FEFB7D95
:10A09800184607F11807BD4680BD00BF80B584B0DB
:10A0A80000AF78604FF00003FB737B684FF0040249
:10A0B80083F8112178684FF000014FF000024FF04B
:10A0C8000003FEF7ADFE7868FEF7FCFCFB7B184644
:10A0D80007F11007BD4680BD80B584B000AF786039
:10A0E8004FF00003FB737B684FF0050283F81121E2
:10A0F80078684FF000014FF000024FF00003FEF7C0
:10A1080049FE7868FEF7DEFCFB7B184607F110076E
:10A11800BD4680BD80B584B000AF786039604FF02F
:10A128000003FB733B685B78092B3AD801A252F80D
:10A1380023F000BF8DA10008A1A10008ABA1000871
:10A1480097A10008ABA100086FA1000865A100084D
:10A15800ABA1000883A1000879A1000878683968D4
:10A1680000F044F922E07868396800F023FA1DE02D
:10A178007868396800F05EFA18E07868396800F0A5
:10A18800D5FA13E07868396800F002FB0EE07868C9
:10A19800396800F029FB09E07868396800F094FB19
:10A1A80004E07868396800F005FC00BFFB7B1846BE
:10A1B80007F11007BD4680BD80B584B000AF786058
:10A1C80039604FF00003FB737B6893F81231032B5F
:10A1D8001BD13B689B88DBB2012B11D87B68D3F875
:10A1E800E0359B687868396898473B68DB88002BBE
:10A1F80010D1FB7B002B0DD17868FFF74FFF09E0EA
:10A208007868396800F0D6FB04E07868396800F0AF
:10A21800D1FB00E000BFFB7B184607F11007BD46E5
:10A2280080BD00BF80B584B000AF786039604FF062
:10A238000003FB733B689B88BB733B685B78012B0F
:10A2480039D0032B02D0002B6CD0C6E07B6893F882
:10A258001231022B02D0032B0CD025E0BB7B002B44
:10A2680027D0BB7B802B24D0BB7B78681946FEF7B0
:10A2780019FE1EE03B685B88002B0AD1BB7B002BD4
:10A2880007D0BB7B802B04D0BB7B78681946FEF7D0
:10A2980009FE7B68D3F8E0359B6878683968984789
:10A2A8007868FFF7FBFE05E07868396800F082FB04
:10A2B80000E000BF92E07B6893F81231022B02D0D5
:10A2C800032B0CD025E0BB7B002B27D0BB7B802B3E
:10A2D80024D0BB7B78681946FEF7E4FD1EE03B6896
:10A2E8005B88002B1CD1BB7B002B0ED0BB7B802B4B
:10A2F8000BD0BB7B78681946FEF716FE7B68D3F84F
:10A30800E0359B687868396898477868FFF7C6FE33
:10A3180006E07868396800F04DFB02E000BF00E015
:10A3280000BF5BE07B6893F81231022B02D0032B4D
:10A338000CD04BE0BB7B002B4DD0BB7B802B4AD095
:10A34800BB7B78681946FEF7ADFD44E0BB7B5BB28A
:10A35800002B19DABB7B03F07F02796813464FEABA
:10A3680083039B184FEAC303CB1803F58C739B78C0
:10A37800002B04D01C4B4FF001021A601FE01A4B4F
:10A388004FF000021A601AE0BB7B5BB2002B16DBB1
:10A39800BA7B796813464FEA83039B184FEAC303D5
:10A3A800CB1803F55C739B78002B04D00E4B4FF051
:10A3B80001021A6003E00C4B4FF000021A60786843
:10A3C80009494FF00202FFF7F1FD05E078683968A6
:10A3D80000F0F0FA00E000BF00E000BFFB7B184689
:10A3E80007F11007BD4680BDC409002080B584B0C0
:10A3F80000AF786039603B685B884FEA13239BB2F3
:10A4080003F1FF33062B00F2B58001A252F823F0C6
:10A4180035A4000869A4000897A400087DA50008D1
:10A428007DA5000869A5000873A500087B68D3F816
:10A43800E8351B687A68917807F10A0208461146E0
:10A448009847F8603B68DB88402B05D07B6893F819
:10A458001231012B40F093804FF008037B818EE08E
:10A468007B68D3F8E0359B6A7A68917807F10A022D
:10A47800084611469847F860FB6803F101034FF05E
:10A4880002021A707B68FA68C3F8EC2578E03B682A
:10A498005B88DBB2052B5DD801A252F823F000BF20
:10A4A800C1A40008DBA40008F5A400080FA5000853
:10A4B80029A5000843A500087B68D3F8E8355B6840
:10A4C8007A68917807F10A02084611469847F860B9
:10A4D80045E07B68D3F8E8359B687A68917807F19E
:10A4E8000A02084611469847F86038E07B68D3F8B6
:10A4F800E835DB687A68917807F10A020846114660
:10A508009847F8602BE07B68D3F8E8351B697A68D0
:10A51800917807F10A02084611469847F8601EE04C
:10A528007B68D3F8E8355B697A68917807F10A02A5
:10A53800084611469847F86011E07B68D3F8E8357B
:10A548009B697A68917807F10A020846114698478C
:10A55800F86004E07868396800F02CFA25E00FE02C
:10A568007868396800F026FA1FE07868396800F0E2
:10A5780021FA1AE07868396800F01CFA15E000BF83
:10A588007B89002B11D03B68DB88002B0DD03B6802
:10A59800DA887B899A4238BF13469BB27B817B89D4
:10A5A8007868F9681A46FFF701FD07F11007BD46FC
:10A5B80080BD00BF80B584B000AF786039603B686B
:10A5C8009B88002B2ED13B68DB88002B2AD13B6867
:10A5D8005B88DBB203F07F03FB737B6893F812316F
:10A5E800032B04D17868396800F0E4F91EE07B6831
:10A5F800FA7B83F81321FB7B78681946FEF7D6FCB3
:10A608007868FFF74BFDFB7B002B05D07B684FF08C
:10A61800020283F8122109E07B684FF0010283F8F7
:10A62800122103E07868396800F0C4F907F11007CF
:10A63800BD4680BD80B582B000AF786039603B68A8
:10A648005B88DAB2384B1A70374B1B78012B04D968
:10A658007868396800F0AEF961E07B6893F81231E8
:10A66800022B02D0032B1CD054E02F4B1B78002B5D
:10A6780013D02D4B1A787B6883F810217B684FF034
:10A68800030283F81221284B1B7878681946FFF7D4
:10A6980039FC7868FFF702FD41E07868FFF7FEFCB7
:10A6A8003DE0214B1B78002B13D17B684FF0020251
:10A6B80083F812211C4B1A787B6883F810211A4BF7
:10A6C8001B7878681946FFF737FC7868FFF7E6FCCF
:10A6D80025E07B6893F81021134B1B789A4215D01C
:10A6E8007B6893F8103178681946FFF725FC0E4B04
:10A6F8001A787B6883F810210B4B1B787868194609
:10A70800FFF700FC7868FFF7C9FC08E07868FFF7F6
:10A71800C5FC04E07868396800F04CF900BF07F11F
:10A728000807BD4680BD00BFD009002080B582B0B3
:10A7380000AF786039603B68DB88012B04D078680B
:10A74800396800F037F91DE07B6893F81231022B65
:10A7580002D0032B07D010E078680C494FF00102B3
:10A76800FFF724FC0EE07B6803F5887378681946C8
:10A778004FF00102FFF71AFC04E07868396800F02E
:10A7880019F900BF07F10807BD4680BDC8090020B8
:10A7980080B582B000AF786039607B6893F8123179
:10A7A800A3F10203012B14D87B68D3F81431002BD2
:10A7B80004D00C4B4FF003021A6003E0094B4FF032
:10A7C80001021A60786807494FF00102FFF7EEFBB3
:10A7D80004E07868396800F0EDF800BF07F1080771
:10A7E800BD4680BDCC09002080B584B000AF78603C
:10A7F80039604FF00003FB733B685B88012B0FD176
:10A808007B684FF00102C3F814217B68D3F8E03568
:10A818009B687868396898477868FFF73FFC4FE08D
:10A828003B685B88022B4BD13B689B88DBB2002BD3
:10A8380046D17B681B695B68BB603B689B884FEAB5
:10A8480013239BB2FB73FB7B03F1FF33042B30D83C
:10A8580001A252F823F000BF75A8000883A80008D9
:10A8680091A800089FA80008ADA80008BB684FF091
:10A87800010262F30613BB601BE0BB684FF00202E3
:10A8880062F30613BB6014E0BB684FF0030262F387
:10A898000613BB600DE0BB684FF0040262F30613B9
:10A8A800BB6006E0BB684FF0050262F30613BB60AD
:10A8B80000BF7B681B69BA685A607868FFF7EEFBCF
:10A8C80007F11007BD4680BD80B582B000AF786043
:10A8D80039607B6893F81231A3F10203012B13D876
:10A8E8003B685B88012B15D17B684FF00002C3F8E9
:10A8F80014217B68D3F8E0359B68786839689847F5
:10A908007868FFF7CBFB05E07868396800F052F803
:10A9180000BF00E000BF07F10807BD4680BD00BFCB
:10A9280080B483B000AF786039607B6893F8C8253D
:10A938003B681A707B6893F8C9253B685A707B6836
:10A9480093F8CA351A467B6893F8CB354FEA032348
:10A958009BB2D3189AB23B685A807B6893F8CC357F
:10A968001A467B6893F8CD354FEA03239BB2D31878
:10A978009AB23B689A807B6893F8CE351A467B6812
:10A9880093F8CF354FEA03239BB2D3189AB23B68AA
:10A99800DA803B68DB881A467B68C3F83C217B6811
:10A9A8004FF0010283F8112107F10C07BD4680BC66
:10A9B800704700BF80B582B000AF786039603B68EF
:10A9C8001B78DBB25BB2002B05DA78684FF08001A8
:10A9D800FEF768FA0EE03B68DB88002B05D1786843
:10A9E8004FF08001FEF75EFA04E078684FF000014E
:10A9F800FEF758FA7868FEF765F807F10807BD46CC
:10AA080080BD00BF80B586B000AFF860B9607A60DD
:10AA18004FF00003FB75FB68002B3DD0F86800F091
:10AA28003FF8034603F101039BB24FEA43039AB28E
:10AA38007B681A80FB7DBA68D3187A681288D2B20C
:10AA48001A70FB7D03F10103FB75FB7DBA68D3180F
:10AA58004FF003021A70FB7D03F10103FB7517E049
:10AA6800FB7DBA68D318FA6812781A70FB7D03F177
:10AA78000103FB75FB6803F10103FB60FB7DBA680A
:10AA8800D3184FF000021A70FB7D03F10103FB7528
:10AA9800FB681B78002BE3D107F11807BD4680BD82
:10AAA80080B485B000AF78604FF00003FB7307E017
:10AAB800FB7B03F10103FB737B6803F101037B60FC
:10AAC8007B681B78002BF3D1FB7B184607F1140732
:10AAD800BD4680BC704700BF80B584B000AF7860C9
:10AAE8000B46FB707B68D3F8EC3503F139031B8800
:10AAF80078684FF081011A464FF00203FEF7B4F868
:10AB08007B68D3F8EC3503F140031B8878684FF075
:10AB180001011A464FF00203FEF7A6F878684FF0D5
:10AB280082014FF008024FF00303FEF79DF8124B25
:10AB3800FB60FB6803F104034FF002021A70FB6824
:10AB480003F105034FF000021A700C4B1B6898477D
:10AB58007B68D3F8EC3503F140031B8878684FF025
:10AB68000101074AFEF716F94FF00003184607F1EE
:10AB78001007BD4680BD00BF38050020180600201C
:10AB8800A042012080B582B000AF78600B46FB7010
:10AB980078684FF08101FEF7BDF878684FF0010141
:10ABA800FEF7B8F878684FF08201FEF7B3F8054B66
:10ABB8005B6898474FF00003184607F10807BD4641
:10ABC80080BD00BF1806002080B584B000AF786053
:10ABD80039603B681B7803F06003002B43D0202BBF
:10ABE8003AD13B68DB88002B29D03B681B78DBB265
:10ABF8005BB2002B11DA3A4B9B683A6852781146DF
:10AC08003A68D2880846374998473B68DB887868AD
:10AC180034491A46FFF7CAF91BE03B685B781A46C5
:10AC2800314B1A603B68DB881A46304B1A603B6828
:10AC3800DB8878682B491A46FFF7F4F909E0284BB6
:10AC48009B683A68527810464FF000014FF00002B6
:10AC580098474FF000033EE078683968FFF7AAFE8E
:10AC68004FF0020337E03B685B780A2B19D00B2BB7
:10AC78001ED0062B2DD13B685B884FEA13239BB26D
:10AC8800212B07D11A4BBB603B68DB883A2B28BFC6
:10AC98003A23FB81FB897868B9681A46FFF786F979
:10ACA80017E0786813494FF00102FFF77FF910E0C9
:10ACB8003B685B88DBB2002B06D13B685B88DBB264
:10ACC8001A460C4B1A6003E078683968FFF772FE81
:10ACD80000BF4FF00003184607F11007BD4680BDBE
:10ACE80018060020E0420120E0050020E8090020C5
:10ACF800AE050020D409002080B582B000AF78608E
:10AD08000B4B1B68FF2B0CD00A4B9B68084A116839
:10AD1800094A1268084609499847054B4FF0FF024F
:10AD28001A604FF00003184607F10807BD4680BDBA
:10AD3800E005002018060020E8090020E042012074
:10AD480080B584B000AF78600B46FB702C4B1B7845
:10AD5800012B4ED12B4B1B68002B04D1284B4FF0F5
:10AD680000021A7045E07B68D3F8EC3503F139032B
:10AD78001B881A46234B1B689A4220D2224B1B6819
:10AD8800FB817B68D3F8EC35B3F83930BB817B683D
:10AD9800D3F8EC3503F139031B881A461A4B1B68A4
:10ADA800D218194B1A60174B1A687B68D3F8EC3520
:10ADB80003F139031B88D21A124B1A6010E0124BA8
:10ADC8001B68FB810F4B1B68BB810F4B1A680D4B2F
:10ADD8001B68D2180C4B1A600A4B4FF000021A601D
:10ADE800FA890A4BD218BB8978684FF08101FEF7BF
:10ADF80017F84FF00003184607F11007BD4680BD4D
:10AE0800E4090020E0090020DC090020E8420120D4
:10AE180080B584B000AF78600B46FB70FA7879682B
:10AE280013464FEA83039B184FEAC303CB1803F575
:10AE380062731B68FB810C4B1B69FA890B4811462E
:10AE480098477B68D3F8EC3503F140031B88786892
:10AE58004FF00101054AFDF79DFF4FF0000318462A
:10AE680007F11007BD4680BD18060020A04201204A
:10AE780080B582B000AF78600D4B1B68052B14BFFE
:10AE880000220122D2B203F10101094B1960002A04
:10AE980006D0074B4FF000021A60786800F00AF8F5
:10AEA8004FF00003184607F10807BD4680BD00BFF4
:10AEB800EC09002080B584B000AF78603C4B1B786B
:10AEC800012B71D03B4B1B68B3F5006F03D1394B95
:10AED8004FF000021A60374B1A68374B1B689A42CA
:10AEE80004D1334B4FF000021A705DE0314B1A6801
:10AEF800314B1B689A4206D92E4B1B68C3F500627A
:10AF08002E4B1A6006E02C4B1A682A4B1B68D21A83
:10AF18002A4B1A607B68D3F8EC3503F139031B8898
:10AF28001A46264B1B689A4220D2224B1B68FB818B
:10AF38007B68D3F8EC35B3F83930BB817B68D3F83C
:10AF4800EC3503F139031B881A461A4B1B68D218D3
:10AF5800184B1A60194B1A687B68D3F8EC3503F163
:10AF680039031B88D21A154B1A6010E0114B1B6865
:10AF7800FB81124B1B68BB810E4B1A680F4B1B6879
:10AF8800D2180C4B1A600D4B4FF000021A60084B98
:10AF98004FF001021A70FA89094BD218BB897868F8
:10AFA8004FF08101FDF73CFF07F11007BD4680BD5A
:10AFB800E4090020DC090020D8090020E00900206D
:10AFC800E842012080B483B000AF03463960FB71CA
:10AFD8003B684FF043021A80034B184607F10C07F1
:10AFE800BD4680BC704700BF9C05002080B400AF00
:10AFF8004FF000031846BD4680BC704780B400AFD0
:10B008004FF000031846BD4680BC704780B485B039
:10B0180000AFF860B9607A60FB68232B7DD801A285
:10B0280052F823F023B1000823B1000823B1000827
:10B0380023B1000823B1000823B1000823B1000898
:10B0480023B1000823B1000823B1000823B1000888
:10B0580023B1000823B1000823B1000823B1000878
:10B0680023B1000823B1000823B1000823B1000868
:10B0780023B1000823B1000823B1000823B1000858
:10B0880023B1000823B1000823B1000823B1000848
:10B0980023B1000823B1000823B1000823B1000838
:10B0A80023B1000823B10008BDB0000823B100088F
:10B0B80023B100081D4B1B68DAB2BB681A70BB6865
:10B0C80003F10103194A12684FEA1222D2B21A7028
:10B0D800BB6803F10203154A12684FEA1242D2B262
:10B0E8001A70BB6803F10303104A12684FEA126230
:10B0F800D2B21A70BB6803F104030C4A12791A70B1
:10B10800BB6803F10503094A52791A70BB6803F159
:10B118000603064A92791A7000E000BF4FF0000358
:10B12800184607F11407BD4680BC7047100600207A
:10B1380080B485B000AF786039604FF00003FB60E1
:10B148001AE0134B1B687968FA688A181178114A53
:10B15800D1540F4B1B6803F101020D4B1A60FB68B9
:10B1680003F10103FB600A4B1B68B3F5006F03D1C1
:10B17800074B4FF000021A60FA683B689A42E0D326
:10B188004FF00003184607F11407BD4680BC70470E
:10B19800D8090020E842012080B485B000AF78606B
:10B1A80039604FF00003FB6022E0174B1B68796899
:10B1B800FA688A181178154AD154134B1B6803F1A1
:10B1C8000102114B1A60104B1B68802B03D10E4BE8
:10B1D8004FF000021A600C4B1A680D4B1B689A421C
:10B1E80002D14FF0020309E0FB6803F10103FB60A1
:10B1F800FA683B689A42D8D34FF00003184607F123
:10B208001407BD4680BC70477C4B0120E84A0120EA
:10B21800684B012080B485B000AF7860404B1A6855
:10B22800404B1B689A4219D14FF0000371E03D4B27
:10B238001B6803F101023B4B1A603A4B1B68802BD9
:10B2480003D1384B4FF000021A60354B1A68354B62
:10B258001B689A4203D14FF000035AE000BF314BFC
:10B268001B68314AD35C002BE1D02E4B1B682E4A59
:10B27800D35C332BDBD04FF00003FB60FB687A68AC
:10B28800D318F968274A12688A1827498A5C1A70FD
:10B29800FB6803F10103FB60224B1A68FB68D318B3
:10B2A800802B04D11F4B1B68C3F10003FB601D4BAF
:10B2B8001A68FB68D2181A4B1B689A4202D14FF0E1
:10B2C800000326E0174B1A68FB68D318164AD35CAC
:10B2D800002B07D0134B1A68FB68D318124AD35CAB
:10B2E800332BCBD1FB687A68D3184FF000021A7061
:10B2F8000C4B1A68FB68D2180A4B1A60094B1B687A
:10B308007F2B05D9074B1B68A3F18002054B1A60F8
:10B31800FB68184607F11407BD4680BC704700BF9C
:10B328007C4B0120684B0120E84A012080B485B09D
:10B3380000AFF860B9607A60FB68A3F10403FB60B2
:10B34800FB684FF080721A60FB68A3F10403FB608E
:10B35800BA68FB681A60FB68A3F10403FB600E4A35
:10B36800FB681A60FB68A3F11403FB607A68FB684A
:10B378001A60FB68A3F10403FB60FB686FF002022C
:10B388001A60FB68A3F12003FB60FB68184607F10D
:10B398001407BD4680BC7047A5B3000880B500AF50
:10B3A800054B1B68B3F1FF3F02D000F0D1F8FEE770
:10B3B80000F0CEF8FEE700BF2C060020064B196807
:10B3C8000868B0E8F04F80F30988BFF36F8F4FF03B
:10B3D800000080F3118870470C360120054800688A
:10B3E800006880F3088862B6BFF34F8FBFF36F8F92
:10B3F80000DF00BF08ED00E080B584B000AF304B3F
:10B40800FB60FB681B78DBB2BB60FB684FF0FF0298
:10B418001A70FB681B78DBB2FB71FB79DBB203F0B7
:10B428005003DAB2274B1A70274B4FF007021A6005
:10B438000BE0254B1B6803F1FF32234B1A60FB79A5
:10B44800DBB24FEA4303DBB2FB71FB79DBB2DBB261
:10B458005BB2002BEDDB1C4B1B684FEA03221A4B37
:10B468001A60194B1B6803F4E062174B1A60BB683B
:10B47800DAB2FB681A70154B144A126842F470026B
:10B488001A60124B114A126842F070421A6000F0BA
:10B49800ADF80F4B4FF000021A6000F0C3F80D4BE7
:10B4A8000C4A126842F040421A60FFF797FFFFF714
:10B4B80075FF4FF00003184607F11007BD4680BD21
:10B4C80000E400E0F0090020F409002020ED00E08D
:10B4D8002C06002034EF00E080B400AF054B4FF09D
:10B4E80080521A60BFF34F8FBFF36F8FBD4680BC89
:10B4F800704700BF04ED00E080B500AF00F028F809
:10B50800054B1B6803F10102034B1A60BFF34F8F11
:10B51800BFF36F8F80BD00BF2C06002080B500AF41
:10B528000A4B1B68002B02D100F012F8FEE7074B0C
:10B538001B6803F1FF32054B1A60044B1B68002B94
:10B5480003D14FF0000000F00DF880BD2C0600205C
:10B55800EFF311804FF0500181F3118870474FF0DD
:10B568000003184680F31188704700BFEFF3098085
:10B57800BFF36F8F124B1A681EF0100F08BF20ED33
:10B58800108A20E9F04F10604DF8043D4FF050004C
:10B5980080F3118801F010FA4FF0000080F3118851
:10B5A80008BC19680868B0E8F04F1EF0100F08BF13
:10B5B800B0EC108A80F30988BFF36F8F704700BF23
:10B5C8000C36012080B500AFFFF7C2FF01F02AF961
:10B5D8000346002B03D0044B4FF080521A604FF003
:10B5E8000000FFF7BFFF80BD04ED00E080B400AFAE
:10B5F800084B094A1168094AA2FB01024FEA921254
:10B6080002F1FF321A60064B4FF007021A60BD467E
:10B6180080BC704714E000E018050020D34D62108C
:10B6280010E000E0DFF80C00016841F470010160EF
:10B638007047000088ED00E090B583B000AFEFF3ED
:10B6480005847C607B680F2B0DD90E4B1A687B68CC
:10B65800D3181B78FB700C4B1B78FA789A4202D2ED
:10B66800FFF776FFFEE7094B1B6803F4E062084B1F
:10B678001B689A4202D9FFF76BFFFEE707F10C0738
:10B68800BD4690BD18F20008F00900200CED00E05E
:10B69800F409002080B588B000AF78604FF000034F
:10B6A8007B6101F00DF8414B1B68002B05D100F0C0
:10B6B800C7F83E4B4FF001021A607B68002B0FD091
:10B6C8003B4B1B887A68D3187B607B6803F00703C1
:10B6D800002B05D07B6823F0070303F108037B6088
:10B6E8007B68002B59D07A68324B9A4255D8324B36
:10B6F800BB61314B1B68FB6104E0FB69BB61FB6903
:10B708001B68FB61FB695A687B689A4203D2FB6934
:10B718001B68002BF1D1FA69284B9A423DD0BB69CE
:10B728001A68234B1B88D3187B61FB691A68BB69AD
:10B738001A60FB695A687B68D21A1D4B1B884FEA4E
:10B7480043039A4222D9FA697B68D318FB60FB69E4
:10B758005A687B68D21AFB685A60FB697A685A6033
:10B76800FB685B68BB60144B3B6102E03B691B688C
:10B778003B613B691B685A68BB689A42F6D33B69D0
:10B788001A68FB681A603B69FA681A600C4B1A68F9
:10B79800FB695B68D21A0A4B1A6000F09FFF7B694D
:10B7A800184607F12007BD4680BD00BF08360120B6
:10B7B8001CF20008F72B0100F835012000360120A3
:10B7C8003006002080B586B000AF78607B683B61AA
:10B7D8007B68002B29D0174B1B88C3F100033A69FB
:10B7E800D3183B613B69FB6000F06AFFFB685B684C
:10B7F800BB60114B7B6102E07B691B687B617B69E5
:10B808001B685A68BB689A42F6D37B691A68FB685A
:10B818001A607B69FA681A60FB685A68074B1B68EC
:10B82800D218064B1A6000F059FF07F11807BD46F9
:10B8380080BD00BF1CF20008F8350120300600204A
:10B8480080B483B000AF0F4B23F007037B600E4B2F
:10B858007A681A600C4B4FF000025A600B4B0C4A86
:10B868005A600A4B4FF000021A607B683B603B68E5
:10B87800074A5A603B68054A1A6007F10C07BD463B
:10B8880080BC7047000A0020F835012000360120EE
:10B89800F82B010080B483B000AF78607B6803F1B7
:10B8A80008027B685A607B684FF0FF329A607B68B9
:10B8B80003F108027B68DA607B6803F108027B68A1
:10B8C8001A617B684FF000021A6007F10C07BD4649
:10B8D80080BC704780B483B000AF78607B684FF05D
:10B8E80000021A6107F10C07BD4680BC704700BF13
:10B8F80080B485B000AF786039607B685B68FB60B6
:10B908003B68FA685A60FB689A683B689A60FB680B
:10B918009B683A685A60FB683A689A603B687A683C
:10B928001A617B681B6803F101027B681A6007F1E2
:10B938001407BD4680BC704780B485B000AF7860FE
:10B9480039603B681B68BB60BB68B3F1FF3F03D13C
:10B958007B681B69FB600DE07B6803F10803FB60F3
:10B9680002E0FB685B68FB60FB685B681A68BB68A1
:10B978009A42F6D9FB685A683B685A603B685B682C
:10B988003A689A603B68FA689A60FB683A685A6055
:10B998003B687A681A617B681B6803F101027B685F
:10B9A8001A6007F11407BD4680BC704780B485B0A3
:10B9B80000AF78607B681B69FB607B685B687A68AE
:10B9C80092689A607B689B687A6852685A60FB68DC
:10B9D8005A687B689A4203D17B689A68FB685A6008
:10B9E8007B684FF000021A61FB681B6803F1FF32A5
:10B9F800FB681A60FB681B68184607F11407BD4608
:10BA080080BC704780B584B000AF786039607B68CF
:10BA1800FB60FB68002B02D1FFF79AFDFEE7FFF7FA
:10BA28006BFDFB681A68FB68DB6BF968096C01FB46
:10BA380003F3D218FB685A60FB684FF000029A6360
:10BA4800FB681A68FB689A60FB681A68FB68DB6B1E
:10BA580003F1FF33F968096C01FB03F3D218FB68A3
:10BA6800DA60FB684FF0FF325A64FB684FF0FF3230
:10BA78009A643B68002B0FD1FB681B69002B17D019
:10BA8800FB6803F11003184601F054F80346012B34
:10BA98000ED1FFF721FD0BE0FB6803F110031846F8
:10BAA800FFF7F8FEFB6803F124031846FFF7F2FEE0
:10BAB800FFF734FD4FF00103184607F11007BD46A4
:10BAC80080BD00BF80B588B000AFF860B96013468C
:10BAD800FB714FF00003FB61FB68002B29D04FF08E
:10BAE8004C00FFF7D7FDB861BB69002B21D0FB687C
:10BAF800BA6802FB03F303F101037B617869FFF77E
:10BB0800C9FD0246BB691A60BB691B68002B0DD0D2
:10BB1800BB69FA68DA63BB69BA681A64B8694FF036
:10BB28000101FFF76FFFBB69FB6102E0B869FFF72E
:10BB380049FEFB69002B02D1FFF70AFDFEE7FB690E
:10BB4800184607F12007BD4680BD00BF80B588B004
:10BB580000AFF860B9607A603B604FF00003FB61AA
:10BB6800FB68BB61BB69002B02D1FFF7F1FCFEE764
:10BB7800BB68002B03D1BB691B6C002B02D14FF0B3
:10BB8800010301E04FF00003002B02D1FFF7E0FCB6
:10BB9800FEE73B68022B03D1BB69DB6B012B02D1AB
:10BBA8004FF0010301E04FF00003002B02D1FFF733
:10BBB800CFFCFEE701F02EFA0346002B02D17B688A
:10BBC800002B02D14FF0010301E04FF00003002BDE
:10BBD80003D1FFF7BDFCFEE700BFFFF78DFCBB6993
:10BBE8009A6BBB69DB6B9A4202D33B68022B18D174
:10BBF800B869B9683A6800F0D9F9BB695B6A002B83
:10BC08000AD0BB6903F12403184600F093FF0346EA
:10BC1800012B01D1FFF760FCFFF780FC4FF0010317
:10BC28005DE07B68002B04D1FFF778FC4FF0000340
:10BC380055E0FB69002B07D107F11003184600F007
:10BC4800DFFF4FF00103FB61FFF768FC00F038FDF0
:10BC5800FFF752FCBB695B6CB3F1FF3F03D1BB69D3
:10BC68004FF000025A64BB699B6CB3F1FF3F03D1EC
:10BC7800BB694FF000029A64FFF750FC07F110020D
:10BC880007F104031046194600F0D4FF0346002BC1
:10BC98001ED1B86900F08AFA0346002B12D0BB699E
:10BCA80003F110027B681046194600F0DFFEB86900
:10BCB80000F012FA00F012FD0346002B8CD1FFF7BA
:10BCC8000BFC89E7B86900F007FA00F007FD83E785
:10BCD800B86900F001FA00F001FD4FF000031846C2
:10BCE80007F12007BD4680BD80B588B000AFF86079
:10BCF800B9607A603B60FB68BB61BB69002B02D10D
:10BD0800FFF726FCFEE7BB68002B03D1BB691B6C61
:10BD1800002B02D14FF0010301E04FF00003002B8C
:10BD280002D1FFF715FCFEE73B68022B03D1BB6984
:10BD3800DB6B012B02D14FF0010301E04FF0000350
:10BD4800002B02D1FFF704FCFEE7FFF775FCFFF7B5
:10BD5800FFFB7861BB699A6BBB69DB6B9A4202D3C4
:10BD68003B68022B28D1B869B9683A6800F01EF917
:10BD7800BB699B6CB3F1FF3F14D1BB695B6A002BB5
:10BD880016D0BB6903F12403184600F0D3FE03461E
:10BD9800002B0DD07B68002B0AD07B684FF0010286
:10BDA8001A6005E0BB699B6C03F10102BB699A64E8
:10BDB8004FF00103FB6102E04FF00003FB6178697B
:10BDC800FFF7D0FBFB69184607F12007BD4680BD89
:10BDD80080B58AB000AFF860B9607A603B604FF018
:10BDE80000037B62FB683B623B6A002B02D1FFF7D2
:10BDF800AFFBFEE7BB68002B03D13B6A1B6C002B33
:10BE080002D14FF0010301E04FF00003002B02D1F3
:10BE1800FFF79EFBFEE701F0FDF80346002B02D179
:10BE28007B68002B02D14FF0010301E04FF00003C3
:10BE3800002B03D1FFF78CFBFEE700BFFFF75CFB8D
:10BE48003B6A9B6B002B3FD03B6ADB68FB61386A1F
:10BE5800B96800F019F93B68002B1ED13B6A9B6B4F
:10BE680003F1FF323B6A9A633B6A1B68002B04D1DB
:10BE780001F0C0F802463B6A5A603B6A1B69002B16
:10BE88001DD03B6A03F11003184600F053FE034629
:10BE9800012B14D1FFF720FB11E03B6AFA69DA6045
:10BEA8003B6A5B6A002B0AD03B6A03F124031846FD
:10BEB80000F040FE0346002B01D0FFF70DFBFFF713
:10BEC8002DFB4FF001036BE07B68002B04D1FFF7DB
:10BED80025FB4FF0000363E07B6A002B07D107F1D5
:10BEE8001403184600F08CFE4FF001037B62FFF745
:10BEF80015FB00F0E5FBFFF7FFFA3B6A5B6CB3F15B
:10BF0800FF3F03D13B6A4FF000025A643B6A9B6CC7
:10BF1800B3F1FF3F03D13B6A4FF000029A64FFF789
:10BF2800FDFA07F1140207F104031046194600F060
:10BF380081FE0346002B2CD1386A00F01DF9034618
:10BF4800002B20D03B6A1B68002B08D1FFF7D4FADE
:10BF58003B6A5B68184601F07FF8FFF7DFFA3B6A37
:10BF680003F124027B681046194600F07FFD386A09
:10BF780000F0B2F800F0B2FB0346002B7FF45DAF8F
:10BF8800FFF7AAFA59E7386A00F0A6F800F0A6FB0E
:10BF980053E7386A00F0A0F800F0A0FB4FF0000368
:10BFA800184607F12807BD4680BD00BF80B584B09C
:10BFB80000AFF860B9607A60FB681B6C002B0DD18C
:10BFC800FB681B68002B55D1FB685B68184601F0BD
:10BFD800A9F8FB684FF000025A604BE07B68002B21
:10BFE8001AD1FB689A68FB681B6C1046B9681A4638
:10BFF800F4F7E8FBFB689A68FB681B6CD218FB68CF
:10C008009A60FB689A68FB685B689A4232D3FB685F
:10C018001A68FB689A602DE0FB68DA68FB681B6C9D
:10C028001046B9681A46F4F7CDFBFB68DA68FB6876
:10C038001B6CC3F10003D218FB68DA60FB68DA688E
:10C04800FB681B689A4208D2FB685A68FB681B6C3D
:10C05800C3F10003D218FB68DA607B68022B09D1B0
:10C06800FB689B6B002B05D0FB689B6B03F1FF32D1
:10C07800FB689A63FB689B6B03F10102FB689A6398
:10C0880007F11007BD4680BD80B582B000AF78606B
:10C0980039607B681B68002B19D07B68DA687B687D
:10C0A8001B6CD2187B68DA607B68DA687B685B682F
:10C0B8009A4203D37B681A687B68DA607B68DA681F
:10C0C8007B681B6C386811461A46F4F77BFB07F14E
:10C0D8000807BD4680BD00BF80B582B000AF78605C
:10C0E800FFF70AFA14E07B685B6A002B15D07B68BF
:10C0F80003F12403184600F01DFD0346002B01D070
:10C1080000F0EEFD7B689B6C03F1FF327B689A645C
:10C118007B689B6C002BE6DC00E000BF7B684FF07F
:10C12800FF329A64FFF7FAF9FFF7E6F914E07B6843
:10C138001B69002B15D07B6803F11003184600F02B
:10C14800F9FC0346002B01D000F0CAFD7B685B6C4C
:10C1580003F1FF327B685A647B685B6C002BE6DC7A
:10C1680000E000BF7B684FF0FF325A64FFF7D6F952
:10C1780007F10807BD4680BD80B584B000AF786080
:10C18800FFF7BAF97B689B6B002B03D14FF00103D3
:10C19800FB6002E04FF00003FB60FFF7BFF9FB68AC
:10C1A800184607F11007BD4680BD00BF80B584B0B2
:10C1B80000AF7860FFF7A0F97B689A6B7B68DB6B50
:10C1C8009A4203D14FF00103FB6002E04FF00003F5
:10C1D800FB60FFF7A3F9FB68184607F11007BD4697
:10C1E80080BD00BF80B485B000AF786039604FF083
:10C1F8000003FB6016E00F4BFA6853F83230002B4F
:10C208000CD10C4BFA68396843F83210094AFB68BC
:10C218004FEAC303D3187A685A6006E0FB6803F153
:10C228000103FB60FB68072BE5D907F11407BD463E
:10C2380080BC7047804B012080B584B000AF786027
:10C2480039607B68FB60FFF757F9FB685B6CB3F1FB
:10C25800FF3F03D1FB684FF000025A64FB689B6CF8
:10C26800B3F1FF3F03D1FB684FF000029A64FFF778
:10C2780055F9FB689B6B002B06D1FB6803F124037F
:10C288001846396800F02CFCF868FFF725FF07F11D
:10C298001007BD4680BD00BF80B58AB002AFF86008
:10C2A800B9603B601346FB80FB68002B02D1FFF7A7
:10C2B8004FF9FEE7BB6A042B02D9FFF749F9FEE7FD
:10C2C800FB881846396B00F033FEB861BB69002B58
:10C2D80074D0BB691A6BFB8803F1FF334FEA830301
:10C2E800D3187B617B6923F007037B617B6903F0CB
:10C2F8000703002B02D0FFF72BF9FEE7FB8800931A
:10C30800B869B968BA6A7B6B00F008FD7869F968A2
:10C318003A68FFF70BF80246BB691A60FB6A002B04
:10C3280002D0FB6ABA691A60FFF7E6F82F4B1B6860
:10C3380003F101022D4B1A602D4B1B68002B09D10C
:10C348002B4BBA691A60294B1B68012B0FD100F0DF
:10C3580035FD0CE0274B1B68002B08D1244B1B68CC
:10C36800DA6ABB6A9A4202D8214BBA691A60224B30
:10C378001B6803F10102204B1A60BB69DA6A1F4B84
:10C388001B689A4203D9BB69DA6A1C4B1A60BB69FD
:10C39800DA6A13464FEA83039B184FEA8303184A65
:10C3A8009A18BB6903F1040310461946FFF7A0FA6F
:10C3B8004FF00103FB61FFF7B1F802E04FF0FF33E4
:10C3C800FB61FB69012B0BD10A4B1B68002B07D0C3
:10C3D800074B1B68DA6ABB6A9A4201D2FFF77CF8FE
:10C3E800FB69184607F12007BD4680BDE4360120E9
:10C3F8000C360120F036012000370120EC360120F0
:10C408001036012080B584B000AF78604FF000038B
:10C41800FB607B68002B1AD0114B1B68002B02D0E5
:10C42800FFF796F8FEE700F04BF90E4B1A687B68A9
:10C43800D318BB600C4B1B6803F104031846FFF7C5
:10C44800B5FAB86800F03CFD00F048F9F860FB6800
:10C45800002B01D1FFF740F807F11007BD4680BD5A
:10C4680004370120E83601200C36012080B584B05D
:10C4780000AF7860FFF740F87B68002B02D1264BAD
:10C488001B6800E07B68FB60FB6803F10403184647
:10C49800FFF78CFAFB689B6A002B05D0FB6803F159
:10C4A80018031846FFF782FAFB6803F104031B48D8
:10C4B8001946FFF71DFAFFF731F8174B1B68FA68A2
:10C4C8009A421BD1164B1B68002B09D0154B1B68D1
:10C4D800002B02D0FFF73CF8FEE7FEF7FDFF17E060
:10C4E8000E4B1A68104B1B689A4204D10A4B4FF046
:10C4F80000021A600CE000F05FFA09E0084B1B68C4
:10C50800002B05D0FEF7F8FF00F04EFDFFF706F808
:10C5180007F11007BD4680BD0C360120D03601203A
:10C52800F036012004370120E436012080B584B0BC
:10C5380000AF78604FF00003FB607B68BB607B68EE
:10C54800002B02D1FFF704F8FEE7BB685A69114BCC
:10C558009A4202D14FF0010301E04FF00003002B93
:10C5680012D0BB689A6A0C4B9A420DD0BB689B6A82
:10C57800002B02D14FF0010301E04FF00003002B24
:10C5880002D04FF00103FB60FB68184607F1100763
:10C59800BD4680BDD0360120A436012080B584B0C8
:10C5A80000AF78607B68FB607B68002B02D1FEF7E8
:10C5B800CFFFFEE7FB68002B38D01E4B1B68FA68DC
:10C5C8009A4233D0FEF798FFF868FFF7AFFF0346AB
:10C5D800012B29D1FB6803F104031846FFF7E6F99C
:10C5E800FB68DA6A144B1B689A4203D9FB68DA6A5B
:10C5F800114B1A60FB68DA6A13464FEA83039B18EB
:10C608004FEA83030D4A9A18FB6803F104031046A6
:10C618001946FFF76DF9FB68DA6A064B1B68DB6A97
:10C628009A4201D3FEF758FFFEF778FF07F110078B
:10C63800BD4680BD0C360120EC36012010360120A5
:10C6480080B586B004AF4FF0000300934FF00003AD
:10C6580001934FF0000302934FF000030393144833
:10C6680014494FF082024FF00003FFF715FE78607F
:10C678007B68012B02D100F09BFD78607B68012B61
:10C688000CD1FEF765FF0C4B4FF001021A600B4B03
:10C698004FF000021A60FEF7AFFE05E07B68002B42
:10C6A80002D1FEF755FFFEE707F10807BD4680BD3A
:10C6B80001CD00084CEB0008F0360120E8360120D7
:10C6C80080B400AF044B1B6803F10102024B1A60EF
:10C6D800BD4680BC704700BF0437012080B582B0DA
:10C6E80000AF4FF000037B603D4B1B68002B02D16D
:10C6F800FEF72EFFFEE7FEF7FFFE394B1B6803F13E
:10C70800FF32374B1A60364B1B68002B5FD1354B15
:10C718001B68002B5BD035E0334BDB68DB683B6084
:10C728003B6803F118031846FFF740F93B6803F12B
:10C7380004031846FFF73AF93B68DA6A2B4B1B6883
:10C748009A4203D93B68DA6A284B1A603B68DA6A6E
:10C7580013464FEA83039B184FEA8303244A9A1827
:10C768003B6803F1040310461946FFF7C1F83B681C
:10C77800DA6A204B1B68DB6A9A4203D31E4B4FF0E0
:10C7880001021A60184B1B68002BC5D11B4B1B6894
:10C79800002B13D00EE000F045F80346002B03D021
:10C7A800154B4FF001021A60144B1B6803F1FF325E
:10C7B800124B1A60114B1B68002BECD10E4B1B68F7
:10C7C800012B04D14FF001037B60FEF785FEFEF7D5
:10C7D800A5FE7B68184607F10807BD4680BD00BF67
:10C7E80004370120E4360120A4360120EC3601206C
:10C7F800103601200C360120F8360120F4360120CD
:10C8080080B582B000AFFEF777FE054B1B687B60F2
:10C81800FEF784FE7B68184607F10807BD4680BD11
:10C82800E836012080B586B000AF4FF000037B6189
:10C83800564B1B68002B40F09680554B1B6803F144
:10C848000102534B1A60524B1B683B613B69002B3A
:10C8580019D1504B1B681B68002B02D0FEF778FEDD
:10C86800FEE74C4B1B68FB604B4B1A68494B1A6040
:10C87800494BFA681A60494B1B6803F10102474BA0
:10C888001A6000F091FB464B1B683A699A4258D3EC
:10C8980000E000BF3F4B1B681B68002B02D14FF024
:10C8A800010301E04FF00003002B04D03C4B4FF094
:10C8B800FF321A6045E0374B1B68DB68DB68BB60FA
:10C8C800BB685B687B603A697B689A4203D2344BE9
:10C8D8007A681A6035E0BB6803F104031846FFF76D
:10C8E80065F8BB689B6A002B05D0BB6803F1180389
:10C8F8001846FFF75BF8BB68DA6A2A4B1B689A424E
:10C9080003D9BB68DA6A274B1A60BB68DA6A134630
:10C918004FEA83039B184FEA8303234A9A18BB689C
:10C9280003F1040310461946FEF7E2FFBB68DA6A12
:10C938001E4B1B68DB6A9A42ABD34FF001037B6145
:10C94800A7E71A4B1B68DA6A174913464FEA8303AD
:10C958009B184FEA8303CB181B68012B09D94FF0AA
:10C9680001037B6105E0124B1B6803F10102104BC8
:10C978001A60104B1B68002B02D04FF001037B613B
:10C988007B69184607F11807BD4680BD04370120AA
:10C99800E83601209C360120A0360120FC36012013
:10C9A80034060020EC360120103601200C36012018
:10C9B800F4360120F836012080B582B000AF264B4E
:10C9C8001B68002B04D0254B4FF001021A603FE092
:10C9D800224B4FF000021A600CE0214B1B68002B21
:10C9E80002D1FEF7B5FDFEE71D4B1B6803F1FF32D0
:10C9F8001B4B1A601A4B1A681A4913464FEA8303ED
:10CA08009B184FEA8303CB181B68002BE5D0144B07
:10CA18001A6813464FEA83039B184FEA8303114AA7
:10CA28009B187B607B685B685A687B685A607B6888
:10CA38005A687B6803F108039A4204D17B685B68F3
:10CA48005A687B685A607B685B68DA68064B1A60CC
:10CA580007F10807BD4680BD04370120F8360120DC
:10CA6800EC360120103601200C36012080B584B048
:10CA780000AF786039607B68002B02D1FEF768FD53
:10CA8800FEE7144B1B6803F1180378681946FEF794
:10CA980053FF104B1B6803F104031846FEF786FF8B
:10CAA8003B68B3F1FF3F08D10A4B1B6803F104034D
:10CAB80009481946FEF71CFF07E0084B1A683B684F
:10CAC800D318FB60F86800F0FBF907F11007BD46C2
:10CAD80080BD00BF0C360120D0360120E836012089
:10CAE80080B584B000AF786039607B68002B02D1D4
:10CAF800FEF72EFDFEE70D4B1B6803F1180378685F
:10CB08001946FEF7F5FE094B1B6803F104031846A6
:10CB1800FEF74CFF064B1A683B68D318FB60F868B1
:10CB280000F0CEF907F11007BD4680BD0C36012094
:10CB3800E836012080B584B000AF78607B68DB6898
:10CB4800DB68BB60BB68002B02D1FEF701FDFEE786
:10CB5800BB6803F118031846FEF728FF224B1B6831
:10CB6800002B21D1BB6803F104031846FEF71EFF12
:10CB7800BB68DA6A1D4B1B689A4203D9BB68DA6A3C
:10CB88001A4B1A60BB68DA6A13464FEA83039B188C
:10CB98004FEA8303164A9A18BB6803F10403104648
:10CBA8001946FEF7A5FE06E0BB6803F11803114815
:10CBB8001946FEF79DFEBB68DA6A0F4B1B68DB6AF5
:10CBC8009A4207D94FF00103FB600C4B4FF001026A
:10CBD8001A6002E04FF00003FB60FB68184607F19B
:10CBE8001007BD4680BD00BF04370120EC36012088
:10CBF80010360120A43601200C360120F836012019
:10CC080080B582B000AF78607B68002B02D1FEF758
:10CC18009FFCFEE7054B1A687B681A60044B1A688C
:10CC28007B685A6007F10807BD4680BDFC360120C5
:10CC3800E836012080B584B000AF786039607B6841
:10CC4800002B02D1FEF784FCFEE73B68002B02D1E3
:10CC5800FEF77EFCFEE7FEF74FFC1F4B1B68BB6030
:10CC68003B681B68B3F1FF3F03D14FF00003FB6043
:10CC780029E07B681A68194B1B689A4208D07B68C0
:10CC88005A68BB689A4203D84FF00103FB601AE068
:10CC98007B685B68BA68D21A3B681B689A420FD2F5
:10CCA8003B681A687B685968BB68CB1AD2183B681E
:10CCB8001A607868FFF7A4FF4FF00003FB6002E0FA
:10CCC8004FF00103FB60FEF729FCFB68184607F1EB
:10CCD8001007BD4680BD00BFE8360120FC360120A4
:10CCE80080B400AF034B4FF001021A60BD4680BC10
:10CCF800704700BFF836012080B582B000AF786079
:10CD080000E000BF00F09EF8034B1B68012BF8D928
:10CD1800FEF7E2FBF5E700BF1036012080B586B0CC
:10CD280000AFF860B9607A603B604FF000037B6148
:10CD380013E0BA687B69D3181A78F9687B69CB184D
:10CD480003F130031A71BA687B69D3181B78002B7A
:10CD580007D07B6903F101037B617B69092BE8D963
:10CD680000E000BFFB684FF0000283F83D207B68BD
:10CD7800042B02D94FF004037B60FB687A68DA62FF
:10CD8800FB687A681A64FB6803F104031846FEF727
:10CD9800A1FDFB6803F118031846FEF79BFDFB682D
:10CDA800FA681A617B68C3F10502FB689A61FB683F
:10CDB800FA685A6207F11807BD4680BD80B582B08F
:10CDC80000AF4FF000037B600FE07A6813464FEA2C
:10CDD80083039B184FEA8303124A9B181846FEF7F1
:10CDE80059FD7B6803F101037B607B68042BECD958
:10CDF8000D48FEF74FFD0D48FEF74CFD0C48FEF7B9
:10CE080049FD0C48FEF746FD0B48FEF743FD0B4B6A
:10CE1800054A1A600A4B054A1A6007F10807BD4619
:10CE280080BD00BF103601207436012088360120ED
:10CE3800A4360120B8360120D03601209C360120C6
:10CE4800A036012080B582B000AF2BE0FFF738FC98
:10CE5800184B1B68002B14BF00230123DBB27B6037
:10CE6800FFF73CFC7B68002B1CD1FEF745FB114B00
:10CE7800DB68DB683B603B6803F104031846FEF798
:10CE880095FD0D4B1B6803F1FF320B4B1A600B4BE2
:10CE98001B6803F1FF32094B1A60FEF73FFB386845
:10CEA80000F072F8054B1B68002BCFD107F108077B
:10CEB800BD4680BDB8360120E4360120CC360120BD
:10CEC80080B582B000AF7860144B1B687A685A60EE
:10CED800134B1B687A689A420AD2124B1A680F4B96
:10CEE8001B6803F1040310461946FEF725FD11E0FF
:10CEF8000D4B1A68094B1B6803F1040310461946C9
:10CF0800FEF71AFD094B1B687A689A4202D2074B52
:10CF18007A681A6007F10807BD4680BD0C36012003
:10CF2800E8360120A03601209C3601203406002076
:10CF380080B584B000AF03463960FB804FF04400F1
:10CF4800FEF7A8FBF860FB68002B17D03B68002BA6
:10CF580007D1FB884FEA83031846FEF79BFB03467D
:10CF680000E03B68FA681363FB681B6B002B05D174
:10CF7800F868FEF727FC4FF00003FB60FB681846D3
:10CF880007F11007BD4680BD80B582B000AF78605C
:10CF98007B681B6B1846FEF715FC7868FEF712FCD9
:10CFA80007F10807BD4680BD80B483B000AF0F4BC2
:10CFB8001B681B68002B02D14FF0010301E04FF002
:10CFC8000003002B04D00A4B4FF0FF321A6008E030
:10CFD800064B1B68DB68DB687B607B685A68044B20
:10CFE8001A6007F10C07BD4680BC70479C360120CB
:10CFF8003406002080B483B000AF054B1B687B600B
:10D008007B68184607F10C07BD4680BC704700BF17
:10D018000C36012080B483B000AF0D4B1B68002B89
:10D0280003D14FF001037B600AE00A4B1B68002B19
:10D0380003D14FF002037B6002E04FF000037B60F6
:10D048007B68184607F10C07BD4680BC704700BFD7
:10D05800F03601200437012080B584B000AF786035
:10D068007B68FB607B68002B52D0FB68DA6A2A4B2E
:10D078001B68DB6A9A424BD2FB689B69002B06DB74
:10D08800254B1B68DB6AC3F10502FB689A61FB68E4
:10D098005969FB68DA6A13464FEA83039B184FEA1B
:10D0A80083031E4A9B18994202D14FF0010301E005
:10D0B8004FF00003002B26D0FB6803F10403184649
:10D0C800FEF774FC144B1B68DA6AFB68DA62FB68CB
:10D0D800DA6A134B1B689A4203D9FB68DA6A104B69
:10D0E8001A60FB68DA6A13464FEA83039B184FEA13
:10D0F80083030A4A9A18FB6803F104031046194689
:10D10800FEF7F6FB04E0044B1B68DA6AFB68DA6298
:10D1180007F11007BD4680BD0C36012010360120EE
:10D12800EC36012080B584B000AF78607B68FB6086
:10D138007B68002B34D0FB68DA6AFB681B6C9A4268
:10D148002ED0FB6803F104031846FEF72FFCFB689A
:10D158001A6CFB68DA62FB689B69002B05DBFB68CD
:10D16800DB6AC3F10502FB689A61FB68DA6A0E4B59
:10D178001B689A4203D9FB68DA6A0B4B1A60FB6892
:10D18800DA6A13464FEA83039B184FEA8303074A78
:10D198009A18FB6803F1040310461946FEF7A8FB2A
:10D1A80007F11007BD4680BDEC360120103601207E
:10D1B80080B586B004AF4FF000037B6000F082FAC0
:10D1C800124B1B68002B14D04FF0020300934FF052
:10D1D800000301934FF0000302934FF00003039301
:10D1E8000B480C494FF482724FF00003FFF754F8D4
:10D1F80078607B68002B02D1FEF7AAF9FEE77B680E
:10D20800184607F10807BD4680BD00BF3837012022
:10D2180035D3000854EB000880B588B000AFF8603B
:10D22800B9607A603B604FF00003FB611F4B1B68DD
:10D23800002B34D0BB683B617B687B61FB68BB61BA
:10D24800BB68052B1FDCFFF7E5FE0346022B0CD15C
:10D25800164B1A6807F1100310461946BA6A4FF0C0
:10D268000003FEF773FCF86119E0104B1A6807F128
:10D278001003104619464FF000024FF00003FEF766
:10D2880065FCF8610BE0094B1A6807F110031046BA
:10D2980019463A684FF00003FEF726FDF861FB696E
:10D2A800184607F12007BD4680BD00BF383701206A
:10D2B80080B586B002AF786039601B4B1B68DB68AD
:10D2C800DB68FB60FB6803F104031846FEF76EFB9E
:10D2D800FB68DB69012B1ED1FB689A697B68D31850
:10D2E800F86819463A687B6800F0B4F80346012BE1
:10D2F80011D14FF000030093F8684FF000017A68ED
:10D308004FF00003FFF788FFB860BB68002B02D11D
:10D31800FEF71EF9FEE7FB685B6AF868984707F1B5
:10D328001007BD4680BD00BF3037012080B584B0EE
:10D3380000AF786007F10803184600F043F8F8607A
:10D34800BB68F868194600F003F800F0CBF8F1E77D
:10D3580080B584B000AF78603960FFF7B1F907F1A4
:10D368000803184600F054F8F860BB68002B1ED17B
:10D378003B68002B0AD17A68FB689A4206D8FFF707
:10D38800ADF97868F968FFF793FF14E00C4B1A6859
:10D398007968FB68CB1A10461946FEF74DFFFFF770
:10D3A8009DF90346002B05D1FEF796F802E0FFF73A
:10D3B80095F900E000BF07F11007BD4680BD00BF2A
:10D3C8003837012080B485B000AF78600F4B1B68F8
:10D3D8001B68002B14BF00230123DBB21A467B68AD
:10D3E8001A607B681B68002B05D1084B1B68DB683B
:10D3F8001B68FB6002E04FF00003FB60FB68184607
:10D4080007F11407BD4680BC704700BF30370120C4
:10D4180080B584B000AF7860FFF7F2F9F8600C4B84
:10D428001B68FA689A4206D200F0EEF87B684FF063
:10D4380001021A6003E07B684FF000021A60044B97
:10D44800FA681A60FB68184607F11007BD4680BDE8
:10D458003C37012080B586B000AFF860B9607A60CB
:10D468003B604FF000037B61FB68BA685A60FB6859
:10D47800FA681A61BA687B689A4214D87A683B6875
:10D48800D21AFB689B699A4203D34FF001037B6170
:10D498001EE0124B1A68FB6803F104031046194694
:10D4A800FEF74AFA14E07A683B689A4207D2BA68EB
:10D4B8003B689A4203D34FF001037B6108E0084BB5
:10D4C8001A68FB6803F1040310461946FEF734FA9C
:10D4D8007B69184607F11807BD4680BD343701201F
:10D4E8003037012080B58AB002AF76E0BB68002BE8
:10D4F80073DB3B69FB61FB695B69002B05D0FB694A
:10D5080003F104031846FEF751FA07F1040318461D
:10D51800FFF77EFFB861BB68092B5BD801A252F800
:10D5280023F000BF55D5000855D5000855D500088B
:10D53800DDD50008ABD50008D5D5000855D50008BD
:10D5480055D50008DDD50008ABD50008FA68FB6999
:10D558009B69D218FB68F8691146BA69FFF77AFF28
:10D568000346012B38D1FB695B6AF8699847FB6968
:10D57800DB69012B30D1FA68FB699B69D3184FF03E
:10D5880000020092F8694FF000011A464FF00003BC
:10D59800FFF742FE78617B69002B1DD1FDF7D8FFAC
:10D5A800FEE7FA68FB699A61FB699B69002B02D167
:10D5B800FDF7CEFFFEE7FB699A69BB69D318F869E6
:10D5C8001946BA69BB69FFF745FF06E0F869FEF737
:10D5D800F9F802E000BF00E000BF0A4B1A6807F143
:10D5E8000803104619464FF000024FF00003FEF7FB
:10D5F800EFFB0346002B7FF479AF07F12007BD4608
:10D6080080BD00BF3837012080B588B002AF42E046
:10D618002A4B1B68DB681B687B61284B1B68DB682F
:10D62800DB683B613B6903F104031846FEF7BEF96A
:10D638003B695B6A386998473B69DB69012B2AD1EA
:10D648003B699A697B69D318FB60FA687B699A42DF
:10D658000FD93B69FA685A603B693A691A61174BF6
:10D668001A683B6903F1040310461946FEF764F98A
:10D6780011E04FF00003009338694FF000017A6918
:10D688004FF00003FFF7C8FDB860BB68002B02D15C
:10D69800FDF75EFFFEE7094B1B681B68002BB7D13F
:10D6A800064B1B687B60064B1A68044B1A60044BD8
:10D6B8007A681A6007F11807BD4680BD3037012027
:10D6C8003437012080B500AFFDF716FF174B1B68F4
:10D6D800002B27D11648FEF7DDF81648FEF7DAF8D2
:10D6E800154B134A1A60154B124A1A604FF00A007C
:10D6F8004FF00C014FF00002FEF7E4F902460B4B25
:10D708001A600A4B1B68002B02D1FDF721FFFEE7C8
:10D71800064B1B68002B05D0044B1B6818460849AC
:10D72800FEF760FDFDF7FAFE80BD00BF3837012027
:10D73800083701201C3701203037012034370120F9
:10D748005CEB000880B584B002AF78607B68244A3F
:10D758001A607B6803F10403184600F06DFA7B68D1
:10D7680003F10803184600F0EFF94FF44070F3F79F
:10D77800C9FC4FF0010000F061FB4FF0020000F01F
:10D788005DFB4FF0030000F059FB7B6803F10803D1
:10D7980018464FF0280100F0F3F94FF000004FF061
:10D7A800010100F0AFFB0F4B00930F484FF0010150
:10D7B8000E4A0F4BFCF7D4F97B6803F104030D4ABA
:10D7C800009218464FF004014FF008020A4B00F08F
:10D7D80043FA7B68184607F10807BD4680BD00BFBD
:10D7E80028F2000850050020943B01201C05002069
:10D7F800E405002000440040000C024080B582B0DF
:10D8080000AF78607B680E4A1A607B6803F10803F2
:10D81800184600F0A9F97B6803F10403184600F0E4
:10D828008BFA4FF0000303F00103002B02D0786855
:10D8380001F016F97B68184607F10807BD4680BD58
:10D8480028F2000880B582B000AF78607868FFF7EA
:10D85800D5FF786801F004F97B68184607F10807D6
:10D86800BD4680BD80B500AF0148FFF7C7FF80BD4A
:10D878004437012080B500AF094B1B6803F0010352
:10D88800002B09D10748FFF75DFF054B4FF0010258
:10D898001A600548F2F774FC024B184680BD00BFB9
:10D8A80040370120443701206DD8000880B483B088
:10D8B80000AF78607B684FF0C80202FB03F37B601F
:10D8C80003E07B6803F1FF337B607B68002B0CBFB0
:10D8D80000230123DBB2002BF3D107F10C07BD466F
:10D8E80080BC704780B483B000AF78607B680B4A17
:10D8F80002FB03F37B6003E07B6803F1FF337B608B
:10D908007B68002B0CBF00230123DBB2002BF3D173
:10D9180007F10C07BD4680BC704700BF400D0300EF
:10D9280080B582B000AF0346FB711D484FF010016F
:10D938004FF00102F3F748FFFB7903F00103DBB274
:10D9480017484FF020011A46F3F73EFFFB7903F022
:10D958000203DBB212484FF040011A46F3F734FFD6
:10D96800FB7903F00403DBB20D484FF480711A46CB
:10D97800F3F72AFFFB7903F00803DBB208484FF0FE
:10D9880080011A46F3F720FF05484FF010014FF0C9
:10D998000002F3F719FF07F10807BD4680BD00BF75
:10D9A8000000024080B582B000AF0346FB71144806
:10D9B8004FF002014FF00002F3F706FF10484FF056
:10D9C80001014FF00102F3F7FFFEFB794FEA231341
:10D9D800DBB21846FFF7A4FF4FF00100FFF782FF04
:10D9E800FB7903F00F03DBB21846FFF799FF4FF0FE
:10D9F8000100FFF777FF07F10807BD4680BD00BFAC
:10DA08000000024080B582B000AF0346FB711448A5
:10DA18004FF001014FF00002F3F7D6FE10484FF027
:10DA280002014FF00002F3F7CFFEFB794FEA231310
:10DA3800DBB21846FFF774FF4FF00500FFF752FFFF
:10DA4800FB7903F00F03DBB21846FFF769FF4FF0CD
:10DA58000500FFF747FF07F10807BD4680BD00BF77
:10DA68000000024080B582B000AF0346FB710B484E
:10DA78004FF003014FF00002F3F7A6FEFB794FEADF
:10DA88002313DBB21846FFF74BFF4FF00500FFF7F3
:10DA980029FF07F10807BD4680BD00BF000002400E
:10DAA80080B586B000AFF860B9601346FB71FA79AB
:10DAB800FB79D318DBB2FB714FF00003FB7522E052
:10DAC800BB681B78002B1AD0BB681B785BB20A2B8B
:10DAD80015D0FB681B781A4697F917309A420EDB67
:10DAE800BB681B78DBB21846FFF75CFFBB6803F125
:10DAF8000103BB60FB7D03F10103FB7503E04FF0FD
:10DB08002000FFF74FFF97F90730002B0CBF0023C9
:10DB18000123DBB2FA7902F1FF32FA71002BCFD17F
:10DB280007F11807BD4680BD80B582B000AF7860A8
:10DB38004FF00100FFF766FF4FF00A00FFF7D2FE33
:10DB480007F10807BD4680BD80B483B000AF786098
:10DB58007B684FF000021A707B68184607F10C07C3
:10DB6800BD4680BC704700BF80B483B000AF78600A
:10DB78007B68184607F10C07BD4680BC704700BF9C
:10DB880080B584B000AF78600B46FB707B68FA788C
:10DB98001A704FF001033B734FF00003BB734FF053
:10DBA80003037B734FF00003FB7340F2F313BB6076
:10DBB80007F108031F481946F3F764FD4FF00F00FB
:10DBC800FEF720FC4FF03000FFF74CFF4FF0050048
:10DBD800FFF788FE4FF03000FFF744FF4FF0640076
:10DBE800FFF764FE4FF03000FFF73CFF4FF0640092
:10DBF800FFF75CFE4FF02000FFF734FF4FF02800DE
:10DC0800FFF700FF4FF03200FFF750FE4FF00C0017
:10DC1800FFF7F8FE4FF00600FFF7F4FE4FF028007C
:10DC2800FEF7F0FB7868FFF77FFF07F11007BD46A6
:10DC380080BD00BF0000024080B483B000AF7860B0
:10DC48007B684FF000021A607B68184607F10C07E2
:10DC5800BD4680BC704700BF80B58AB000AFF86091
:10DC6800B9607A603B60FB683A6B1A60F86800F04C
:10DC78006FF830484FF002014FF00702F3F7BCFD90
:10DC88002C484FF003014FF00702F3F7B5FD4FF0B2
:10DC9800020387F824304FF0030387F825304FF04C
:10DCA800000387F826304FF0010387F82730BA6859
:10DCB8007B6813433B6207F120031E481946F3F7BC
:10DCC800E1FC4FF008033B6207F12003386819466E
:10DCD800F3F7D8FC4FF4E1333B614FF00003BB820C
:10DCE8004FF00003FB824FF000033B834FF000032B
:10DCF800BB834FF00C037B83FB681A6807F11003A2
:10DD080010461946F4F70EF900F080F8FB681B6816
:10DD180018464FF00101F4F7D3F9FB681B68184661
:10DD280040F225514FF00102F4F7FCF907F12807FA
:10DD3800BD4680BD0000024080B483B000AF78606B
:10DD48007B68184607F10C07BD4680BC704700BFCA
:10DD580080B582B000AF78607B681B68254A934223
:10DD680021D0244A934206D8234A93420DD0234A0D
:10DD7800934211D033E0224A934222D0214A93425F
:10DD880026D0214A934215D029E04FF400304FF0B5
:10DD98000101F3F781FE25E04FF480204FF00101E7
:10DDA800F3F77AFE1EE04FF400204FF00101F3F77D
:10DDB80073FE17E04FF480104FF00101F3F76CFE8B
:10DDC80010E04FF080404FF00101F3F765FE09E0E5
:10DDD8004FF000404FF00101F3F75EFE02E04FF014
:10DDE800020301E04FF00003184607F10807BD469B
:10DDF80080BD00BF004C0040004400400048004087
:10DE080000780040007C00400050004080B582B09F
:10DE180000AF4FF026033B714FF000037B714FF0CA
:10DE28000003BB714FF00103FB7107F104031846AF
:10DE3800F3F77AF907F10807BD4680BD80B584B0CD
:10DE480000AF0346FB71FA79134B53F8223018469A
:10DE58004FF00101F3F7E0FDFA79104B33F8123077
:10DE6800BB604FF001033B734FF00003BB734FF0EF
:10DE78000103FB734FF002037B73FA79084B53F8E5
:10DE8800222007F1080310461946F3F7FBFB07F1B8
:10DE98001007BD4680BD00BF38F2000830F2000808
:10DEA8003806002080B483B000AF0346FB71FA79CE
:10DEB800064B53F82230F979054A32F811201A83B3
:10DEC80007F10C07BD4680BC704700BF380600202C
:10DED80030F2000880B483B000AF0346FB71FA79D2
:10DEE800064B53F82230F979054A32F811205A8343
:10DEF80007F10C07BD4680BC704700BF38060020FC
:10DF080030F2000880B588B000AF02460B46FA71BF
:10DF1800BB71FA792C4B53F8223018464FF00101A7
:10DF2800F3F77AFD4FF480404FF00101F3F7D4FD89
:10DF38004FF000033B774FF00003FB77FA79234B50
:10DF480033F81230BB61FA79214B53F8222007F1DC
:10DF5800180310461946F3F795FBBB79012B2ED110
:10DF6800FB791C4AD25CFB791B49CB5C10461946ED
:10DF7800F3F78CFFFA79194B33F812303B614FF005
:10DF880000033B754FF008037B754FF00103BB7529
:10DF980007F110031846F3F701FBFB79104AD35C2D
:10DFA8003B734FF00F037B734FF00F03BB734FF0BE
:10DFB8000103FB7307F10C031846F3F7B5F807F1F3
:10DFC8002007BD4680BD00BF48F2000844F20008A3
:10DFD8004406002050F2000854F200084CF20008F1
:10DFE80058F2000880B582B000AF786039607B686D
:10DFF8001B68184639684FF000024FF00003FDF720
:10E00800A5FD0346002B0CBF00230123DBB21846F5
:10E0180007F10807BD4680BD80B582B000AF7860C3
:10E02800786800F061F807F10807BD4680BD00BFB9
:10E0380080B588B004AFF860B960FA807B71FB687E
:10E048000F4A1A60FB680F4A9A6097F90510FB6837
:10E0580003F10402FB88009101924FF00002029242
:10E068004FF0000203920848B9681A46FB68FEF7A9
:10E0780013F9FB68184607F11007BD4680BD00BFBD
:10E0880068F2000864EB000821E0000880B582B05F
:10E0980000AF78607B680B4A1A607B6803F10C0359
:10E0A8001846F7F783FA4FF0000303F00103002B3B
:10E0B80002D0786800F0D4FC7B68184607F108079E
:10E0C800BD4680BD68F2000880B582B000AF7860B8
:10E0D8007868FFF7DBFF786800F0C2FC7B681846B9
:10E0E80007F10807BD4680BD80B598B002AF7860DB
:10E0F800FFF7C0FB07F14803184644494FF4806214
:10E108004FF0030300F01EFB7B6803F1040207F1E4
:10E118003C03009218463E494FF400724FF0020348
:10E1280000F0A4F800F058FC4FF0000387F85230D4
:10E138004FF0010387F8533097F8523018463549A5
:10E14800F6F7CCFD034687F851307B6803F10C03E2
:10E15800184631494FF00102F6F7EEFD034687F8FD
:10E1680050307B6803F5866318462C494FF001024E
:10E17800F6F7E2FD034687F84F3097F85130002B49
:10E1880014BF00230123DBB21A4697F8533013401B
:10E19800002B37D07B6803F10C0307F134021046DB
:10E1A8004FF005011A46F7F717FA0346002B14BF7C
:10E1B80000230123DBB2002B03D04FF0000387F8C4
:10E1C80053307B6803F5866307F10C0210464FF065
:10E1D80028011A46F7F700FA07F134031846F1F751
:10E1E800D5FF03464FF47A7202FB03F37B6500F018
:10E1F800F3FB034603F1040207F10C03104619462A
:10E20800FFF7F0FE786DFEF7FDF8B6E778EB00084B
:10E2180084EB00085037012094EB0008A0EB0008BD
:10E2280080B582B000AF786039607B681B6818469B
:10E2380039684FF0FF324FF00003FDF7C9FD034680
:10E24800002B0CBF00230123DBB2184607F1080797
:10E25800BD4680BD80B582B000AF7860786800F0B8
:10E2680059F807F10807BD4680BD00BF80B588B0E2
:10E2780004AFF860B960FA807B71FB680F4A1A60D6
:10E2880097F90510FB6803F10402FB8800910192DD
:10E298004FF0000202924FF0000203920848B9685A
:10E2A8001A46FB68FDF7F8FFBB691A68FB689A60B5
:10E2B800FB68184607F11007BD4680BD78F20008D4
:10E2C8005DE2000880B582B000AF78607B68084ADC
:10E2D8001A604FF0000303F00103002B02D07868A6
:10E2E80000F0BEFB7B68184607F10807BD4680BDF5
:10E2F80078F2000880B582B000AF78607868FFF7E0
:10E30800E1FF786800F0ACFB7B68184607F1080766
:10E31800BD4680BD80B5C8B000AF07F104031860E2
:10E3280007F58673184600F067F800F055FB0346BA
:10E3380003F1080207F1080310461946FFF770FFBA
:10E3480007F108039B78022B25D107F5867107F1A1
:10E35800080207F58573084611461A4600F0B2F818
:10E368000346002B14BF00230123DBB2002B3CD053
:10E3780007F104031B689B681846FEF777F800F05E
:10E388002BFB034603F1040207F108031046194664
:10E39800FFF728FE29E007F108039B78012B24D119
:10E3A80007F5867107F1080207F5857308461146D7
:10E3B8001A4600F087F80346002B14BF00230123F8
:10E3C800DBB2002B11D007F10803184609494FF0BA
:10E3D8000302F2F7C5F90346002B06D107F104033F
:10E3E8001B689B681846FEF7D9F84FF06400FEF7E3
:10E3F80009F89AE780F2000880B582B000AF78602B
:10E408007B68194A1A607B684FF032021A717B6880
:10E418004FF000025A717B684FF000029A717B68D6
:10E428004FF000029A607B684FF000029A817B6887
:10E438004FF033029A737B684FF00602DA737B68F9
:10E448004FF003021A747B6840F2F9325A82074B84
:10E458001B680748194600F0DBFA7B68184607F185
:10E468000807BD4680BD00BF90F20008803B012030
:10E4780071E6000880B582B000AF78607B68084A12
:10E488001A604FF0000303F00103002B02D07868F4
:10E4980000F0E6FA7B68184607F10807BD4680BD1C
:10E4A80090F2000880B582B000AF78607868FFF716
:10E4B800E1FF786800F0D4FA7B68184607F108078E
:10E4C800BD4680BD80B586B000AFF860B9607A609F
:10E4D800BB681B781A46FB681B795BB29A4202D06C
:10E4E8004FF0030380E0FB6803F10502BB6803F10A
:10E4F8000103104619464FF00102F2F763F9FB6871
:10E5080003F10C02FB685B7959B2FB68DB7B5BB2F9
:10E51800CB1A03F10303B968CB18104619464FF01C
:10E528000202F2F74FF9FB685B795AB2FB68DB7BB2
:10E538005BB2D31A03F10303BA68D31818464FF035
:10E5480000014FF00202F2F7F7F9FB685B795AB263
:10E55800FB68DB7B5BB2D31A03F10503BA68D318F7
:10E56800FA68927BD2B21A70FB685B795BB29BB295
:10E578001BB2B868194600F03FF80346FB82FB68F7
:10E588009B89FA8A9A4208D000F026FA034603F1DA
:10E59800040318461749FFF725FDBB6803F103027A
:10E5A800FB685B7959B2FB68DB7B5BB2CB1AB86856
:10E5B80011461A46F2F706F9FB685B795AB2FB680E
:10E5C800DB7B5BB2D31ABA68D31818464FF0000148
:10E5D8004FF00502F2F7B0F9FB685B795BB29AB2CB
:10E5E8007B681A804FF00003184607F11807BD46EC
:10E5F80080BD00BFACEB000880B485B000AF786088
:10E608000B467B804FF6FF73FB8115E07B681A7819
:10E61800FB89DBB253407B737B6803F101037B60AA
:10E62800FB894FEA2323FB817A7B0E4B53F8223078
:10E638009AB2FB895340FB81B7F90230002B0CBF1B
:10E6480000230123DBB27A8802F1FF327A80002BA3
:10E65800DCD1FB891BB2184607F11407BD4680BC04
:10E66800704700BF98F2000880B584B000AF7860AA
:10E6780039604FF00003FB814FF001033B7311E059
:10E68800B7F90E307A68D3181B787B73FB8903F1CE
:10E698000103FB81B7F90E30052B03DD4FF00003B2
:10E6A8003B731DE097F90D30322B0CBF002301237B
:10E6B800DBB2002BE4D197F90C30002B10D000F01E
:10E6C8008BF9034603F10802FB8903F1FF33FB8151
:10E6D800B7F90E307968CB1810461946FFF782FC57
:10E6E80007F11007BD4680BD80B582B000AF7860E5
:10E6F80039607B68012B09D13A684FF6FF739A425B
:10E7080004D100F069F90246024B1A6007F10807C4
:10E71800BD4680BD803B012080B500AF4FF00100B1
:10E728004FF6FF71FFF7E0FF80BD00BF80B582B0F4
:10E7380000AF7860786800F027F807F10807BD4651
:10E7480080BD00BF80B588B004AFF860B960FA80BA
:10E758007B7197F90510FA68FB88009101924FF0D8
:10E76800000202924FF0000203920648B9681A4666
:10E77800FB68FDF791FDFB68184607F11007BD46D9
:10E7880080BD00BF35E7000880B5CEB000AF07F107
:10E79800040318604FF0000387F8373100F01CF9C4
:10E7A800034603F1040207F1300310461946FFF748
:10E7B80037FD97F9373107F13002D35C5BB2002B94
:10E7C8000CBF00230123DBB297F8372102F10102C5
:10E7D80087F83721002BECD197F93731272B18DC34
:10E7E80097F9373107F1080107F130020846114659
:10E7F8001A46F1F7E7FFFFF73DF8034603F1080271
:10E8080007F10803104619464FF02802FFF748F9A8
:10E8180056E097F93731C7F8303122E097F93721B8
:10E82800D7F83031D31A07F13002D31807F10802AC
:10E83800104619464FF02702F1F7C4FFFFF71AF800
:10E84800034603F1080207F10803104619464FF082
:10E858002802FFF725F9D7F83031A3F12803C7F8C4
:10E868003031D7F83031282BD4BF00230123DBB255
:10E87800002BD3D197F93721D7F83031D31A07F1C4
:10E888003002D21897F9373107F1080108461146C6
:10E898001A46F1F797FFFEF7EDFF034603F1080369
:10E8A8001846FFF741F9FEF7E5FF034603F10802B2
:10E8B80007F10803104619464FF02802FFF7F0F851
:10E8C8004FF06400FDF79EFD68E700BF80B584B097
:10E8D80000AFF8600B467A60FB72FB7A18467968DD
:10E8E8004FF00002FDF7EEF80246FB681A6007F1E8
:10E8F8001007BD4680BD00BF80B483B000AF78600C
:10E908007B684FF000021A607B68184607F10C0715
:10E91800BD4680BC704700BF80B582B000AF78604C
:10E928007B68144A1A607B6803F104031846FFF7F2
:10E93800E3FF7B6803F108031846FFF7DDFF7B68F8
:10E9480003F1040318464FF005014FF0FE02FFF7EC
:10E95800BDFF7B6803F1080318464FF002014FF032
:10E96800FE02FFF7B3FF7B68184607F10807BD46AC
:10E9780080BD00BFA0F6000880B582B000AF786007
:10E988007B68084A1A604FF0000303F00103002B6C
:10E9980002D0786800F064F87B68184607F1080729
:10E9A800BD4680BDA0F6000880B582B000AF786093
:10E9B8007868FFF7E1FF786800F052F87B6818463E
:10E9C80007F10807BD4680BD80B500AF0148FFF7D5
:10E9D800D3FF80BD883B012080B500AF094B1B6881
:10E9E80003F00103002B09D10748FFF795FF054BFA
:10E9F8004FF001021A600548F1F7C2FB024B1846B6
:10EA080080BD00BF843B0120883B0120D1E900087C
:10EA180080B483B000AF78603960054B7A681A60BB
:10EA2800044B3A681A6007F10C07BD4680BC704772
:10EA3800C04B0120803B012080B582B000AF7860D8
:10EA4800054B1B68054A126878681146984707F114
:10EA58000807BD4680BD00BFC04B0120803B012098
:10EA680008B1F1F7A9BB70474D61696E2048616E26
:10EA7800646C65720000000053544D3332205669AF
:10EA8800727475616C20436F6D506F727420696E7B
:10EA9800204853206D6F64650000000053544D33C7
:10EAA80032205669727475616C20436F6D506F72B5
:10EAB8007420696E204653204D6F64650000000085
:10EAC800536572674465766963650000303030309D
:10EAD80030303030303530420000000030303030D7
:10EAE800303030303035304300000000564350207D
:10EAF800436F6E666967000056435020496E74651F
:10EB08007266616365000000222A3A3C3E3F7C7FC2
:10EB1800000000002B2C3B5B3D5D00004E4F204E5B
:10EB2800414D45202020204641542020202020000F
:10EB38004E4F204E414D452020202046415433322F
:10EB48002020200049444C4500000000546D7220EC
:10EB580053766300546D725100000000446566618D
:10EB6800756C74207465737420737472696E6700B1
:10EB78004C43442048616E646C6572005365726949
:10EB8800616C2048616E646C657200006D6573731A
:10EB98006167652E7478740071756575652E747873
:10EBA800740000004D65737361676520636F72724E
:10EBB80075707465640000000400002000202020A7
:10EBC8002020202020202828282828202020202015
:10EBD80020202020202020202020202020881010E5
:10EBE8001010101010101010101010101004040441
:10EBF80004040404040404101010101010104141FF
:10EC080041414141010101010101010101010101EC
:10EC18000101010101010101101010101010424200
:10EC280042424242020202020202020202020202BC
:10EC3800020202020202020210101010200000005C
:10EC480000000000000000000000000000000000BC
:10EC580000000000000000000000000000000000AC
:10EC6800000000000000000000000000000000009C
:10EC7800000000000000000000000000000000008C
:10EC8800000000000000000000000000000000007C
:10EC9800000000000000000000000000000000006C
:10ECA800000000000000000000000000000000005C
:10ECB800000000000000000000000000000000004C
:10ECC800AC2000001A2092011E202620202021209E
:10ECD800C602302060013920520100007D01000089
:10ECE8000000182019201C201D2022201320142089
:10ECF800DC02222161013A20530100007E017801E3
:10ED0800A000A100A200A300A400A500A600A700DF
:10ED1800A800A900AA00AB00AC00AD00AE00AF008F
:10ED2800B000B100B200B300B400B500B600B7003F
:10ED3800B800B900BA00BB00BC00BD00BE00BF00EF
:10ED4800C000C100C200C300C400C500C600C7009F
:10ED5800C800C900CA00CB00CC00CD00CE00CF004F
:10ED6800D000D100D200D300D400D500D600D700FF
:10ED7800D800D900DA00BD00DC00DD00DE00DF00CD
:10ED8800E000E100E200E300E400E500E600E7005F
:10ED9800E800E900EA00EB00EC00ED00EE00EF000F
:10EDA800F000F100F200F300F400F500F600F700BF
:10EDB800F800F900FA00FB00FC00FD00FE00FF006F
:10EDC8006100620063006400650066006700680017
:10EDD80069006A006B006C006D006E006F007000C7
:10EDE8007100720073007400750076007700780077
:10EDF80079007A00A100A200A300A500AC00AF0032
:10EE0800E000E100E200E300E400E500E600E700DE
:10EE1800E800E900EA00EB00EC00ED00EE00EF008E
:10EE2800F000F100F200F300F400F500F600F8003D
:10EE3800F900FA00FB00FC00FD00FE00FF000101E4
:10EE480003010501070109010B010D010F01110162
:10EE580013011501170119011B011D011F012101D2
:10EE680023012501270129012B012D012F01310142
:10EE78003301350137013A013C013E0140014201AD
:10EE88004401460148014B014D014F015101530115
:10EE98005501570159015B015D015F016101630182
:10EEA8006501670169016B016D016F0171017301F2
:10EEB800750177017A017C017E019201B103B203E9
:10EEC800B303B403B503B603B703B803B903BA036E
:10EED800BB03BC03BD03BE03BF03C003C103C3031D
:10EEE800C403C503C603C703C803C903CA03300460
:10EEF8003104320433043404350436043704380446
:10EF080039043A043B043C043D043E043F044004F5
:10EF180041044204430444044504460447044804A5
:10EF280049044A044B044C044D044E044F04510454
:10EF380052045304540455045604570458045904FD
:10EF48005A045B045C045E045F0470217121722121
:10EF580073217421752176217721782179217A21ED
:10EF68007B217C217D217E217F2141FF42FF43FFC0
:10EF780044FF45FF46FF47FF48FF49FF4AFF4BFF55
:10EF88004CFF4DFF4EFF4FFF50FF51FF52FF53FF05
:10EF980054FF55FF56FF57FF58FF59FF5AFF00000F
:10EFA8004100420043004400450046004700480035
:10EFB80049004A004B004C004D004E004F005000E5
:10EFC8005100520053005400550056005700580095
:10EFD80059005A002100E0FFE1FFE5FFE2FFE3FFEF
:10EFE800C000C100C200C300C400C500C600C700FD
:10EFF800C800C900CA00CB00CC00CD00CE00CF00AD
:10F00800D000D100D200D300D400D500D600D8005B
:10F01800D900DA00DB00DC00DD00DE007801000149
:10F0280002010401060108010A010C010E01100188
:10F0380012011401160118011A011C011E012001F8
:10F0480022012401260128012A012C012E01300168
:10F0580032013401360139013B013D013F014101D3
:10F068004301450147014A014C014E01500152013B
:10F078005401560158015A015C015E0160016201A8
:10F088006401660168016A016C016E017001720118
:10F098007401760179017B017D019101910392034D
:10F0A80093039403950396039703980399039A038C
:10F0B8009B039C039D039E039F03A003A103A3033B
:10F0C800A403A503A603A703A803A903AA0310047E
:10F0D8001104120413041404150416041704180464
:10F0E80019041A041B041C041D041E041F04200414
:10F0F80021042204230424042504260427042804C4
:10F1080029042A042B042C042D042E042F040104A2
:10F11800020403040404050406040704080409049B
:10F128000A040B040C040E040F04602161216221FF
:10F1380063216421652166216721682169216A218B
:10F148006B216C216D216E216F2121FF22FF23FF8E
:10F1580024FF25FF26FF27FF28FF29FF2AFF2BFF73
:10F168002CFF2DFF2EFF2FFF30FF31FF32FF33FF23
:10F1780034FF35FF36FF37FF38FF39FF3AFF00000D
:10F1880001030507090E10121416181C1E000000B2
:10F19800808182838485868788898A8B8C8D8E8FEF
:10F1A80090919293949596979899AD9B8C9DAE9FCC
:10F1B800A021A2A3A4A5A6A7A8A9AAABACADAEAF4F
:10F1C800B0B1B2B3B4B5B6B7B8B9BABBBCBDBEBFBF
:10F1D800C0C1C2C3C4C5C6C7C8C9CACBCCCDCECFAF
:10F1E800D0D1D2D3D4D5D6D7D8D9DADBDCDDDEDF9F
:10F1F800C0C1C2C3C4C5C6C7C8C9CACBCCCDCECF8F
:10F20800D0D1D2D3D4D5D6F7D8D9DADBDCDDDE9F9E
:10F21800F0E300E00800000000000000000000002B
:10F2280005D800084DD800080020004000800000E4
:10F2380008000000080000000800000001000000AD
:10F2480001000000010000000000000000000000B4
:10F2580006000000000000000000000000000000A0
:10F2680095E00008D1E00008000000000000000060
:10F27800CDE20008FDE20008414C434400000000D4
:10F2880000000000000000007DE40008ADE4000874
:10F2980000000000C1C0000081C100004001000062
:10F2A80001C30000C00300008002000041C200004A
:10F2B80001C60000C00600008007000041C700002A
:10F2C80000050000C1C5000081C400004004000022
:10F2D80001CC0000C00C0000800D000041CD0000F2
:10F2E800000F0000C1CF000081CE0000400E0000DA
:10F2F800000A0000C1CA000081CB0000400B0000DA
:10F3080001C90000C00900008008000041C80000D1
:10F3180001D80000C01800008019000041D9000081
:10F32800001B0000C1DB000081DA0000401A000069
:10F33800001E0000C1DE000081DF0000401F000049
:10F3480001DD0000C01D0000801C000041DC000041
:10F3580000140000C1D4000081D500004015000051
:10F3680001D70000C01700008016000041D6000039
:10F3780001D20000C01200008013000041D3000039
:10F3880000110000C1D1000081D000004010000031
:10F3980001F00000C03000008031000041F10000A1
:10F3A80000330000C1F3000081F200004032000089
:10F3B80000360000C1F6000081F700004037000069
:10F3C80001F50000C03500008034000041F4000061
:10F3D800003C0000C1FC000081FD0000403D000031
:10F3E80001FF0000C03F0000803E000041FE000019
:10F3F80001FA0000C03A0000803B000041FB000019
:10F4080000390000C1F9000081F800004038000010
:10F4180000280000C1E8000081E900004029000040
:10F4280001EB0000C02B0000802A000041EA000028
:10F4380001EE0000C02E0000802F000041EF000008
:10F44800002D0000C1ED000081EC0000402C000000
:10F4580001E40000C02400008025000041E5000010
:10F4680000270000C1E7000081E6000040260000F8
:10F4780000220000C1E2000081E3000040230000F8
:10F4880001E10000C02100008020000041E00000F0
:10F4980001A00000C06000008061000041A10000E0
:10F4A80000630000C1A3000081A2000040620000C8
:10F4B80000660000C1A6000081A7000040670000A8
:10F4C80001A50000C06500008064000041A40000A0
:10F4D800006C0000C1AC000081AD0000406D000070
:10F4E80001AF0000C06F0000806E000041AE000058
:10F4F80001AA0000C06A0000806B000041AB000058
:10F5080000690000C1A9000081A80000406800004F
:10F5180000780000C1B8000081B9000040790000FF
:10F5280001BB0000C07B0000807A000041BA0000E7
:10F5380001BE0000C07E0000807F000041BF0000C7
:10F54800007D0000C1BD000081BC0000407C0000BF
:10F5580001B40000C07400008075000041B50000CF
:10F5680000770000C1B7000081B6000040760000B7
:10F5780000720000C1B2000081B3000040730000B7
:10F5880001B10000C07100008070000041B00000AF
:10F5980000500000C190000081910000405100001F
:10F5A80001930000C0530000805200004192000007
:10F5B80001960000C05600008057000041970000E7
:10F5C80000550000C19500008194000040540000DF
:10F5D800019C0000C05C0000805D0000419D0000AF
:10F5E800005F0000C19F0000819E0000405E000097
:10F5F800005A0000C19A0000819B0000405B000097
:10F6080001990000C059000080580000419800008E
:10F6180001880000C04800008049000041890000BE
:10F62800004B0000C18B0000818A0000404A0000A6
:10F63800004E0000C18E0000818F0000404F000086
:10F64800018D0000C04D0000804C0000418C00007E
:10F6580000440000C184000081850000404500008E
:10F6680001870000C0470000804600004186000076
:10F6780001820000C0420000804300004183000076
:10F6880000410000C181000081800000404000006E
:10F69800000000000000000081E90008B1E900084E
:04F6A800430000001B
:08F6AC00BCF3FF7F0100000028
:04F6B40021E7000842
:10F6B800040000200000000000000000000000001E
:10F6C8000000000000000000000000000000000032
:10F6D80000000000A8F6000800000000000000007C
:10F6E8000000000000000000000000000000000012
:10F6F8000000000000000000000000000000000002
:10F7080000000000000000000000000000000000F1
:10F7180000000000000000000000000000000000E1
:10F7280000000000000000000000000000000000D1
:10F7380000000000000000000000000000000000C1
:10F7480000000000000000000000000000000000B1
:10F7580000000000000000000000000000000000A1
:10F768000000000000000000000000000000000091
:10F778000000000000000000000000000000000081
:10F788000000000000000000000000000000000071
:10F798000000000000000000000000000000000061
:10F7A800000000000000000000000000F40000203D
:10F7B800F4000020FC000020FC00002004010020D0
:10F7C800040100200C0100200C010020140100207D
:10F7D800140100201C0100201C010020240100202D
:10F7E800240100202C0100202C01002034010020DD
:10F7F800340100203C0100203C010020440100208D
:10F80800440100204C0100204C010020540100203C
:10F81800540100205C0100205C01002064010020EC
:10F82800640100206C0100206C010020740100209C
:10F83800740100207C0100207C010020840100204C
:10F84800840100208C0100208C01002094010020FC
:10F85800940100209C0100209C010020A4010020AC
:10F86800A4010020AC010020AC010020B40100205C
:10F87800B4010020BC010020BC010020C40100200C
:10F88800C4010020CC010020CC010020D4010020BC
:10F89800D4010020DC010020DC010020E40100206C
:10F8A800E4010020EC010020EC010020F40100201C
:10F8B800F4010020FC010020FC01002004020020CB
:10F8C800040200200C0200200C0200201402002078
:10F8D800140200201C0200201C0200202402002028
:10F8E800240200202C0200202C02002034020020D8
:10F8F800340200203C0200203C0200204402002088
:10F90800440200204C0200204C0200205402002037
:10F91800540200205C0200205C02002064020020E7
:10F92800640200206C0200206C0200207402002097
:10F93800740200207C0200207C0200208402002047
:10F94800840200208C0200208C02002094020020F7
:10F95800940200209C0200209C020020A4020020A7
:10F96800A4020020AC020020AC020020B402002057
:10F97800B4020020BC020020BC020020C402002007
:10F98800C4020020CC020020CC020020D4020020B7
:10F99800D4020020DC020020DC020020E402002067
:10F9A800E4020020EC020020EC020020F402002017
:10F9B800F4020020FC020020FC02002004030020C6
:10F9C800040300200C0300200C0300201403002073
:10F9D800140300201C0300201C0300202403002023
:10F9E800240300202C0300202C03002034030020D3
:10F9F800340300203C0300203C0300204403002083
:10FA0800440300204C0300204C0300205403002032
:10FA1800540300205C0300205C03002064030020E2
:10FA2800640300206C0300206C0300207403002092
:10FA3800740300207C0300207C0300208403002042
:10FA4800840300208C0300208C03002094030020F2
:10FA5800940300209C0300209C030020A4030020A2
:10FA6800A4030020AC030020AC030020B403002052
:10FA7800B4030020BC030020BC030020C403002002
:10FA8800C4030020CC030020CC030020D4030020B2
:10FA9800D4030020DC030020DC030020E403002062
:10FAA800E4030020EC030020EC030020F403002012
:10FAB800F4030020FC030020FC03002004040020C1
:10FAC800040400200C0400200C040020140400206E
:10FAD800140400201C0400201C040020240400201E
:10FAE800240400202C0400202C04002034040020CE
:10FAF800340400203C0400203C040020440400207E
:10FB0800440400204C0400204C040020540400202D
:10FB1800540400205C0400205C04002064040020DD
:10FB2800640400206C0400206C040020740400208D
:10FB3800740400207C0400207C040020840400203D
:10FB4800840400208C0400208C04002094040020ED
:10FB5800940400209C0400209C040020A40400209D
:10FB6800A4040020AC040020AC040020B40400204D
:10FB7800B4040020BC040020BC040020C4040020FD
:10FB8800C4040020CC040020CC040020D4040020AD
:10FB9800D4040020DC040020DC040020E40400205D
:10FBA800E4040020EC040020EC040020FFFFFFFF29
:10FBB80000000200C4EB000800000000010203047A
:10FBC8000102030406070809007A030AC927000886
:10FBD800F127000859280008192800088528000876
:10FBE800C528000801290008120100020000004091
:10FBF80083044057000201020301000004030904C2
:10FC08003D2900084929000871290008952900089C
:10FC1800A12900087D29000889290008499C0008B5
:10FC28001D9D0008D99B0008DD9E0008319E000834
:10FC3800B19E0008859E00086D9F0008919F0008EE
:10FC480000000000000000006C05002009024300CD
:10FC5800020100C03209040000010202010005246B
:10FC680000100105240100010424020205240600F5
:10FC780001070582030800FF09040100020A0000C9
:10FC8800000705010240000007058102400000004E
:10FC9800FF000000E1AA00088DAB0008D1AB000806
:10FCA8000000000001AD000849AD000819AE0008C9
:10FCB80079AE00080000000000000000CDAF000889
:10FCC80000C2010000000800F5AF000805B00008F8
:10FCD80015B0000839B10008A1B10008AAAAAAAA5B
:10FCE800F82B0100FFFFFFFF000C0240000C024050
:08FCF800000C02400000024074
:040000050800229538
:00000001FF
